{
  "contractName": "BBT",
  "abi": [
    {
      "constant": true,
      "inputs": [],
      "name": "name",
      "outputs": [
        {
          "name": "",
          "type": "string"
        }
      ],
      "payable": false,
      "stateMutability": "view",
      "type": "function"
    },
    {
      "constant": false,
      "inputs": [
        {
          "name": "_spender",
          "type": "address"
        },
        {
          "name": "_value",
          "type": "uint256"
        }
      ],
      "name": "approve",
      "outputs": [
        {
          "name": "",
          "type": "bool"
        }
      ],
      "payable": false,
      "stateMutability": "nonpayable",
      "type": "function"
    },
    {
      "constant": true,
      "inputs": [
        {
          "name": "_operator",
          "type": "address"
        },
        {
          "name": "_role",
          "type": "string"
        }
      ],
      "name": "checkRole",
      "outputs": [],
      "payable": false,
      "stateMutability": "view",
      "type": "function"
    },
    {
      "constant": true,
      "inputs": [],
      "name": "totalSupply",
      "outputs": [
        {
          "name": "",
          "type": "uint256"
        }
      ],
      "payable": false,
      "stateMutability": "view",
      "type": "function"
    },
    {
      "constant": true,
      "inputs": [],
      "name": "ROLE_WHITELISTED",
      "outputs": [
        {
          "name": "",
          "type": "string"
        }
      ],
      "payable": false,
      "stateMutability": "view",
      "type": "function"
    },
    {
      "constant": true,
      "inputs": [
        {
          "name": "_operator",
          "type": "address"
        },
        {
          "name": "_role",
          "type": "string"
        }
      ],
      "name": "hasRole",
      "outputs": [
        {
          "name": "",
          "type": "bool"
        }
      ],
      "payable": false,
      "stateMutability": "view",
      "type": "function"
    },
    {
      "constant": false,
      "inputs": [
        {
          "name": "_from",
          "type": "address"
        },
        {
          "name": "_to",
          "type": "address"
        },
        {
          "name": "_value",
          "type": "uint256"
        }
      ],
      "name": "transferFrom",
      "outputs": [
        {
          "name": "",
          "type": "bool"
        }
      ],
      "payable": false,
      "stateMutability": "nonpayable",
      "type": "function"
    },
    {
      "constant": false,
      "inputs": [
        {
          "name": "_operators",
          "type": "address[]"
        }
      ],
      "name": "removeAddressesFromWhitelist",
      "outputs": [],
      "payable": false,
      "stateMutability": "nonpayable",
      "type": "function"
    },
    {
      "constant": false,
      "inputs": [
        {
          "name": "_operator",
          "type": "address"
        }
      ],
      "name": "removeAddressFromWhitelist",
      "outputs": [],
      "payable": false,
      "stateMutability": "nonpayable",
      "type": "function"
    },
    {
      "constant": true,
      "inputs": [],
      "name": "decimals",
      "outputs": [
        {
          "name": "",
          "type": "uint8"
        }
      ],
      "payable": false,
      "stateMutability": "view",
      "type": "function"
    },
    {
      "constant": false,
      "inputs": [],
      "name": "unpause",
      "outputs": [],
      "payable": false,
      "stateMutability": "nonpayable",
      "type": "function"
    },
    {
      "constant": false,
      "inputs": [
        {
          "name": "_value",
          "type": "uint256"
        }
      ],
      "name": "burn",
      "outputs": [],
      "payable": false,
      "stateMutability": "nonpayable",
      "type": "function"
    },
    {
      "constant": true,
      "inputs": [],
      "name": "teamWallet",
      "outputs": [
        {
          "name": "",
          "type": "address"
        }
      ],
      "payable": false,
      "stateMutability": "view",
      "type": "function"
    },
    {
      "constant": true,
      "inputs": [],
      "name": "paused",
      "outputs": [
        {
          "name": "",
          "type": "bool"
        }
      ],
      "payable": false,
      "stateMutability": "view",
      "type": "function"
    },
    {
      "constant": true,
      "inputs": [],
      "name": "circulation",
      "outputs": [
        {
          "name": "",
          "type": "uint256"
        }
      ],
      "payable": false,
      "stateMutability": "view",
      "type": "function"
    },
    {
      "constant": false,
      "inputs": [
        {
          "name": "_spender",
          "type": "address"
        },
        {
          "name": "_subtractedValue",
          "type": "uint256"
        }
      ],
      "name": "decreaseApproval",
      "outputs": [
        {
          "name": "success",
          "type": "bool"
        }
      ],
      "payable": false,
      "stateMutability": "nonpayable",
      "type": "function"
    },
    {
      "constant": true,
      "inputs": [
        {
          "name": "_owner",
          "type": "address"
        }
      ],
      "name": "balanceOf",
      "outputs": [
        {
          "name": "",
          "type": "uint256"
        }
      ],
      "payable": false,
      "stateMutability": "view",
      "type": "function"
    },
    {
      "constant": true,
      "inputs": [],
      "name": "teamReservedRatio_",
      "outputs": [
        {
          "name": "",
          "type": "uint256"
        }
      ],
      "payable": false,
      "stateMutability": "view",
      "type": "function"
    },
    {
      "constant": false,
      "inputs": [],
      "name": "renounceOwnership",
      "outputs": [],
      "payable": false,
      "stateMutability": "nonpayable",
      "type": "function"
    },
    {
      "constant": false,
      "inputs": [
        {
          "name": "_operator",
          "type": "address"
        }
      ],
      "name": "addAddressToWhitelist",
      "outputs": [],
      "payable": false,
      "stateMutability": "nonpayable",
      "type": "function"
    },
    {
      "constant": false,
      "inputs": [],
      "name": "pause",
      "outputs": [],
      "payable": false,
      "stateMutability": "nonpayable",
      "type": "function"
    },
    {
      "constant": true,
      "inputs": [],
      "name": "owner",
      "outputs": [
        {
          "name": "",
          "type": "address"
        }
      ],
      "payable": false,
      "stateMutability": "view",
      "type": "function"
    },
    {
      "constant": true,
      "inputs": [],
      "name": "symbol",
      "outputs": [
        {
          "name": "",
          "type": "string"
        }
      ],
      "payable": false,
      "stateMutability": "view",
      "type": "function"
    },
    {
      "constant": true,
      "inputs": [
        {
          "name": "_operator",
          "type": "address"
        }
      ],
      "name": "whitelist",
      "outputs": [
        {
          "name": "",
          "type": "bool"
        }
      ],
      "payable": false,
      "stateMutability": "view",
      "type": "function"
    },
    {
      "constant": false,
      "inputs": [
        {
          "name": "_to",
          "type": "address"
        },
        {
          "name": "_value",
          "type": "uint256"
        }
      ],
      "name": "transfer",
      "outputs": [
        {
          "name": "",
          "type": "bool"
        }
      ],
      "payable": false,
      "stateMutability": "nonpayable",
      "type": "function"
    },
    {
      "constant": false,
      "inputs": [
        {
          "name": "_spender",
          "type": "address"
        },
        {
          "name": "_addedValue",
          "type": "uint256"
        }
      ],
      "name": "increaseApproval",
      "outputs": [
        {
          "name": "success",
          "type": "bool"
        }
      ],
      "payable": false,
      "stateMutability": "nonpayable",
      "type": "function"
    },
    {
      "constant": true,
      "inputs": [
        {
          "name": "_owner",
          "type": "address"
        },
        {
          "name": "_spender",
          "type": "address"
        }
      ],
      "name": "allowance",
      "outputs": [
        {
          "name": "",
          "type": "uint256"
        }
      ],
      "payable": false,
      "stateMutability": "view",
      "type": "function"
    },
    {
      "constant": false,
      "inputs": [
        {
          "name": "_operators",
          "type": "address[]"
        }
      ],
      "name": "addAddressesToWhitelist",
      "outputs": [],
      "payable": false,
      "stateMutability": "nonpayable",
      "type": "function"
    },
    {
      "constant": false,
      "inputs": [
        {
          "name": "_newOwner",
          "type": "address"
        }
      ],
      "name": "transferOwnership",
      "outputs": [],
      "payable": false,
      "stateMutability": "nonpayable",
      "type": "function"
    },
    {
      "inputs": [],
      "payable": false,
      "stateMutability": "nonpayable",
      "type": "constructor"
    },
    {
      "anonymous": false,
      "inputs": [
        {
          "indexed": true,
          "name": "from",
          "type": "address"
        },
        {
          "indexed": true,
          "name": "to",
          "type": "address"
        },
        {
          "indexed": false,
          "name": "amount",
          "type": "uint256"
        }
      ],
      "name": "Mine",
      "type": "event"
    },
    {
      "anonymous": false,
      "inputs": [
        {
          "indexed": true,
          "name": "from",
          "type": "address"
        },
        {
          "indexed": true,
          "name": "to",
          "type": "address"
        },
        {
          "indexed": false,
          "name": "amount",
          "type": "uint256"
        }
      ],
      "name": "Release",
      "type": "event"
    },
    {
      "anonymous": false,
      "inputs": [
        {
          "indexed": true,
          "name": "from",
          "type": "address"
        },
        {
          "indexed": true,
          "name": "teamWallet",
          "type": "address"
        }
      ],
      "name": "SetTeamWallet",
      "type": "event"
    },
    {
      "anonymous": false,
      "inputs": [
        {
          "indexed": true,
          "name": "teamWallet",
          "type": "address"
        },
        {
          "indexed": false,
          "name": "amount",
          "type": "uint256"
        },
        {
          "indexed": false,
          "name": "source",
          "type": "string"
        }
      ],
      "name": "UnlockTeamBBT",
      "type": "event"
    },
    {
      "anonymous": false,
      "inputs": [
        {
          "indexed": true,
          "name": "operator",
          "type": "address"
        },
        {
          "indexed": false,
          "name": "role",
          "type": "string"
        }
      ],
      "name": "RoleAdded",
      "type": "event"
    },
    {
      "anonymous": false,
      "inputs": [
        {
          "indexed": true,
          "name": "operator",
          "type": "address"
        },
        {
          "indexed": false,
          "name": "role",
          "type": "string"
        }
      ],
      "name": "RoleRemoved",
      "type": "event"
    },
    {
      "anonymous": false,
      "inputs": [],
      "name": "Pause",
      "type": "event"
    },
    {
      "anonymous": false,
      "inputs": [],
      "name": "Unpause",
      "type": "event"
    },
    {
      "anonymous": false,
      "inputs": [
        {
          "indexed": true,
          "name": "previousOwner",
          "type": "address"
        }
      ],
      "name": "OwnershipRenounced",
      "type": "event"
    },
    {
      "anonymous": false,
      "inputs": [
        {
          "indexed": true,
          "name": "previousOwner",
          "type": "address"
        },
        {
          "indexed": true,
          "name": "newOwner",
          "type": "address"
        }
      ],
      "name": "OwnershipTransferred",
      "type": "event"
    },
    {
      "anonymous": false,
      "inputs": [
        {
          "indexed": true,
          "name": "burner",
          "type": "address"
        },
        {
          "indexed": false,
          "name": "value",
          "type": "uint256"
        }
      ],
      "name": "Burn",
      "type": "event"
    },
    {
      "anonymous": false,
      "inputs": [
        {
          "indexed": true,
          "name": "owner",
          "type": "address"
        },
        {
          "indexed": true,
          "name": "spender",
          "type": "address"
        },
        {
          "indexed": false,
          "name": "value",
          "type": "uint256"
        }
      ],
      "name": "Approval",
      "type": "event"
    },
    {
      "anonymous": false,
      "inputs": [
        {
          "indexed": true,
          "name": "from",
          "type": "address"
        },
        {
          "indexed": true,
          "name": "to",
          "type": "address"
        },
        {
          "indexed": false,
          "name": "value",
          "type": "uint256"
        }
      ],
      "name": "Transfer",
      "type": "event"
    },
    {
      "constant": false,
      "inputs": [
        {
          "name": "_address",
          "type": "address"
        }
      ],
      "name": "setTeamWallet",
      "outputs": [
        {
          "name": "",
          "type": "bool"
        }
      ],
      "payable": false,
      "stateMutability": "nonpayable",
      "type": "function"
    },
    {
      "constant": false,
      "inputs": [
        {
          "name": "_to",
          "type": "address"
        },
        {
          "name": "_amount",
          "type": "uint256"
        }
      ],
      "name": "mine",
      "outputs": [
        {
          "name": "",
          "type": "bool"
        }
      ],
      "payable": false,
      "stateMutability": "nonpayable",
      "type": "function"
    },
    {
      "constant": false,
      "inputs": [
        {
          "name": "_to",
          "type": "address"
        },
        {
          "name": "_amount",
          "type": "uint256"
        }
      ],
      "name": "release",
      "outputs": [
        {
          "name": "",
          "type": "bool"
        }
      ],
      "payable": false,
      "stateMutability": "nonpayable",
      "type": "function"
    },
    {
      "constant": false,
      "inputs": [
        {
          "name": "_to",
          "type": "address"
        },
        {
          "name": "_amount",
          "type": "uint256"
        }
      ],
      "name": "releaseAndUnlock",
      "outputs": [
        {
          "name": "",
          "type": "bool"
        }
      ],
      "payable": false,
      "stateMutability": "nonpayable",
      "type": "function"
    }
  ],
  "bytecode": "0x60806040526003805460a060020a60ff02191690556b204fce5e3e2502611000000060055534801561003057600080fd5b5060038054600160a060020a03191633179055600554600155611bc4806100586000396000f3006080604052600436106101a05763ffffffff7c01000000000000000000000000000000000000000000000000000000006000350416630357371d81146101a557806306fdde03146101dd578063095ea7b3146102675780630988ca8c1461028b5780631525ff7d146102f457806318160ddd1461031557806318b919e91461033c578063217fe6c61461035157806323b872dd146103b857806324953eaa146103e2578063286dd3f514610437578063313ce5671461045857806332f05fd1146104835780633f4ba83a146104a757806342966c68146104bc57806359927044146104d45780635c975abb146105055780635fdf60fb1461051a578063661884631461052f57806370a082311461055357806370da478814610574578063715018a6146105895780637b9417c81461059e5780638456cb59146105bf5780638da5cb5b146105d457806395d89b41146105e95780639b19251a146105fe578063a9059cbb1461061f578063ab27be2014610643578063d73dd62314610667578063dd62ed3e1461068b578063e2ec6ec3146106b2578063f2fde38b14610707575b600080fd5b3480156101b157600080fd5b506101c9600160a060020a0360043516602435610728565b604080519115158252519081900360200190f35b3480156101e957600080fd5b506101f261080b565b6040805160208082528351818301528351919283929083019185019080838360005b8381101561022c578181015183820152602001610214565b50505050905090810190601f1680156102595780820380516001836020036101000a031916815260200191505b509250505060405180910390f35b34801561027357600080fd5b506101c9600160a060020a0360043516602435610842565b34801561029757600080fd5b5060408051602060046024803582810135601f81018590048502860185019096528585526102f2958335600160a060020a031695369560449491939091019190819084018382808284375094975061086f9650505050505050565b005b34801561030057600080fd5b506101c9600160a060020a03600435166108dd565b34801561032157600080fd5b5061032a61096c565b60408051918252519081900360200190f35b34801561034857600080fd5b506101f2610972565b34801561035d57600080fd5b5060408051602060046024803582810135601f81018590048502860185019096528585526101c9958335600160a060020a03169536956044949193909101919081908401838280828437509497506109979650505050505050565b3480156103c457600080fd5b506101c9600160a060020a0360043581169060243516604435610a03565b3480156103ee57600080fd5b50604080516020600480358082013583810280860185019096528085526102f295369593946024949385019291829185019084908082843750949750610a309650505050505050565b34801561044357600080fd5b506102f2600160a060020a0360043516610a7f565b34801561046457600080fd5b5061046d610ac6565b6040805160ff9092168252519081900360200190f35b34801561048f57600080fd5b506101c9600160a060020a0360043516602435610acb565b3480156104b357600080fd5b506102f2610bb4565b3480156104c857600080fd5b506102f2600435610c2c565b3480156104e057600080fd5b506104e9610c36565b60408051600160a060020a039092168252519081900360200190f35b34801561051157600080fd5b506101c9610c45565b34801561052657600080fd5b5061032a610c55565b34801561053b57600080fd5b506101c9600160a060020a0360043516602435610c5b565b34801561055f57600080fd5b5061032a600160a060020a0360043516610c7f565b34801561058057600080fd5b5061032a610c9a565b34801561059557600080fd5b506102f2610c9f565b3480156105aa57600080fd5b506102f2600160a060020a0360043516610d0d565b3480156105cb57600080fd5b506102f2610d51565b3480156105e057600080fd5b506104e9610dce565b3480156105f557600080fd5b506101f2610ddd565b34801561060a57600080fd5b506101c9600160a060020a0360043516610e14565b34801561062b57600080fd5b506101c9600160a060020a0360043516602435610e43565b34801561064f57600080fd5b506101c9600160a060020a0360043516602435610e67565b34801561067357600080fd5b506101c9600160a060020a0360043516602435610fa7565b34801561069757600080fd5b5061032a600160a060020a0360043581169060243516610fcb565b3480156106be57600080fd5b50604080516020600480358082013583810280860185019096528085526102f295369593946024949385019291829185019084908082843750949750610ff69650505050505050565b34801561071357600080fd5b506102f2600160a060020a0360043516611045565b600354600090600160a060020a0316331461074257600080fd5b8160015461075b8260065461106590919063ffffffff16565b111561079f576040805160e560020a62461bcd02815260206004820152601a6024820152600080516020611b79833981519152604482015290519081900360640190fd5b60035460a060020a900460ff16156107b657600080fd5b6107c08484611072565b50604080518481529051600160a060020a0386169133917fcb54aad3bd772fcfe1bc124e01bd1a91a91c9d80126d8b3014c4d9e687d5ca489181900360200190a35060019392505050565b60408051808201909152600c81527f426f6e426f6e20546f6b656e0000000000000000000000000000000000000000602082015281565b60035460009060a060020a900460ff161561085c57600080fd5b6108668383611130565b90505b92915050565b6108d9826004836040518082805190602001908083835b602083106108a55780518252601f199092019160209182019101610886565b51815160209384036101000a6000190180199092169116179052920194855250604051938490030190922092915050611196565b5050565b600354600090600160a060020a031633146108f757600080fd5b60035460a060020a900460ff161561090e57600080fd5b6007805473ffffffffffffffffffffffffffffffffffffffff1916600160a060020a03841690811790915560405133907fc4775d013f53eff3cd16df56552e9fcbb84ca0c1cb2553aab6387c6b19c8f6b290600090a3506001919050565b60015490565b6040805180820190915260098152600080516020611b59833981519152602082015281565b6000610866836004846040518082805190602001908083835b602083106109cf5780518252601f1990920191602091820191016109b0565b51815160209384036101000a60001901801990921691161790529201948552506040519384900301909220929150506111ab565b60035460009060a060020a900460ff1615610a1d57600080fd5b610a288484846111ca565b949350505050565b600354600090600160a060020a03163314610a4a57600080fd5b5060005b81518110156108d957610a778282815181101515610a6857fe5b90602001906020020151610a7f565b600101610a4e565b600354600160a060020a03163314610a9657600080fd5b610ac381604080519081016040528060098152602001600080516020611b5983398151915281525061133f565b50565b601281565b600354600090600160a060020a03163314610ae557600080fd5b81600154610afe8260065461106590919063ffffffff16565b1115610b42576040805160e560020a62461bcd02815260206004820152601a6024820152600080516020611b79833981519152604482015290519081900360640190fd5b60035460a060020a900460ff1615610b5957600080fd5b610b638484610728565b50610ba9610b7084611450565b60408051808201909152600781527f72656c65617365000000000000000000000000000000000000000000000000006020820152611474565b506001949350505050565b600354600160a060020a03163314610bcb57600080fd5b60035460a060020a900460ff161515610be357600080fd5b6003805474ff0000000000000000000000000000000000000000191690556040517f7805862f689e2f13df9f062ff482ad3ad112aca9e0847911ed832e158c525b3390600090a1565b610ac33382611609565b600754600160a060020a031681565b60035460a060020a900460ff1681565b60065481565b60035460009060a060020a900460ff1615610c7557600080fd5b610866838361170a565b600160a060020a031660009081526020819052604090205490565b600a81565b600354600160a060020a03163314610cb657600080fd5b600354604051600160a060020a03909116907ff8df31144d9c2f0f6b59d69b8b98abd5459d07f2742c4df920b25aae33c6482090600090a26003805473ffffffffffffffffffffffffffffffffffffffff19169055565b600354600160a060020a03163314610d2457600080fd5b610ac381604080519081016040528060098152602001600080516020611b598339815191528152506117f9565b600354600160a060020a03163314610d6857600080fd5b60035460a060020a900460ff1615610d7f57600080fd5b6003805474ff0000000000000000000000000000000000000000191660a060020a1790556040517f6985a02210a168e66602d3235cb6db0e70f92b3ba4d376a33c0f3d9434bff62590600090a1565b600354600160a060020a031681565b60408051808201909152600381527f4242540000000000000000000000000000000000000000000000000000000000602082015281565b600061086982604080519081016040528060098152602001600080516020611b59833981519152815250610997565b60035460009060a060020a900460ff1615610e5d57600080fd5b61086683836118cb565b600033610e9781604080519081016040528060098152602001600080516020611b5983398151915281525061086f565b82600154610eb08260065461106590919063ffffffff16565b1115610ef4576040805160e560020a62461bcd02815260206004820152601a6024820152600080516020611b79833981519152604482015290519081900360640190fd5b60035460a060020a900460ff1615610f0b57600080fd5b610f158585611072565b50610f5b610f2285611450565b60408051808201909152600481527f6d696e65000000000000000000000000000000000000000000000000000000006020820152611474565b50604080518581529051600160a060020a0387169133917f67f21e18ec3c4a136e44f0616563f5cf5ed3132b96e482b9d6ee81262cd2f2c29181900360200190a3506001949350505050565b60035460009060a060020a900460ff1615610fc157600080fd5b61086683836119aa565b600160a060020a03918216600090815260026020908152604080832093909416825291909152205490565b600354600090600160a060020a0316331461101057600080fd5b5060005b81518110156108d95761103d828281518110151561102e57fe5b90602001906020020151610d0d565b600101611014565b600354600160a060020a0316331461105c57600080fd5b610ac381611a43565b8181018281101561086957fe5b60008160015461108d8260065461106590919063ffffffff16565b11156110d1576040805160e560020a62461bcd02815260206004820152601a6024820152600080516020611b79833981519152604482015290519081900360640190fd5b600160a060020a0384166000908152602081905260409020546110fa908463ffffffff61106516565b600160a060020a038516600090815260208190526040902055600654611126908463ffffffff61106516565b6006555092915050565b336000818152600260209081526040808320600160a060020a038716808552908352818420869055815186815291519394909390927f8c5be1e5ebec7d5bd14f71427d1e84f3dd0314c0f7b2291e5b200ac8c7c3b925928290030190a350600192915050565b6111a082826111ab565b15156108d957600080fd5b600160a060020a03166000908152602091909152604090205460ff1690565b600160a060020a0383166000908152602081905260408120548211156111ef57600080fd5b600160a060020a038416600090815260026020908152604080832033845290915290205482111561121f57600080fd5b600160a060020a038316151561123457600080fd5b600160a060020a03841660009081526020819052604090205461125d908363ffffffff611ac116565b600160a060020a038086166000908152602081905260408082209390935590851681522054611292908363ffffffff61106516565b600160a060020a038085166000908152602081815260408083209490945591871681526002825282812033825290915220546112d4908363ffffffff611ac116565b600160a060020a03808616600081815260026020908152604080832033845282529182902094909455805186815290519287169391927fddf252ad1be2c89b69c2b068fc378daa952ba7f163c4a11628f55a4df523b3ef929181900390910190a35060019392505050565b6113a9826004836040518082805190602001908083835b602083106113755780518252601f199092019160209182019101611356565b51815160209384036101000a6000190180199092169116179052920194855250604051938490030190922092915050611ad3565b81600160a060020a03167fd211483f91fc6eff862467f8de606587a30c8fc9981056f051b897a418df803a826040518080602001828103825283818151815260200191508051906020019080838360005b838110156114125781810151838201526020016113fa565b50505050905090810190601f16801561143f5780820380516001836020036101000a031916815260200191505b509250505060405180910390a25050565b6000610869605a61146884600a63ffffffff611af516565b9063ffffffff611b1e16565b600754600090600160a060020a031615156114d9576040805160e560020a62461bcd02815260206004820152601460248201527f5465616d2077616c6c6574206e6f74207365742e000000000000000000000000604482015290519081900360640190fd5b826001546114f28260065461106590919063ffffffff16565b1115611536576040805160e560020a62461bcd02815260206004820152601a6024820152600080516020611b79833981519152604482015290519081900360640190fd5b60075461154c90600160a060020a031685611072565b506007546040805186815260208082018381528751938301939093528651600160a060020a03909416937fe714328f3f99cc55b35ed42eb8906f309b164ee16dd726f905eb66626085d12293899389939092606084019185019080838360005b838110156115c45781810151838201526020016115ac565b50505050905090810190601f1680156115f15780820380516001836020036101000a031916815260200191505b50935050505060405180910390a25060019392505050565b600160a060020a03821660009081526020819052604090205481111561162e57600080fd5b600160a060020a038216600090815260208190526040902054611657908263ffffffff611ac116565b600160a060020a038316600090815260208190526040902055600154611683908263ffffffff611ac116565b600155604080518281529051600160a060020a038416917fcc16f5dbb4873280815c1ee09dbd06736cffcc184412cf7a71a0fdb75d397ca5919081900360200190a2604080518281529051600091600160a060020a038516917fddf252ad1be2c89b69c2b068fc378daa952ba7f163c4a11628f55a4df523b3ef9181900360200190a35050565b336000908152600260209081526040808320600160a060020a038616845290915281205480831061175e57336000908152600260209081526040808320600160a060020a0388168452909152812055611793565b61176e818463ffffffff611ac116565b336000908152600260209081526040808320600160a060020a03891684529091529020555b336000818152600260209081526040808320600160a060020a0389168085529083529281902054815190815290519293927f8c5be1e5ebec7d5bd14f71427d1e84f3dd0314c0f7b2291e5b200ac8c7c3b925929181900390910190a35060019392505050565b611863826004836040518082805190602001908083835b6020831061182f5780518252601f199092019160209182019101611810565b51815160209384036101000a6000190180199092169116179052920194855250604051938490030190922092915050611b33565b81600160a060020a03167fbfec83d64eaa953f2708271a023ab9ee82057f8f3578d548c1a4ba0b5b70048982604051808060200182810382528381815181526020019150805190602001908083836000838110156114125781810151838201526020016113fa565b336000908152602081905260408120548211156118e757600080fd5b600160a060020a03831615156118fc57600080fd5b3360009081526020819052604090205461191c908363ffffffff611ac116565b3360009081526020819052604080822092909255600160a060020a0385168152205461194e908363ffffffff61106516565b600160a060020a038416600081815260208181526040918290209390935580518581529051919233927fddf252ad1be2c89b69c2b068fc378daa952ba7f163c4a11628f55a4df523b3ef9281900390910190a350600192915050565b336000908152600260209081526040808320600160a060020a03861684529091528120546119de908363ffffffff61106516565b336000818152600260209081526040808320600160a060020a0389168085529083529281902085905580519485525191937f8c5be1e5ebec7d5bd14f71427d1e84f3dd0314c0f7b2291e5b200ac8c7c3b925929081900390910190a350600192915050565b600160a060020a0381161515611a5857600080fd5b600354604051600160a060020a038084169216907f8be0079c531659141344cd1fd0a4f28419497f9722a3daafe3b4186f6b6457e090600090a36003805473ffffffffffffffffffffffffffffffffffffffff1916600160a060020a0392909216919091179055565b600082821115611acd57fe5b50900390565b600160a060020a0316600090815260209190915260409020805460ff19169055565b6000821515611b0657506000610869565b50818102818382811515611b1657fe5b041461086957fe5b60008183811515611b2b57fe5b049392505050565b600160a060020a0316600090815260209190915260409020805460ff19166001179055560077686974656c6973740000000000000000000000000000000000000000000000556e72656c656173656420424254206e6f7420656e6f7567682e000000000000a165627a7a72305820b9c3b66952c1a43373e967838dfc597ca5d99ca3ffb1451eac9a5405d443fa8a0029",
  "source": "pragma solidity ^0.4.24;\n\n\n/**\n * @title Ownable\n * @dev The Ownable contract has an owner address, and provides basic authorization control\n * functions, this simplifies the implementation of \"user permissions\".\n */\ncontract Ownable {\n    address public owner;\n\n\n    event OwnershipRenounced(address indexed previousOwner);\n    event OwnershipTransferred(\n        address indexed previousOwner,\n        address indexed newOwner\n    );\n\n\n    /**\n     * @dev The Ownable constructor sets the original `owner` of the contract to the sender\n     * account.\n     */\n    constructor() public {\n        owner = msg.sender;\n    }\n\n    /**\n     * @dev Throws if called by any account other than the owner.\n     */\n    modifier onlyOwner() {\n        require(msg.sender == owner);\n        _;\n    }\n\n    /**\n     * @dev Allows the current owner to relinquish control of the contract.\n     * @notice Renouncing to ownership will leave the contract without an owner.\n     * It will not be possible to call the functions with the `onlyOwner`\n     * modifier anymore.\n     */\n    function renounceOwnership() public onlyOwner {\n        emit OwnershipRenounced(owner);\n        owner = address(0);\n    }\n\n    /**\n     * @dev Allows the current owner to transfer control of the contract to a newOwner.\n     * @param _newOwner The address to transfer ownership to.\n     */\n    function transferOwnership(address _newOwner) public onlyOwner {\n        _transferOwnership(_newOwner);\n    }\n\n    /**\n     * @dev Transfers control of the contract to a newOwner.\n     * @param _newOwner The address to transfer ownership to.\n     */\n    function _transferOwnership(address _newOwner) internal {\n        require(_newOwner != address(0));\n        emit OwnershipTransferred(owner, _newOwner);\n        owner = _newOwner;\n    }\n}\n\n/**\n * @title ERC20Basic\n * @dev Simpler version of ERC20 interface\n * See https://github.com/ethereum/EIPs/issues/179\n */\ncontract ERC20Basic {\n    function totalSupply() public view returns (uint256);\n    function balanceOf(address _who) public view returns (uint256);\n    function transfer(address _to, uint256 _value) public returns (bool);\n    event Transfer(address indexed from, address indexed to, uint256 value);\n}\n\n/**\n * @title ERC20 interface\n * @dev see https://github.com/ethereum/EIPs/issues/20\n */\ncontract ERC20 is ERC20Basic {\n    function allowance(address _owner, address _spender)\n    public view returns (uint256);\n\n    function transferFrom(address _from, address _to, uint256 _value)\n    public returns (bool);\n\n    function approve(address _spender, uint256 _value) public returns (bool);\n    event Approval(\n        address indexed owner,\n        address indexed spender,\n        uint256 value\n    );\n}\n\n/**\n * @title Basic token\n * @dev Basic version of StandardToken, with no allowances.\n */\ncontract BasicToken is ERC20Basic {\n    using SafeMath for uint256;\n\n    mapping(address => uint256) internal balances;\n\n    uint256 internal totalSupply_;\n\n    /**\n    * @dev Total number of tokens in existence\n    */\n    function totalSupply() public view returns (uint256) {\n        return totalSupply_;\n    }\n\n    /**\n    * @dev Transfer token for a specified address\n    * @param _to The address to transfer to.\n    * @param _value The amount to be transferred.\n    */\n    function transfer(address _to, uint256 _value) public returns (bool) {\n        require(_value <= balances[msg.sender]);\n        require(_to != address(0));\n\n        balances[msg.sender] = balances[msg.sender].sub(_value);\n        balances[_to] = balances[_to].add(_value);\n        emit Transfer(msg.sender, _to, _value);\n        return true;\n    }\n\n    /**\n    * @dev Gets the balance of the specified address.\n    * @param _owner The address to query the the balance of.\n    * @return An uint256 representing the amount owned by the passed address.\n    */\n    function balanceOf(address _owner) public view returns (uint256) {\n        return balances[_owner];\n    }\n\n}\n\n/**\n * @title Standard ERC20 token\n *\n * @dev Implementation of the basic standard token.\n * https://github.com/ethereum/EIPs/issues/20\n * Based on code by FirstBlood: https://github.com/Firstbloodio/token/blob/master/smart_contract/FirstBloodToken.sol\n */\ncontract StandardToken is ERC20, BasicToken {\n\n    mapping (address => mapping (address => uint256)) internal allowed;\n\n\n    /**\n     * @dev Transfer tokens from one address to another\n     * @param _from address The address which you want to send tokens from\n     * @param _to address The address which you want to transfer to\n     * @param _value uint256 the amount of tokens to be transferred\n     */\n    function transferFrom(\n        address _from,\n        address _to,\n        uint256 _value\n    )\n        public\n        returns (bool)\n    {\n        require(_value <= balances[_from]);\n        require(_value <= allowed[_from][msg.sender]);\n        require(_to != address(0));\n\n        balances[_from] = balances[_from].sub(_value);\n        balances[_to] = balances[_to].add(_value);\n        allowed[_from][msg.sender] = allowed[_from][msg.sender].sub(_value);\n        emit Transfer(_from, _to, _value);\n        return true;\n    }\n\n    /**\n     * @dev Approve the passed address to spend the specified amount of tokens on behalf of msg.sender.\n     * Beware that changing an allowance with this method brings the risk that someone may use both the old\n     * and the new allowance by unfortunate transaction ordering. One possible solution to mitigate this\n     * race condition is to first reduce the spender's allowance to 0 and set the desired value afterwards:\n     * https://github.com/ethereum/EIPs/issues/20#issuecomment-263524729\n     * @param _spender The address which will spend the funds.\n     * @param _value The amount of tokens to be spent.\n     */\n    function approve(address _spender, uint256 _value) public returns (bool) {\n        allowed[msg.sender][_spender] = _value;\n        emit Approval(msg.sender, _spender, _value);\n        return true;\n    }\n\n    /**\n     * @dev Function to check the amount of tokens that an owner allowed to a spender.\n     * @param _owner address The address which owns the funds.\n     * @param _spender address The address which will spend the funds.\n     * @return A uint256 specifying the amount of tokens still available for the spender.\n     */\n    function allowance(\n        address _owner,\n        address _spender\n    )\n        public\n        view\n        returns (uint256)\n    {\n        return allowed[_owner][_spender];\n    }\n\n    /**\n     * @dev Increase the amount of tokens that an owner allowed to a spender.\n     * approve should be called when allowed[_spender] == 0. To increment\n     * allowed value is better to use this function to avoid 2 calls (and wait until\n     * the first transaction is mined)\n     * From MonolithDAO Token.sol\n     * @param _spender The address which will spend the funds.\n     * @param _addedValue The amount of tokens to increase the allowance by.\n     */\n    function increaseApproval(\n        address _spender,\n        uint256 _addedValue\n    )\n        public\n        returns (bool)\n    {\n        allowed[msg.sender][_spender] = (\n        allowed[msg.sender][_spender].add(_addedValue));\n        emit Approval(msg.sender, _spender, allowed[msg.sender][_spender]);\n        return true;\n    }\n\n    /**\n     * @dev Decrease the amount of tokens that an owner allowed to a spender.\n     * approve should be called when allowed[_spender] == 0. To decrement\n     * allowed value is better to use this function to avoid 2 calls (and wait until\n     * the first transaction is mined)\n     * From MonolithDAO Token.sol\n     * @param _spender The address which will spend the funds.\n     * @param _subtractedValue The amount of tokens to decrease the allowance by.\n     */\n    function decreaseApproval(\n        address _spender,\n        uint256 _subtractedValue\n    )\n        public\n        returns (bool)\n    {\n        uint256 oldValue = allowed[msg.sender][_spender];\n        if (_subtractedValue >= oldValue) {\n            allowed[msg.sender][_spender] = 0;\n        } else {\n            allowed[msg.sender][_spender] = oldValue.sub(_subtractedValue);\n        }\n        emit Approval(msg.sender, _spender, allowed[msg.sender][_spender]);\n        return true;\n    }\n\n}\n\n/**\n * @title SafeMath\n * @dev Math operations with safety checks that throw on error\n */\nlibrary SafeMath {\n\n    /**\n    * @dev Multiplies two numbers, throws on overflow.\n    */\n    function mul(uint256 _a, uint256 _b) internal pure returns (uint256 c) {\n        // Gas optimization: this is cheaper than asserting 'a' not being zero, but the\n        // benefit is lost if 'b' is also tested.\n        // See: https://github.com/OpenZeppelin/openzeppelin-solidity/pull/522\n        if (_a == 0) {\n            return 0;\n        }\n\n        c = _a * _b;\n        assert(c / _a == _b);\n        return c;\n    }\n\n    /**\n    * @dev Integer division of two numbers, truncating the quotient.\n    */\n    function div(uint256 _a, uint256 _b) internal pure returns (uint256) {\n        // assert(_b > 0); // Solidity automatically throws when dividing by 0\n        // uint256 c = _a / _b;\n        // assert(_a == _b * c + _a % _b); // There is no case in which this doesn't hold\n        return _a / _b;\n    }\n\n    /**\n    * @dev Subtracts two numbers, throws on overflow (i.e. if subtrahend is greater than minuend).\n    */\n    function sub(uint256 _a, uint256 _b) internal pure returns (uint256) {\n        assert(_b <= _a);\n        return _a - _b;\n    }\n\n    /**\n    * @dev Adds two numbers, throws on overflow.\n    */\n    function add(uint256 _a, uint256 _b) internal pure returns (uint256 c) {\n        c = _a + _b;\n        assert(c >= _a);\n        return c;\n    }\n}\n\n/**\n * @title Burnable Token\n * @dev Token that can be irreversibly burned (destroyed).\n */\ncontract BurnableToken is BasicToken {\n\n    event Burn(address indexed burner, uint256 value);\n\n    /**\n     * @dev Burns a specific amount of tokens.\n     * @param _value The amount of token to be burned.\n     */\n    function burn(uint256 _value) public {\n        _burn(msg.sender, _value);\n    }\n\n    function _burn(address _who, uint256 _value) internal {\n        require(_value <= balances[_who]);\n        // no need to require value <= totalSupply, since that would imply the\n        // sender's balance is greater than the totalSupply, which *should* be an assertion failure\n\n        balances[_who] = balances[_who].sub(_value);\n        totalSupply_ = totalSupply_.sub(_value);\n        emit Burn(_who, _value);\n        emit Transfer(_who, address(0), _value);\n    }\n}\n\n/**\n * @title Pausable\n * @dev Base contract which allows children to implement an emergency stop mechanism.\n */\ncontract Pausable is Ownable {\n    event Pause();\n    event Unpause();\n\n    bool public paused = false;\n\n\n    /**\n     * @dev Modifier to make a function callable only when the contract is not paused.\n     */\n    modifier whenNotPaused() {\n        require(!paused);\n        _;\n    }\n\n    /**\n     * @dev Modifier to make a function callable only when the contract is paused.\n     */\n    modifier whenPaused() {\n        require(paused);\n        _;\n    }\n\n    /**\n     * @dev called by the owner to pause, triggers stopped state\n     */\n    function pause() public onlyOwner whenNotPaused {\n        paused = true;\n        emit Pause();\n    }\n\n    /**\n     * @dev called by the owner to unpause, returns to normal state\n     */\n    function unpause() public onlyOwner whenPaused {\n        paused = false;\n        emit Unpause();\n    }\n}\n\n/**\n * @title Pausable token\n * @dev StandardToken modified with pausable transfers.\n **/\ncontract PausableToken is StandardToken, Pausable {\n\n    function transfer(\n        address _to,\n        uint256 _value\n    )\n        public\n        whenNotPaused\n        returns (bool)\n    {\n        return super.transfer(_to, _value);\n    }\n\n    function transferFrom(\n        address _from,\n        address _to,\n        uint256 _value\n    )\n        public\n        whenNotPaused\n        returns (bool)\n    {\n        return super.transferFrom(_from, _to, _value);\n    }\n\n    function approve(\n        address _spender,\n        uint256 _value\n    )\n        public\n        whenNotPaused\n        returns (bool)\n    {\n        return super.approve(_spender, _value);\n    }\n\n    function increaseApproval(\n        address _spender,\n        uint _addedValue\n    )\n        public\n        whenNotPaused\n        returns (bool success)\n    {\n        return super.increaseApproval(_spender, _addedValue);\n    }\n\n    function decreaseApproval(\n        address _spender,\n        uint _subtractedValue\n    )\n        public\n        whenNotPaused\n        returns (bool success)\n    {\n        return super.decreaseApproval(_spender, _subtractedValue);\n    }\n}\n\n/**\n * @title Roles\n * @author Francisco Giordano (@frangio)\n * @dev Library for managing addresses assigned to a Role.\n * See RBAC.sol for example usage.\n */\nlibrary Roles {\n    struct Role {\n        mapping (address => bool) bearer;\n    }\n\n    /**\n     * @dev give an address access to this role\n     */\n    function add(Role storage _role, address _addr)\n        internal\n    {\n        _role.bearer[_addr] = true;\n    }\n\n    /**\n     * @dev remove an address' access to this role\n     */\n    function remove(Role storage _role, address _addr)\n        internal\n    {\n        _role.bearer[_addr] = false;\n    }\n\n    /**\n     * @dev check if an address has this role\n     * // reverts\n     */\n    function check(Role storage _role, address _addr)\n        internal\n        view\n    {\n        require(has(_role, _addr));\n    }\n\n    /**\n     * @dev check if an address has this role\n     * @return bool\n     */\n    function has(Role storage _role, address _addr)\n        internal\n        view\n        returns (bool)\n    {\n        return _role.bearer[_addr];\n    }\n}\n\n/**\n * @title RBAC (Role-Based Access Control)\n * @author Matt Condon (@Shrugs)\n * @dev Stores and provides setters and getters for roles and addresses.\n * Supports unlimited numbers of roles and addresses.\n * See //contracts/mocks/RBACMock.sol for an example of usage.\n * This RBAC method uses strings to key roles. It may be beneficial\n * for you to write your own implementation of this interface using Enums or similar.\n */\ncontract RBAC {\n    using Roles for Roles.Role;\n\n    mapping (string => Roles.Role) private roles;\n\n    event RoleAdded(address indexed operator, string role);\n    event RoleRemoved(address indexed operator, string role);\n\n    /**\n     * @dev reverts if addr does not have role\n     * @param _operator address\n     * @param _role the name of the role\n     * // reverts\n     */\n    function checkRole(address _operator, string _role)\n        public\n        view\n    {\n        roles[_role].check(_operator);\n    }\n\n    /**\n     * @dev determine if addr has role\n     * @param _operator address\n     * @param _role the name of the role\n     * @return bool\n     */\n    function hasRole(address _operator, string _role)\n        public\n        view\n        returns (bool)\n    {\n        return roles[_role].has(_operator);\n    }\n\n    /**\n     * @dev add a role to an address\n     * @param _operator address\n     * @param _role the name of the role\n     */\n    function addRole(address _operator, string _role)\n        internal\n    {\n        roles[_role].add(_operator);\n        emit RoleAdded(_operator, _role);\n    }\n\n    /**\n     * @dev remove a role from an address\n     * @param _operator address\n     * @param _role the name of the role\n     */\n    function removeRole(address _operator, string _role)\n        internal\n    {\n        roles[_role].remove(_operator);\n        emit RoleRemoved(_operator, _role);\n    }\n\n    /**\n     * @dev modifier to scope access to a single role (uses msg.sender as addr)\n     * @param _role the name of the role\n     * // reverts\n     */\n    modifier onlyRole(string _role)\n    {\n        checkRole(msg.sender, _role);\n        _;\n    }\n\n    /**\n     * @dev modifier to scope access to a set of roles (uses msg.sender as addr)\n     * @param _roles the names of the roles to scope access to\n     * // reverts\n     *\n     * @TODO - when solidity supports dynamic arrays as arguments to modifiers, provide this\n     *  see: https://github.com/ethereum/solidity/issues/2467\n     */\n    // modifier onlyRoles(string[] _roles) {\n    //     bool hasAnyRole = false;\n    //     for (uint8 i = 0; i < _roles.length; i++) {\n    //         if (hasRole(msg.sender, _roles[i])) {\n    //             hasAnyRole = true;\n    //             break;\n    //         }\n    //     }\n\n    //     require(hasAnyRole);\n\n    //     _;\n    // }\n}\n\n/**\n * @title Whitelist\n * @dev The Whitelist contract has a whitelist of addresses, and provides basic authorization control functions.\n * This simplifies the implementation of \"user permissions\".\n */\ncontract Whitelist is Ownable, RBAC {\n    string public constant ROLE_WHITELISTED = \"whitelist\";\n\n    /**\n     * @dev Throws if operator is not whitelisted.\n     * @param _operator address\n     */\n    modifier onlyIfWhitelisted(address _operator) {\n        checkRole(_operator, ROLE_WHITELISTED);\n        _;\n    }\n\n    /**\n     * @dev add an address to the whitelist\n     * @param _operator address\n     * @return true if the address was added to the whitelist, false if the address was already in the whitelist\n     */\n    function addAddressToWhitelist(address _operator)\n        public\n        onlyOwner\n    {\n        addRole(_operator, ROLE_WHITELISTED);\n    }\n\n    /**\n     * @dev getter to determine if address is in whitelist\n     */\n    function whitelist(address _operator)\n        public\n        view\n        returns (bool)\n    {\n        return hasRole(_operator, ROLE_WHITELISTED);\n    }\n\n    /**\n     * @dev add addresses to the whitelist\n     * @param _operators addresses\n     * @return true if at least one address was added to the whitelist,\n     * false if all addresses were already in the whitelist\n     */\n    function addAddressesToWhitelist(address[] _operators)\n        public\n        onlyOwner\n    {\n        for (uint256 i = 0; i < _operators.length; i++) {\n            addAddressToWhitelist(_operators[i]);\n        }\n    }\n\n    /**\n     * @dev remove an address from the whitelist\n     * @param _operator address\n     * @return true if the address was removed from the whitelist,\n     * false if the address wasn't in the whitelist in the first place\n     */\n    function removeAddressFromWhitelist(address _operator)\n        public\n        onlyOwner\n    {\n        removeRole(_operator, ROLE_WHITELISTED);\n    }\n\n    /**\n     * @dev remove addresses from the whitelist\n     * @param _operators addresses\n     * @return true if at least one address was removed from the whitelist,\n     * false if all addresses weren't in the whitelist in the first place\n     */\n    function removeAddressesFromWhitelist(address[] _operators)\n        public\n        onlyOwner\n    {\n        for (uint256 i = 0; i < _operators.length; i++) {\n            removeAddressFromWhitelist(_operators[i]);\n        }\n    }\n\n}\n\n\ncontract BBT is BurnableToken, PausableToken, Whitelist {\n    string public constant symbol = \"BBT\";\n    string public constant name = \"BonBon Token\";\n    uint8 public constant decimals = 18;\n    uint256 private overrideTotalSupply_ = 10 * 1e9 * 1e18; //10 billion\n\n    uint256 public circulation;\n    address public teamWallet;\n    uint256 public constant teamReservedRatio_ = 10;\n\n    event Mine(address indexed from, address indexed to, uint256 amount);\n    event Release(address indexed from, address indexed to, uint256 amount);\n    event SetTeamWallet(address indexed from, address indexed teamWallet);\n    event UnlockTeamBBT(address indexed teamWallet, uint256 amount, string source);\n\n    /**\n     * @dev make sure unreleased BBT is enough.\n     */\n    modifier hasEnoughUnreleasedBBT(uint256 _amount) {\n        require(circulation.add(_amount) <= totalSupply_, \"Unreleased BBT not enough.\");\n        _;\n    }\n\n    /**\n     * @dev make sure dev team wallet is set.\n     */\n    modifier hasTeamWallet() {\n        require(teamWallet != address(0), \"Team wallet not set.\");\n        _;\n    }\n\n    constructor() public {\n        totalSupply_ = overrideTotalSupply_;\n    }\n\n    /**\n     * @dev setup team wallet.\n     * @param _address address of team wallet.\n     */\n    function setTeamWallet(address _address)\n        onlyOwner\n        whenNotPaused\n        public\n        returns (bool)\n    {\n        teamWallet = _address;\n        emit SetTeamWallet(msg.sender, _address);\n        return true;\n    }\n\n    /**\n     * @dev for authorized dapp mining BBT.\n     * @param _to to which address BBT send to.\n     * @param _amount how many BBT send.\n     */\n    function mine(address _to, uint256 _amount)\n        onlyIfWhitelisted(msg.sender)\n        hasEnoughUnreleasedBBT(_amount)\n        whenNotPaused\n        public\n        returns (bool)\n    {\n        releaseBBT(_to, _amount);\n\n        //unlock dev team bbt\n        unlockTeamBBT(getTeamUnlockAmountHelper(_amount), 'mine');\n\n        emit Mine(msg.sender, _to, _amount);\n        return true;\n    }\n\n    /**\n     * @dev owner release BBT to specified address.\n     * @param _to which address release to.\n     * @param _amount how many BBT release to.\n     */\n    function release(address _to, uint256 _amount)\n        onlyOwner\n        hasEnoughUnreleasedBBT(_amount)\n        whenNotPaused\n        public\n        returns(bool)\n    {\n        releaseBBT(_to, _amount);\n        emit Release(msg.sender, _to, _amount);\n        return true;\n    }\n\n    /**\n     * @dev owner release BBT and unlock corresponding ratio to dev team wallet.\n     * @param _to which address release to.\n     * @param _amount how many BBT release to.\n     */\n    function releaseAndUnlock(address _to, uint256 _amount)\n        onlyOwner\n        hasEnoughUnreleasedBBT(_amount)\n        whenNotPaused\n        public\n        returns(bool)\n    {\n        release(_to, _amount);\n\n        //unlock dev team bbt\n        unlockTeamBBT(getTeamUnlockAmountHelper(_amount), 'release');\n\n        return true;\n    }\n\n    function getTeamUnlockAmountHelper(uint256 _amount)\n        private\n        pure\n        returns(uint256)\n    {\n        return _amount.mul(teamReservedRatio_).div(100 - teamReservedRatio_);\n    }\n\n    function unlockTeamBBT(uint256 _unlockAmount, string _source)\n        hasTeamWallet\n        hasEnoughUnreleasedBBT(_unlockAmount)\n        private\n        returns(bool)\n    {\n        releaseBBT(teamWallet, _unlockAmount);\n        emit UnlockTeamBBT(teamWallet, _unlockAmount, _source);\n        return true;\n    }\n\n    /**\n     * @dev update balance and circulation.\n     */\n    function releaseBBT(address _to, uint256 _amount)\n        hasEnoughUnreleasedBBT(_amount)\n        private\n        returns(bool)\n    {\n        balances[_to] = balances[_to].add(_amount);\n        circulation = circulation.add(_amount);\n    }\n}",
  "sourcePath": "/Volumes/Code/data/www/bonbon_contract/contracts/project_a/BBT_full_source.sol",
  "compiler": {
    "name": "solc",
    "version": "0.4.24+commit.e67f0147.Emscripten.clang"
  },
  "schemaVersion": "2.0.1",
  "updatedAt": "2018-09-19T06:11:53.782Z"
}