{
  "contractName": "BBT",
  "abi": [
    {
      "constant": true,
      "inputs": [],
      "name": "name",
      "outputs": [
        {
          "name": "",
          "type": "string"
        }
      ],
      "payable": false,
      "stateMutability": "view",
      "type": "function"
    },
    {
      "constant": false,
      "inputs": [
        {
          "name": "_spender",
          "type": "address"
        },
        {
          "name": "_value",
          "type": "uint256"
        }
      ],
      "name": "approve",
      "outputs": [
        {
          "name": "",
          "type": "bool"
        }
      ],
      "payable": false,
      "stateMutability": "nonpayable",
      "type": "function"
    },
    {
      "constant": true,
      "inputs": [
        {
          "name": "_operator",
          "type": "address"
        },
        {
          "name": "_role",
          "type": "string"
        }
      ],
      "name": "checkRole",
      "outputs": [],
      "payable": false,
      "stateMutability": "view",
      "type": "function"
    },
    {
      "constant": true,
      "inputs": [],
      "name": "totalSupply",
      "outputs": [
        {
          "name": "",
          "type": "uint256"
        }
      ],
      "payable": false,
      "stateMutability": "view",
      "type": "function"
    },
    {
      "constant": true,
      "inputs": [],
      "name": "ROLE_WHITELISTED",
      "outputs": [
        {
          "name": "",
          "type": "string"
        }
      ],
      "payable": false,
      "stateMutability": "view",
      "type": "function"
    },
    {
      "constant": true,
      "inputs": [
        {
          "name": "_operator",
          "type": "address"
        },
        {
          "name": "_role",
          "type": "string"
        }
      ],
      "name": "hasRole",
      "outputs": [
        {
          "name": "",
          "type": "bool"
        }
      ],
      "payable": false,
      "stateMutability": "view",
      "type": "function"
    },
    {
      "constant": false,
      "inputs": [
        {
          "name": "_from",
          "type": "address"
        },
        {
          "name": "_to",
          "type": "address"
        },
        {
          "name": "_value",
          "type": "uint256"
        }
      ],
      "name": "transferFrom",
      "outputs": [
        {
          "name": "",
          "type": "bool"
        }
      ],
      "payable": false,
      "stateMutability": "nonpayable",
      "type": "function"
    },
    {
      "constant": false,
      "inputs": [
        {
          "name": "_operators",
          "type": "address[]"
        }
      ],
      "name": "removeAddressesFromWhitelist",
      "outputs": [],
      "payable": false,
      "stateMutability": "nonpayable",
      "type": "function"
    },
    {
      "constant": false,
      "inputs": [
        {
          "name": "_operator",
          "type": "address"
        }
      ],
      "name": "removeAddressFromWhitelist",
      "outputs": [],
      "payable": false,
      "stateMutability": "nonpayable",
      "type": "function"
    },
    {
      "constant": true,
      "inputs": [],
      "name": "teamReservedRatio",
      "outputs": [
        {
          "name": "",
          "type": "uint256"
        }
      ],
      "payable": false,
      "stateMutability": "view",
      "type": "function"
    },
    {
      "constant": true,
      "inputs": [],
      "name": "decimals",
      "outputs": [
        {
          "name": "",
          "type": "uint8"
        }
      ],
      "payable": false,
      "stateMutability": "view",
      "type": "function"
    },
    {
      "constant": false,
      "inputs": [],
      "name": "unpause",
      "outputs": [],
      "payable": false,
      "stateMutability": "nonpayable",
      "type": "function"
    },
    {
      "constant": false,
      "inputs": [
        {
          "name": "_value",
          "type": "uint256"
        }
      ],
      "name": "burn",
      "outputs": [],
      "payable": false,
      "stateMutability": "nonpayable",
      "type": "function"
    },
    {
      "constant": true,
      "inputs": [
        {
          "name": "_account",
          "type": "address"
        },
        {
          "name": "_snapshotId",
          "type": "uint256"
        }
      ],
      "name": "balanceOfAt",
      "outputs": [
        {
          "name": "",
          "type": "uint256"
        }
      ],
      "payable": false,
      "stateMutability": "view",
      "type": "function"
    },
    {
      "constant": true,
      "inputs": [],
      "name": "teamWallet",
      "outputs": [
        {
          "name": "",
          "type": "address"
        }
      ],
      "payable": false,
      "stateMutability": "view",
      "type": "function"
    },
    {
      "constant": true,
      "inputs": [],
      "name": "paused",
      "outputs": [
        {
          "name": "",
          "type": "bool"
        }
      ],
      "payable": false,
      "stateMutability": "view",
      "type": "function"
    },
    {
      "constant": true,
      "inputs": [],
      "name": "circulation",
      "outputs": [
        {
          "name": "",
          "type": "uint256"
        }
      ],
      "payable": false,
      "stateMutability": "view",
      "type": "function"
    },
    {
      "constant": false,
      "inputs": [
        {
          "name": "_spender",
          "type": "address"
        },
        {
          "name": "_subtractedValue",
          "type": "uint256"
        }
      ],
      "name": "decreaseApproval",
      "outputs": [
        {
          "name": "success",
          "type": "bool"
        }
      ],
      "payable": false,
      "stateMutability": "nonpayable",
      "type": "function"
    },
    {
      "constant": true,
      "inputs": [
        {
          "name": "_owner",
          "type": "address"
        }
      ],
      "name": "balanceOf",
      "outputs": [
        {
          "name": "",
          "type": "uint256"
        }
      ],
      "payable": false,
      "stateMutability": "view",
      "type": "function"
    },
    {
      "constant": false,
      "inputs": [],
      "name": "renounceOwnership",
      "outputs": [],
      "payable": false,
      "stateMutability": "nonpayable",
      "type": "function"
    },
    {
      "constant": false,
      "inputs": [
        {
          "name": "_operator",
          "type": "address"
        }
      ],
      "name": "addAddressToWhitelist",
      "outputs": [],
      "payable": false,
      "stateMutability": "nonpayable",
      "type": "function"
    },
    {
      "constant": false,
      "inputs": [],
      "name": "pause",
      "outputs": [],
      "payable": false,
      "stateMutability": "nonpayable",
      "type": "function"
    },
    {
      "constant": true,
      "inputs": [],
      "name": "owner",
      "outputs": [
        {
          "name": "",
          "type": "address"
        }
      ],
      "payable": false,
      "stateMutability": "view",
      "type": "function"
    },
    {
      "constant": true,
      "inputs": [],
      "name": "symbol",
      "outputs": [
        {
          "name": "",
          "type": "string"
        }
      ],
      "payable": false,
      "stateMutability": "view",
      "type": "function"
    },
    {
      "constant": true,
      "inputs": [
        {
          "name": "_operator",
          "type": "address"
        }
      ],
      "name": "whitelist",
      "outputs": [
        {
          "name": "",
          "type": "bool"
        }
      ],
      "payable": false,
      "stateMutability": "view",
      "type": "function"
    },
    {
      "constant": true,
      "inputs": [],
      "name": "currSnapshotId",
      "outputs": [
        {
          "name": "",
          "type": "uint256"
        }
      ],
      "payable": false,
      "stateMutability": "view",
      "type": "function"
    },
    {
      "constant": false,
      "inputs": [
        {
          "name": "_to",
          "type": "address"
        },
        {
          "name": "_value",
          "type": "uint256"
        }
      ],
      "name": "transfer",
      "outputs": [
        {
          "name": "",
          "type": "bool"
        }
      ],
      "payable": false,
      "stateMutability": "nonpayable",
      "type": "function"
    },
    {
      "constant": false,
      "inputs": [
        {
          "name": "_spender",
          "type": "address"
        },
        {
          "name": "_addedValue",
          "type": "uint256"
        }
      ],
      "name": "increaseApproval",
      "outputs": [
        {
          "name": "success",
          "type": "bool"
        }
      ],
      "payable": false,
      "stateMutability": "nonpayable",
      "type": "function"
    },
    {
      "constant": true,
      "inputs": [
        {
          "name": "_owner",
          "type": "address"
        },
        {
          "name": "_spender",
          "type": "address"
        }
      ],
      "name": "allowance",
      "outputs": [
        {
          "name": "",
          "type": "uint256"
        }
      ],
      "payable": false,
      "stateMutability": "view",
      "type": "function"
    },
    {
      "constant": false,
      "inputs": [
        {
          "name": "_operators",
          "type": "address[]"
        }
      ],
      "name": "addAddressesToWhitelist",
      "outputs": [],
      "payable": false,
      "stateMutability": "nonpayable",
      "type": "function"
    },
    {
      "constant": false,
      "inputs": [
        {
          "name": "_newOwner",
          "type": "address"
        }
      ],
      "name": "transferOwnership",
      "outputs": [],
      "payable": false,
      "stateMutability": "nonpayable",
      "type": "function"
    },
    {
      "inputs": [],
      "payable": false,
      "stateMutability": "nonpayable",
      "type": "constructor"
    },
    {
      "anonymous": false,
      "inputs": [
        {
          "indexed": true,
          "name": "from",
          "type": "address"
        },
        {
          "indexed": true,
          "name": "to",
          "type": "address"
        },
        {
          "indexed": false,
          "name": "amount",
          "type": "uint256"
        }
      ],
      "name": "Mine",
      "type": "event"
    },
    {
      "anonymous": false,
      "inputs": [
        {
          "indexed": true,
          "name": "from",
          "type": "address"
        },
        {
          "indexed": true,
          "name": "to",
          "type": "address"
        },
        {
          "indexed": false,
          "name": "amount",
          "type": "uint256"
        }
      ],
      "name": "Release",
      "type": "event"
    },
    {
      "anonymous": false,
      "inputs": [
        {
          "indexed": true,
          "name": "from",
          "type": "address"
        },
        {
          "indexed": true,
          "name": "teamWallet",
          "type": "address"
        }
      ],
      "name": "SetTeamWallet",
      "type": "event"
    },
    {
      "anonymous": false,
      "inputs": [
        {
          "indexed": true,
          "name": "teamWallet",
          "type": "address"
        },
        {
          "indexed": false,
          "name": "amount",
          "type": "uint256"
        },
        {
          "indexed": false,
          "name": "source",
          "type": "string"
        }
      ],
      "name": "UnlockTeamBBT",
      "type": "event"
    },
    {
      "anonymous": false,
      "inputs": [
        {
          "indexed": true,
          "name": "operator",
          "type": "address"
        },
        {
          "indexed": false,
          "name": "role",
          "type": "string"
        }
      ],
      "name": "RoleAdded",
      "type": "event"
    },
    {
      "anonymous": false,
      "inputs": [
        {
          "indexed": true,
          "name": "operator",
          "type": "address"
        },
        {
          "indexed": false,
          "name": "role",
          "type": "string"
        }
      ],
      "name": "RoleRemoved",
      "type": "event"
    },
    {
      "anonymous": false,
      "inputs": [
        {
          "indexed": false,
          "name": "id",
          "type": "uint256"
        }
      ],
      "name": "Snapshot",
      "type": "event"
    },
    {
      "anonymous": false,
      "inputs": [],
      "name": "Pause",
      "type": "event"
    },
    {
      "anonymous": false,
      "inputs": [],
      "name": "Unpause",
      "type": "event"
    },
    {
      "anonymous": false,
      "inputs": [
        {
          "indexed": true,
          "name": "previousOwner",
          "type": "address"
        }
      ],
      "name": "OwnershipRenounced",
      "type": "event"
    },
    {
      "anonymous": false,
      "inputs": [
        {
          "indexed": true,
          "name": "previousOwner",
          "type": "address"
        },
        {
          "indexed": true,
          "name": "newOwner",
          "type": "address"
        }
      ],
      "name": "OwnershipTransferred",
      "type": "event"
    },
    {
      "anonymous": false,
      "inputs": [
        {
          "indexed": true,
          "name": "burner",
          "type": "address"
        },
        {
          "indexed": false,
          "name": "value",
          "type": "uint256"
        }
      ],
      "name": "Burn",
      "type": "event"
    },
    {
      "anonymous": false,
      "inputs": [
        {
          "indexed": true,
          "name": "owner",
          "type": "address"
        },
        {
          "indexed": true,
          "name": "spender",
          "type": "address"
        },
        {
          "indexed": false,
          "name": "value",
          "type": "uint256"
        }
      ],
      "name": "Approval",
      "type": "event"
    },
    {
      "anonymous": false,
      "inputs": [
        {
          "indexed": true,
          "name": "from",
          "type": "address"
        },
        {
          "indexed": true,
          "name": "to",
          "type": "address"
        },
        {
          "indexed": false,
          "name": "value",
          "type": "uint256"
        }
      ],
      "name": "Transfer",
      "type": "event"
    },
    {
      "constant": false,
      "inputs": [],
      "name": "snapshot",
      "outputs": [
        {
          "name": "",
          "type": "uint256"
        }
      ],
      "payable": false,
      "stateMutability": "nonpayable",
      "type": "function"
    },
    {
      "constant": true,
      "inputs": [
        {
          "name": "_snapshotId",
          "type": "uint256"
        }
      ],
      "name": "circulationAt",
      "outputs": [
        {
          "name": "",
          "type": "uint256"
        }
      ],
      "payable": false,
      "stateMutability": "view",
      "type": "function"
    },
    {
      "constant": false,
      "inputs": [
        {
          "name": "_address",
          "type": "address"
        }
      ],
      "name": "setTeamWallet",
      "outputs": [
        {
          "name": "",
          "type": "bool"
        }
      ],
      "payable": false,
      "stateMutability": "nonpayable",
      "type": "function"
    },
    {
      "constant": false,
      "inputs": [
        {
          "name": "_to",
          "type": "address"
        },
        {
          "name": "_amount",
          "type": "uint256"
        }
      ],
      "name": "mine",
      "outputs": [
        {
          "name": "",
          "type": "bool"
        }
      ],
      "payable": false,
      "stateMutability": "nonpayable",
      "type": "function"
    },
    {
      "constant": false,
      "inputs": [
        {
          "name": "_to",
          "type": "address"
        },
        {
          "name": "_amount",
          "type": "uint256"
        }
      ],
      "name": "release",
      "outputs": [
        {
          "name": "",
          "type": "bool"
        }
      ],
      "payable": false,
      "stateMutability": "nonpayable",
      "type": "function"
    },
    {
      "constant": false,
      "inputs": [
        {
          "name": "_to",
          "type": "address"
        },
        {
          "name": "_amount",
          "type": "uint256"
        }
      ],
      "name": "releaseAndUnlock",
      "outputs": [
        {
          "name": "",
          "type": "bool"
        }
      ],
      "payable": false,
      "stateMutability": "nonpayable",
      "type": "function"
    }
  ],
  "bytecode": "0x60806040526003805460a060020a60ff02191690556b204fce5e3e2502611000000060085534801561003057600080fd5b5060038054600160a060020a03191633179055600854600155611ff2806100586000396000f3006080604052600436106101cc5763ffffffff7c01000000000000000000000000000000000000000000000000000000006000350416630357371d81146101d157806306fdde0314610209578063095ea7b3146102935780630988ca8c146102b75780631525ff7d1461032057806318160ddd1461034157806318b919e914610368578063217fe6c61461037d57806323b872dd146103e457806324953eaa1461040e578063286dd3f5146104635780632b2a238014610484578063313ce5671461049957806332f05fd1146104c45780633f4ba83a146104e857806342966c68146104fd5780634ee2cd7e1461051557806359927044146105395780635c975abb1461056a5780635fdf60fb1461057f578063661884631461059457806370a08231146105b8578063715018a6146105d9578063735b81ab146105ee5780637b9417c8146106065780638456cb59146106275780638da5cb5b1461063c57806395d89b41146106515780639711715a146106665780639b19251a1461067b5780639c8799a21461069c578063a9059cbb146106b1578063ab27be20146106d5578063d73dd623146106f9578063dd62ed3e1461071d578063e2ec6ec314610744578063f2fde38b14610799575b600080fd5b3480156101dd57600080fd5b506101f5600160a060020a03600435166024356107ba565b604080519115158252519081900360200190f35b34801561021557600080fd5b5061021e61089f565b6040805160208082528351818301528351919283929083019185019080838360005b83811015610258578181015183820152602001610240565b50505050905090810190601f1680156102855780820380516001836020036101000a031916815260200191505b509250505060405180910390f35b34801561029f57600080fd5b506101f5600160a060020a03600435166024356108d6565b3480156102c357600080fd5b5060408051602060046024803582810135601f810185900485028601850190965285855261031e958335600160a060020a03169536956044949193909101919081908401838280828437509497506109039650505050505050565b005b34801561032c57600080fd5b506101f5600160a060020a0360043516610971565b34801561034d57600080fd5b50610356610a00565b60408051918252519081900360200190f35b34801561037457600080fd5b5061021e610a06565b34801561038957600080fd5b5060408051602060046024803582810135601f81018590048502860185019096528585526101f5958335600160a060020a0316953695604494919390910191908190840183828082843750949750610a2b9650505050505050565b3480156103f057600080fd5b506101f5600160a060020a0360043581169060243516604435610a97565b34801561041a57600080fd5b506040805160206004803580820135838102808601850190965280855261031e95369593946024949385019291829185019084908082843750949750610abe9650505050505050565b34801561046f57600080fd5b5061031e600160a060020a0360043516610b0d565b34801561049057600080fd5b50610356610b54565b3480156104a557600080fd5b506104ae610b59565b6040805160ff9092168252519081900360200190f35b3480156104d057600080fd5b506101f5600160a060020a0360043516602435610b5e565b3480156104f457600080fd5b5061031e610c47565b34801561050957600080fd5b5061031e600435610cbf565b34801561052157600080fd5b50610356600160a060020a0360043516602435610cc9565b34801561054557600080fd5b5061054e610d7a565b60408051600160a060020a039092168252519081900360200190f35b34801561057657600080fd5b506101f5610d89565b34801561058b57600080fd5b50610356610d99565b3480156105a057600080fd5b506101f5600160a060020a0360043516602435610d9f565b3480156105c457600080fd5b50610356600160a060020a0360043516610dc3565b3480156105e557600080fd5b5061031e610dde565b3480156105fa57600080fd5b50610356600435610e4c565b34801561061257600080fd5b5061031e600160a060020a0360043516610ec8565b34801561063357600080fd5b5061031e610f0c565b34801561064857600080fd5b5061054e610f89565b34801561065d57600080fd5b5061021e610f98565b34801561067257600080fd5b50610356610fcf565b34801561068757600080fd5b506101f5600160a060020a0360043516611075565b3480156106a857600080fd5b506103566110a4565b3480156106bd57600080fd5b506101f5600160a060020a03600435166024356110aa565b3480156106e157600080fd5b506101f5600160a060020a03600435166024356110c8565b34801561070557600080fd5b506101f5600160a060020a0360043516602435611208565b34801561072957600080fd5b50610356600160a060020a036004358116906024351661122c565b34801561075057600080fd5b506040805160206004803580820135838102808601850190965280855261031e953695939460249493850192918291850190849080828437509497506112579650505050505050565b3480156107a557600080fd5b5061031e600160a060020a03600435166112a6565b600354600090600160a060020a031633146107d457600080fd5b816001546107ed826009546112c690919063ffffffff16565b1115610831576040805160e560020a62461bcd02815260206004820152601a6024820152600080516020611fa7833981519152604482015290519081900360640190fd5b60035460a060020a900460ff161561084857600080fd5b61085284846112d3565b50604080518481529051600160a060020a0386169133917fcb54aad3bd772fcfe1bc124e01bd1a91a91c9d80126d8b3014c4d9e687d5ca489181900360200190a3600191505b5092915050565b60408051808201909152600c81527f426f6e426f6e20546f6b656e0000000000000000000000000000000000000000602082015281565b60035460009060a060020a900460ff16156108f057600080fd5b6108fa83836113a3565b90505b92915050565b61096d826007836040518082805190602001908083835b602083106109395780518252601f19909201916020918201910161091a565b51815160209384036101000a6000190180199092169116179052920194855250604051938490030190922092915050611409565b5050565b600354600090600160a060020a0316331461098b57600080fd5b60035460a060020a900460ff16156109a257600080fd5b600a805473ffffffffffffffffffffffffffffffffffffffff1916600160a060020a03841690811790915560405133907fc4775d013f53eff3cd16df56552e9fcbb84ca0c1cb2553aab6387c6b19c8f6b290600090a3506001919050565b60015490565b6040805180820190915260098152600080516020611f87833981519152602082015281565b60006108fa836007846040518082805190602001908083835b60208310610a635780518252601f199092019160209182019101610a44565b51815160209384036101000a600019018019909216911617905292019485525060405193849003019092209291505061141e565b6000610aa28461143d565b610aab8361143d565b610ab68484846114a9565b949350505050565b600354600090600160a060020a03163314610ad857600080fd5b5060005b815181101561096d57610b058282815181101515610af657fe5b90602001906020020151610b0d565b600101610adc565b600354600160a060020a03163314610b2457600080fd5b610b5181604080519081016040528060098152602001600080516020611f878339815191528152506114ce565b50565b600a81565b601281565b600354600090600160a060020a03163314610b7857600080fd5b81600154610b91826009546112c690919063ffffffff16565b1115610bd5576040805160e560020a62461bcd02815260206004820152601a6024820152600080516020611fa7833981519152604482015290519081900360640190fd5b60035460a060020a900460ff1615610bec57600080fd5b610bf684846107ba565b50610c3c610c03846115df565b60408051808201909152600781527f72656c65617365000000000000000000000000000000000000000000000000006020820152611603565b506001949350505050565b600354600160a060020a03163314610c5e57600080fd5b60035460a060020a900460ff161515610c7657600080fd5b6003805474ff0000000000000000000000000000000000000000191690556040517f7805862f689e2f13df9f062ff482ad3ad112aca9e0847911ed832e158c525b3390600090a1565b610b513382611798565b600080600083118015610cde57506004548311155b1515610ce957600080fd5b600160a060020a0384166000908152600560205260409020610d11908463ffffffff61189916565b600160a060020a038516600090815260056020526040902054909150811415610d4457610d3d84610dc3565b9150610898565b600160a060020a0384166000908152600660205260409020805482908110610d6857fe5b90600052602060002001549150610898565b600a54600160a060020a031681565b60035460a060020a900460ff1681565b60095481565b60035460009060a060020a900460ff1615610db957600080fd5b6108fa8383611931565b600160a060020a031660009081526020819052604090205490565b600354600160a060020a03163314610df557600080fd5b600354604051600160a060020a03909116907ff8df31144d9c2f0f6b59d69b8b98abd5459d07f2742c4df920b25aae33c6482090600090a26003805473ffffffffffffffffffffffffffffffffffffffff19169055565b60008082118015610e5f57506004548211155b1515610eb5576040805160e560020a62461bcd02815260206004820152601460248201527f696e76616c696420736e617073686f742069642e000000000000000000000000604482015290519081900360640190fd5b506000908152600b602052604090205490565b600354600160a060020a03163314610edf57600080fd5b610b5181604080519081016040528060098152602001600080516020611f87833981519152815250611a20565b600354600160a060020a03163314610f2357600080fd5b60035460a060020a900460ff1615610f3a57600080fd5b6003805474ff0000000000000000000000000000000000000000191660a060020a1790556040517f6985a02210a168e66602d3235cb6db0e70f92b3ba4d376a33c0f3d9434bff62590600090a1565b600354600160a060020a031681565b60408051808201909152600381527f4242540000000000000000000000000000000000000000000000000000000000602082015281565b600033610fff81604080519081016040528060098152602001600080516020611f87833981519152815250610903565b60035460a060020a900460ff161561101657600080fd5b600480546001018082556009546000918252600b6020908152604092839020919091559154815190815290517f8030e83b04d87bef53480e26263266d6ca66863aa8506aca6f2559d18aa1cb67929181900390910190a1505060045490565b60006108fd82604080519081016040528060098152602001600080516020611f87833981519152815250610a2b565b60045481565b60006110b53361143d565b6110be8361143d565b6108fa8383611af2565b6000336110f881604080519081016040528060098152602001600080516020611f87833981519152815250610903565b82600154611111826009546112c690919063ffffffff16565b1115611155576040805160e560020a62461bcd02815260206004820152601a6024820152600080516020611fa7833981519152604482015290519081900360640190fd5b60035460a060020a900460ff161561116c57600080fd5b61117685856112d3565b506111bc611183856115df565b60408051808201909152600481527f6d696e65000000000000000000000000000000000000000000000000000000006020820152611603565b50604080518581529051600160a060020a0387169133917f67f21e18ec3c4a136e44f0616563f5cf5ed3132b96e482b9d6ee81262cd2f2c29181900360200190a3506001949350505050565b60035460009060a060020a900460ff161561122257600080fd5b6108fa8383611b16565b600160a060020a03918216600090815260026020908152604080832093909416825291909152205490565b600354600090600160a060020a0316331461127157600080fd5b5060005b815181101561096d5761129e828281518110151561128f57fe5b90602001906020020151610ec8565b600101611275565b600354600160a060020a031633146112bd57600080fd5b610b5181611baf565b818101828110156108fd57fe5b6000816001546112ee826009546112c690919063ffffffff16565b1115611332576040805160e560020a62461bcd02815260206004820152601a6024820152600080516020611fa7833981519152604482015290519081900360640190fd5b61133b3361143d565b6113448461143d565b600160a060020a03841660009081526020819052604090205461136d908463ffffffff6112c616565b600160a060020a038516600090815260208190526040902055600954611399908463ffffffff6112c616565b6009555092915050565b336000818152600260209081526040808320600160a060020a038716808552908352818420869055815186815291519394909390927f8c5be1e5ebec7d5bd14f71427d1e84f3dd0314c0f7b2291e5b200ac8c7c3b925928290030190a350600192915050565b611413828261141e565b151561096d57600080fd5b600160a060020a03166000908152602091909152604090205460ff1690565b60045461144982611c2d565b1015610b5157600160a060020a0381166000818152600560209081526040808320600454815460018101835591855283852090910155928252600690522061149082610dc3565b8154600181018355600092835260209092209091015550565b60035460009060a060020a900460ff16156114c357600080fd5b610ab6848484611c7c565b611538826007836040518082805190602001908083835b602083106115045780518252601f1990920191602091820191016114e5565b51815160209384036101000a6000190180199092169116179052920194855250604051938490030190922092915050611df1565b81600160a060020a03167fd211483f91fc6eff862467f8de606587a30c8fc9981056f051b897a418df803a826040518080602001828103825283818151815260200191508051906020019080838360005b838110156115a1578181015183820152602001611589565b50505050905090810190601f1680156115ce5780820380516001836020036101000a031916815260200191505b509250505060405180910390a25050565b60006108fd605a6115f784600a63ffffffff611e1316565b9063ffffffff611e3c16565b600a54600090600160a060020a03161515611668576040805160e560020a62461bcd02815260206004820152601460248201527f5465616d2077616c6c6574206e6f74207365742e000000000000000000000000604482015290519081900360640190fd5b82600154611681826009546112c690919063ffffffff16565b11156116c5576040805160e560020a62461bcd02815260206004820152601a6024820152600080516020611fa7833981519152604482015290519081900360640190fd5b600a546116db90600160a060020a0316856112d3565b50600a546040805186815260208082018381528751938301939093528651600160a060020a03909416937fe714328f3f99cc55b35ed42eb8906f309b164ee16dd726f905eb66626085d12293899389939092606084019185019080838360005b8381101561175357818101518382015260200161173b565b50505050905090810190601f1680156117805780820380516001836020036101000a031916815260200191505b50935050505060405180910390a25060019392505050565b600160a060020a0382166000908152602081905260409020548111156117bd57600080fd5b600160a060020a0382166000908152602081905260409020546117e6908263ffffffff611e5116565b600160a060020a038316600090815260208190526040902055600154611812908263ffffffff611e5116565b600155604080518281529051600160a060020a038416917fcc16f5dbb4873280815c1ee09dbd06736cffcc184412cf7a71a0fdb75d397ca5919081900360200190a2604080518281529051600091600160a060020a038516917fddf252ad1be2c89b69c2b068fc378daa952ba7f163c4a11628f55a4df523b3ef9181900360200190a35050565b81546000908190815b818310156118ea576118b48383611e63565b90508486828154811015156118c557fe5b906000526020600020015411156118de578091506118e5565b8060010192505b6118a2565b600083118015611914575084866001850381548110151561190757fe5b9060005260206000200154145b1561192457600183039350611928565b8293505b50505092915050565b336000908152600260209081526040808320600160a060020a038616845290915281205480831061198557336000908152600260209081526040808320600160a060020a03881684529091528120556119ba565b611995818463ffffffff611e5116565b336000908152600260209081526040808320600160a060020a03891684529091529020555b336000818152600260209081526040808320600160a060020a0389168085529083529281902054815190815290519293927f8c5be1e5ebec7d5bd14f71427d1e84f3dd0314c0f7b2291e5b200ac8c7c3b925929181900390910190a35060019392505050565b611a8a826007836040518082805190602001908083835b60208310611a565780518252601f199092019160209182019101611a37565b51815160209384036101000a6000190180199092169116179052920194855250604051938490030190922092915050611e82565b81600160a060020a03167fbfec83d64eaa953f2708271a023ab9ee82057f8f3578d548c1a4ba0b5b70048982604051808060200182810382528381815181526020019150805190602001908083836000838110156115a1578181015183820152602001611589565b60035460009060a060020a900460ff1615611b0c57600080fd5b6108fa8383611ea7565b336000908152600260209081526040808320600160a060020a0386168452909152812054611b4a908363ffffffff6112c616565b336000818152600260209081526040808320600160a060020a0389168085529083529281902085905580519485525191937f8c5be1e5ebec7d5bd14f71427d1e84f3dd0314c0f7b2291e5b200ac8c7c3b925929081900390910190a350600192915050565b600160a060020a0381161515611bc457600080fd5b600354604051600160a060020a038084169216907f8be0079c531659141344cd1fd0a4f28419497f9722a3daafe3b4186f6b6457e090600090a36003805473ffffffffffffffffffffffffffffffffffffffff1916600160a060020a0392909216919091179055565b600160a060020a038116600090815260056020526040812080541515611c565760009150611c76565b805481906000198101908110611c6857fe5b906000526020600020015491505b50919050565b600160a060020a038316600090815260208190526040812054821115611ca157600080fd5b600160a060020a0384166000908152600260209081526040808320338452909152902054821115611cd157600080fd5b600160a060020a0383161515611ce657600080fd5b600160a060020a038416600090815260208190526040902054611d0f908363ffffffff611e5116565b600160a060020a038086166000908152602081905260408082209390935590851681522054611d44908363ffffffff6112c616565b600160a060020a03808516600090815260208181526040808320949094559187168152600282528281203382529091522054611d86908363ffffffff611e5116565b600160a060020a03808616600081815260026020908152604080832033845282529182902094909455805186815290519287169391927fddf252ad1be2c89b69c2b068fc378daa952ba7f163c4a11628f55a4df523b3ef929181900390910190a35060019392505050565b600160a060020a0316600090815260209190915260409020805460ff19169055565b6000821515611e24575060006108fd565b50818102818382811515611e3457fe5b04146108fd57fe5b60008183811515611e4957fe5b049392505050565b600082821115611e5d57fe5b50900390565b6000600260018481169084160104600283046002850401019392505050565b600160a060020a0316600090815260209190915260409020805460ff19166001179055565b33600090815260208190526040812054821115611ec357600080fd5b600160a060020a0383161515611ed857600080fd5b33600090815260208190526040902054611ef8908363ffffffff611e5116565b3360009081526020819052604080822092909255600160a060020a03851681522054611f2a908363ffffffff6112c616565b600160a060020a038416600081815260208181526040918290209390935580518581529051919233927fddf252ad1be2c89b69c2b068fc378daa952ba7f163c4a11628f55a4df523b3ef9281900390910190a350600192915050560077686974656c6973740000000000000000000000000000000000000000000000556e72656c656173656420424254206e6f7420656e6f7567682e000000000000a165627a7a72305820cb247315fd849abe498a576acb1eac3180d5eec3e81e2d0fd68650adc4c2bfc30029",
  "source": "pragma solidity ^0.4.24;\n\nimport 'openzeppelin-solidity/contracts/token/ERC20/BurnableToken.sol';\nimport 'openzeppelin-solidity/contracts/token/ERC20/PausableToken.sol';\nimport 'openzeppelin-solidity/contracts/access/Whitelist.sol';\nimport './SnapshotToken.sol';\n\ncontract BBT is BurnableToken, PausableToken, SnapshotToken, Whitelist {\n    string public constant symbol = \"BBT\";\n    string public constant name = \"BonBon Token\";\n    uint8 public constant decimals = 18;\n    uint256 private overrideTotalSupply_ = 10 * 1e9 * 1e18; //10 billion\n\n    uint256 public circulation;\n    address public teamWallet;\n    uint256 public constant teamReservedRatio = 10;\n\n    mapping (uint256 => uint256) private snapshotCirculations_;   //snapshotId => circulation\n\n    event Mine(address indexed from, address indexed to, uint256 amount);\n    event Release(address indexed from, address indexed to, uint256 amount);\n    event SetTeamWallet(address indexed from, address indexed teamWallet);\n    event UnlockTeamBBT(address indexed teamWallet, uint256 amount, string source);\n\n    /**\n     * @dev make sure unreleased BBT is enough.\n     */\n    modifier hasEnoughUnreleasedBBT(uint256 _amount) {\n        require(circulation.add(_amount) <= totalSupply_, \"Unreleased BBT not enough.\");\n        _;\n    }\n\n    /**\n     * @dev make sure dev team wallet is set.\n     */\n    modifier hasTeamWallet() {\n        require(teamWallet != address(0), \"Team wallet not set.\");\n        _;\n    }\n\n    constructor() public {\n        totalSupply_ = overrideTotalSupply_;\n    }\n\n    /**\n     * @dev make snapshot.\n     */\n    function snapshot()\n        onlyIfWhitelisted(msg.sender)\n        whenNotPaused\n        public\n        returns(uint256)\n    {\n        currSnapshotId += 1;\n        snapshotCirculations_[currSnapshotId] = circulation;\n        emit Snapshot(currSnapshotId);\n        return currSnapshotId;\n    }\n\n    /**\n     * @dev get BBT circulation by snapshot id.\n     * @param _snapshotId snapshot id.\n     */\n    function circulationAt(uint256 _snapshotId)\n        public\n        view\n        returns(uint256)\n    {\n        require(_snapshotId > 0 && _snapshotId <= currSnapshotId, \"invalid snapshot id.\");\n        return snapshotCirculations_[_snapshotId];\n    }\n\n    /**\n     * @dev setup team wallet.\n     * @param _address address of team wallet.\n     */\n    function setTeamWallet(address _address)\n        onlyOwner\n        whenNotPaused\n        public\n        returns (bool)\n    {\n        teamWallet = _address;\n        emit SetTeamWallet(msg.sender, _address);\n        return true;\n    }\n\n    /**\n     * @dev for authorized dapp mining BBT.\n     * @param _to to which address BBT send to.\n     * @param _amount how many BBT send.\n     */\n    function mine(address _to, uint256 _amount)\n        onlyIfWhitelisted(msg.sender)\n        hasEnoughUnreleasedBBT(_amount)\n        whenNotPaused\n        public\n        returns (bool)\n    {\n        releaseBBT(_to, _amount);\n\n        //unlock dev team bbt\n        unlockTeamBBT(getTeamUnlockAmountHelper(_amount), 'mine');\n\n        emit Mine(msg.sender, _to, _amount);\n        return true;\n    }\n\n    /**\n     * @dev owner release BBT to specified address.\n     * @param _to which address release to.\n     * @param _amount how many BBT release to.\n     */\n    function release(address _to, uint256 _amount)\n        onlyOwner\n        hasEnoughUnreleasedBBT(_amount)\n        whenNotPaused\n        public\n        returns(bool)\n    {\n        releaseBBT(_to, _amount);\n        emit Release(msg.sender, _to, _amount);\n        return true;\n    }\n\n    /**\n     * @dev owner release BBT and unlock corresponding ratio to dev team wallet.\n     * @param _to which address release to.\n     * @param _amount how many BBT release to.\n     */\n    function releaseAndUnlock(address _to, uint256 _amount)\n        onlyOwner\n        hasEnoughUnreleasedBBT(_amount)\n        whenNotPaused\n        public\n        returns(bool)\n    {\n        release(_to, _amount);\n\n        //unlock dev team bbt\n        unlockTeamBBT(getTeamUnlockAmountHelper(_amount), 'release');\n\n        return true;\n    }\n\n    function getTeamUnlockAmountHelper(uint256 _amount)\n        private\n        pure\n        returns(uint256)\n    {\n        return _amount.mul(teamReservedRatio).div(100 - teamReservedRatio);\n    }\n\n    function unlockTeamBBT(uint256 _unlockAmount, string _source)\n        hasTeamWallet\n        hasEnoughUnreleasedBBT(_unlockAmount)\n        private\n        returns(bool)\n    {\n        releaseBBT(teamWallet, _unlockAmount);\n        emit UnlockTeamBBT(teamWallet, _unlockAmount, _source);\n        return true;\n    }\n\n    /**\n     * @dev update balance and circulation.\n     */\n    function releaseBBT(address _to, uint256 _amount)\n        hasEnoughUnreleasedBBT(_amount)\n        private\n        returns(bool)\n    {\n        super._updateSnapshot(msg.sender);\n        super._updateSnapshot(_to);\n\n        balances[_to] = balances[_to].add(_amount);\n        circulation = circulation.add(_amount);\n    }\n}",
  "sourcePath": "/Volumes/Code/data/www/bonbon_contract/contracts/project_a/BBT.sol",
  "compiler": {
    "name": "solc",
    "version": "0.4.24+commit.e67f0147.Emscripten.clang"
  },
  "schemaVersion": "2.0.1",
  "updatedAt": "2018-10-12T15:37:59.108Z"
}