{
  "contractName": "BBT",
  "abi": [
    {
      "constant": true,
      "inputs": [],
      "name": "name",
      "outputs": [
        {
          "name": "",
          "type": "string"
        }
      ],
      "payable": false,
      "stateMutability": "view",
      "type": "function"
    },
    {
      "constant": false,
      "inputs": [
        {
          "name": "_spender",
          "type": "address"
        },
        {
          "name": "_value",
          "type": "uint256"
        }
      ],
      "name": "approve",
      "outputs": [
        {
          "name": "",
          "type": "bool"
        }
      ],
      "payable": false,
      "stateMutability": "nonpayable",
      "type": "function"
    },
    {
      "constant": true,
      "inputs": [
        {
          "name": "_operator",
          "type": "address"
        },
        {
          "name": "_role",
          "type": "string"
        }
      ],
      "name": "checkRole",
      "outputs": [],
      "payable": false,
      "stateMutability": "view",
      "type": "function"
    },
    {
      "constant": true,
      "inputs": [],
      "name": "totalSupply",
      "outputs": [
        {
          "name": "",
          "type": "uint256"
        }
      ],
      "payable": false,
      "stateMutability": "view",
      "type": "function"
    },
    {
      "constant": true,
      "inputs": [],
      "name": "ROLE_WHITELISTED",
      "outputs": [
        {
          "name": "",
          "type": "string"
        }
      ],
      "payable": false,
      "stateMutability": "view",
      "type": "function"
    },
    {
      "constant": true,
      "inputs": [
        {
          "name": "_operator",
          "type": "address"
        },
        {
          "name": "_role",
          "type": "string"
        }
      ],
      "name": "hasRole",
      "outputs": [
        {
          "name": "",
          "type": "bool"
        }
      ],
      "payable": false,
      "stateMutability": "view",
      "type": "function"
    },
    {
      "constant": false,
      "inputs": [
        {
          "name": "_from",
          "type": "address"
        },
        {
          "name": "_to",
          "type": "address"
        },
        {
          "name": "_value",
          "type": "uint256"
        }
      ],
      "name": "transferFrom",
      "outputs": [
        {
          "name": "",
          "type": "bool"
        }
      ],
      "payable": false,
      "stateMutability": "nonpayable",
      "type": "function"
    },
    {
      "constant": false,
      "inputs": [
        {
          "name": "_operators",
          "type": "address[]"
        }
      ],
      "name": "removeAddressesFromWhitelist",
      "outputs": [],
      "payable": false,
      "stateMutability": "nonpayable",
      "type": "function"
    },
    {
      "constant": false,
      "inputs": [
        {
          "name": "_operator",
          "type": "address"
        }
      ],
      "name": "removeAddressFromWhitelist",
      "outputs": [],
      "payable": false,
      "stateMutability": "nonpayable",
      "type": "function"
    },
    {
      "constant": true,
      "inputs": [],
      "name": "decimals",
      "outputs": [
        {
          "name": "",
          "type": "uint8"
        }
      ],
      "payable": false,
      "stateMutability": "view",
      "type": "function"
    },
    {
      "constant": false,
      "inputs": [],
      "name": "unpause",
      "outputs": [],
      "payable": false,
      "stateMutability": "nonpayable",
      "type": "function"
    },
    {
      "constant": false,
      "inputs": [
        {
          "name": "_value",
          "type": "uint256"
        }
      ],
      "name": "burn",
      "outputs": [],
      "payable": false,
      "stateMutability": "nonpayable",
      "type": "function"
    },
    {
      "constant": true,
      "inputs": [],
      "name": "teamWallet",
      "outputs": [
        {
          "name": "",
          "type": "address"
        }
      ],
      "payable": false,
      "stateMutability": "view",
      "type": "function"
    },
    {
      "constant": true,
      "inputs": [],
      "name": "paused",
      "outputs": [
        {
          "name": "",
          "type": "bool"
        }
      ],
      "payable": false,
      "stateMutability": "view",
      "type": "function"
    },
    {
      "constant": true,
      "inputs": [],
      "name": "circulation",
      "outputs": [
        {
          "name": "",
          "type": "uint256"
        }
      ],
      "payable": false,
      "stateMutability": "view",
      "type": "function"
    },
    {
      "constant": false,
      "inputs": [
        {
          "name": "_spender",
          "type": "address"
        },
        {
          "name": "_subtractedValue",
          "type": "uint256"
        }
      ],
      "name": "decreaseApproval",
      "outputs": [
        {
          "name": "success",
          "type": "bool"
        }
      ],
      "payable": false,
      "stateMutability": "nonpayable",
      "type": "function"
    },
    {
      "constant": true,
      "inputs": [
        {
          "name": "_owner",
          "type": "address"
        }
      ],
      "name": "balanceOf",
      "outputs": [
        {
          "name": "",
          "type": "uint256"
        }
      ],
      "payable": false,
      "stateMutability": "view",
      "type": "function"
    },
    {
      "constant": true,
      "inputs": [],
      "name": "teamReservedRatio_",
      "outputs": [
        {
          "name": "",
          "type": "uint256"
        }
      ],
      "payable": false,
      "stateMutability": "view",
      "type": "function"
    },
    {
      "constant": false,
      "inputs": [],
      "name": "renounceOwnership",
      "outputs": [],
      "payable": false,
      "stateMutability": "nonpayable",
      "type": "function"
    },
    {
      "constant": false,
      "inputs": [
        {
          "name": "_operator",
          "type": "address"
        }
      ],
      "name": "addAddressToWhitelist",
      "outputs": [],
      "payable": false,
      "stateMutability": "nonpayable",
      "type": "function"
    },
    {
      "constant": false,
      "inputs": [],
      "name": "pause",
      "outputs": [],
      "payable": false,
      "stateMutability": "nonpayable",
      "type": "function"
    },
    {
      "constant": true,
      "inputs": [],
      "name": "owner",
      "outputs": [
        {
          "name": "",
          "type": "address"
        }
      ],
      "payable": false,
      "stateMutability": "view",
      "type": "function"
    },
    {
      "constant": true,
      "inputs": [],
      "name": "symbol",
      "outputs": [
        {
          "name": "",
          "type": "string"
        }
      ],
      "payable": false,
      "stateMutability": "view",
      "type": "function"
    },
    {
      "constant": true,
      "inputs": [
        {
          "name": "_operator",
          "type": "address"
        }
      ],
      "name": "whitelist",
      "outputs": [
        {
          "name": "",
          "type": "bool"
        }
      ],
      "payable": false,
      "stateMutability": "view",
      "type": "function"
    },
    {
      "constant": false,
      "inputs": [
        {
          "name": "_to",
          "type": "address"
        },
        {
          "name": "_value",
          "type": "uint256"
        }
      ],
      "name": "transfer",
      "outputs": [
        {
          "name": "",
          "type": "bool"
        }
      ],
      "payable": false,
      "stateMutability": "nonpayable",
      "type": "function"
    },
    {
      "constant": false,
      "inputs": [
        {
          "name": "_spender",
          "type": "address"
        },
        {
          "name": "_addedValue",
          "type": "uint256"
        }
      ],
      "name": "increaseApproval",
      "outputs": [
        {
          "name": "success",
          "type": "bool"
        }
      ],
      "payable": false,
      "stateMutability": "nonpayable",
      "type": "function"
    },
    {
      "constant": true,
      "inputs": [
        {
          "name": "_owner",
          "type": "address"
        },
        {
          "name": "_spender",
          "type": "address"
        }
      ],
      "name": "allowance",
      "outputs": [
        {
          "name": "",
          "type": "uint256"
        }
      ],
      "payable": false,
      "stateMutability": "view",
      "type": "function"
    },
    {
      "constant": false,
      "inputs": [
        {
          "name": "_operators",
          "type": "address[]"
        }
      ],
      "name": "addAddressesToWhitelist",
      "outputs": [],
      "payable": false,
      "stateMutability": "nonpayable",
      "type": "function"
    },
    {
      "constant": false,
      "inputs": [
        {
          "name": "_newOwner",
          "type": "address"
        }
      ],
      "name": "transferOwnership",
      "outputs": [],
      "payable": false,
      "stateMutability": "nonpayable",
      "type": "function"
    },
    {
      "inputs": [],
      "payable": false,
      "stateMutability": "nonpayable",
      "type": "constructor"
    },
    {
      "anonymous": false,
      "inputs": [
        {
          "indexed": true,
          "name": "from",
          "type": "address"
        },
        {
          "indexed": true,
          "name": "to",
          "type": "address"
        },
        {
          "indexed": false,
          "name": "amount",
          "type": "uint256"
        }
      ],
      "name": "Mine",
      "type": "event"
    },
    {
      "anonymous": false,
      "inputs": [
        {
          "indexed": true,
          "name": "from",
          "type": "address"
        },
        {
          "indexed": true,
          "name": "to",
          "type": "address"
        },
        {
          "indexed": false,
          "name": "amount",
          "type": "uint256"
        }
      ],
      "name": "Release",
      "type": "event"
    },
    {
      "anonymous": false,
      "inputs": [
        {
          "indexed": true,
          "name": "from",
          "type": "address"
        },
        {
          "indexed": true,
          "name": "teamWallet",
          "type": "address"
        }
      ],
      "name": "SetTeamWallet",
      "type": "event"
    },
    {
      "anonymous": false,
      "inputs": [
        {
          "indexed": true,
          "name": "teamWallet",
          "type": "address"
        },
        {
          "indexed": false,
          "name": "amount",
          "type": "uint256"
        },
        {
          "indexed": false,
          "name": "source",
          "type": "string"
        }
      ],
      "name": "UnlockTeamBBT",
      "type": "event"
    },
    {
      "anonymous": false,
      "inputs": [
        {
          "indexed": true,
          "name": "operator",
          "type": "address"
        },
        {
          "indexed": false,
          "name": "role",
          "type": "string"
        }
      ],
      "name": "RoleAdded",
      "type": "event"
    },
    {
      "anonymous": false,
      "inputs": [
        {
          "indexed": true,
          "name": "operator",
          "type": "address"
        },
        {
          "indexed": false,
          "name": "role",
          "type": "string"
        }
      ],
      "name": "RoleRemoved",
      "type": "event"
    },
    {
      "anonymous": false,
      "inputs": [],
      "name": "Pause",
      "type": "event"
    },
    {
      "anonymous": false,
      "inputs": [],
      "name": "Unpause",
      "type": "event"
    },
    {
      "anonymous": false,
      "inputs": [
        {
          "indexed": true,
          "name": "previousOwner",
          "type": "address"
        }
      ],
      "name": "OwnershipRenounced",
      "type": "event"
    },
    {
      "anonymous": false,
      "inputs": [
        {
          "indexed": true,
          "name": "previousOwner",
          "type": "address"
        },
        {
          "indexed": true,
          "name": "newOwner",
          "type": "address"
        }
      ],
      "name": "OwnershipTransferred",
      "type": "event"
    },
    {
      "anonymous": false,
      "inputs": [
        {
          "indexed": true,
          "name": "burner",
          "type": "address"
        },
        {
          "indexed": false,
          "name": "value",
          "type": "uint256"
        }
      ],
      "name": "Burn",
      "type": "event"
    },
    {
      "anonymous": false,
      "inputs": [
        {
          "indexed": true,
          "name": "owner",
          "type": "address"
        },
        {
          "indexed": true,
          "name": "spender",
          "type": "address"
        },
        {
          "indexed": false,
          "name": "value",
          "type": "uint256"
        }
      ],
      "name": "Approval",
      "type": "event"
    },
    {
      "anonymous": false,
      "inputs": [
        {
          "indexed": true,
          "name": "from",
          "type": "address"
        },
        {
          "indexed": true,
          "name": "to",
          "type": "address"
        },
        {
          "indexed": false,
          "name": "value",
          "type": "uint256"
        }
      ],
      "name": "Transfer",
      "type": "event"
    },
    {
      "constant": false,
      "inputs": [
        {
          "name": "_address",
          "type": "address"
        }
      ],
      "name": "setTeamWallet",
      "outputs": [
        {
          "name": "",
          "type": "bool"
        }
      ],
      "payable": false,
      "stateMutability": "nonpayable",
      "type": "function"
    },
    {
      "constant": false,
      "inputs": [
        {
          "name": "_to",
          "type": "address"
        },
        {
          "name": "_amount",
          "type": "uint256"
        }
      ],
      "name": "mine",
      "outputs": [
        {
          "name": "",
          "type": "bool"
        }
      ],
      "payable": false,
      "stateMutability": "nonpayable",
      "type": "function"
    },
    {
      "constant": false,
      "inputs": [
        {
          "name": "_to",
          "type": "address"
        },
        {
          "name": "_amount",
          "type": "uint256"
        }
      ],
      "name": "release",
      "outputs": [
        {
          "name": "",
          "type": "bool"
        }
      ],
      "payable": false,
      "stateMutability": "nonpayable",
      "type": "function"
    },
    {
      "constant": false,
      "inputs": [
        {
          "name": "_to",
          "type": "address"
        },
        {
          "name": "_amount",
          "type": "uint256"
        }
      ],
      "name": "releaseAndUnlock",
      "outputs": [
        {
          "name": "",
          "type": "bool"
        }
      ],
      "payable": false,
      "stateMutability": "nonpayable",
      "type": "function"
    }
  ],
  "bytecode": "0x60806040526003805460a060020a60ff02191690556c01431e0fae6d7217caa000000060055534801561003157600080fd5b5060038054600160a060020a03191633179055600554600155611a3c806100596000396000f3006080604052600436106101a05763ffffffff7c01000000000000000000000000000000000000000000000000000000006000350416630357371d81146101a557806306fdde03146101dd578063095ea7b3146102675780630988ca8c1461028b5780631525ff7d146102f457806318160ddd1461031557806318b919e91461033c578063217fe6c61461035157806323b872dd146103b857806324953eaa146103e2578063286dd3f514610437578063313ce5671461045857806332f05fd1146104835780633f4ba83a146104a757806342966c68146104bc57806359927044146104d45780635c975abb146105055780635fdf60fb1461051a578063661884631461052f57806370a082311461055357806370da478814610574578063715018a6146105895780637b9417c81461059e5780638456cb59146105bf5780638da5cb5b146105d457806395d89b41146105e95780639b19251a146105fe578063a9059cbb1461061f578063ab27be2014610643578063d73dd62314610667578063dd62ed3e1461068b578063e2ec6ec3146106b2578063f2fde38b14610707575b600080fd5b3480156101b157600080fd5b506101c9600160a060020a0360043516602435610728565b604080519115158252519081900360200190f35b3480156101e957600080fd5b506101f26107d2565b6040805160208082528351818301528351919283929083019185019080838360005b8381101561022c578181015183820152602001610214565b50505050905090810190601f1680156102595780820380516001836020036101000a031916815260200191505b509250505060405180910390f35b34801561027357600080fd5b506101c9600160a060020a0360043516602435610809565b34801561029757600080fd5b5060408051602060046024803582810135601f81018590048502860185019096528585526102f2958335600160a060020a03169536956044949193909101919081908401838280828437509497506108369650505050505050565b005b34801561030057600080fd5b506101c9600160a060020a03600435166108a4565b34801561032157600080fd5b5061032a610933565b60408051918252519081900360200190f35b34801561034857600080fd5b506101f2610939565b34801561035d57600080fd5b5060408051602060046024803582810135601f81018590048502860185019096528585526101c9958335600160a060020a031695369560449491939091019190819084018382808284375094975061095e9650505050505050565b3480156103c457600080fd5b506101c9600160a060020a03600435811690602435166044356109ca565b3480156103ee57600080fd5b50604080516020600480358082013583810280860185019096528085526102f2953695939460249493850192918291850190849080828437509497506109f79650505050505050565b34801561044357600080fd5b506102f2600160a060020a0360043516610a46565b34801561046457600080fd5b5061046d610a8d565b6040805160ff9092168252519081900360200190f35b34801561048f57600080fd5b506101c9600160a060020a0360043516602435610a92565b3480156104b357600080fd5b506102f2610b42565b3480156104c857600080fd5b506102f2600435610bba565b3480156104e057600080fd5b506104e9610bc4565b60408051600160a060020a039092168252519081900360200190f35b34801561051157600080fd5b506101c9610bd3565b34801561052657600080fd5b5061032a610be3565b34801561053b57600080fd5b506101c9600160a060020a0360043516602435610be9565b34801561055f57600080fd5b5061032a600160a060020a0360043516610c0d565b34801561058057600080fd5b5061032a610c28565b34801561059557600080fd5b506102f2610c2d565b3480156105aa57600080fd5b506102f2600160a060020a0360043516610c9b565b3480156105cb57600080fd5b506102f2610cdf565b3480156105e057600080fd5b506104e9610d5c565b3480156105f557600080fd5b506101f2610d6b565b34801561060a57600080fd5b506101c9600160a060020a0360043516610da2565b34801561062b57600080fd5b506101c9600160a060020a0360043516602435610dd1565b34801561064f57600080fd5b506101c9600160a060020a0360043516602435610df5565b34801561067357600080fd5b506101c9600160a060020a0360043516602435610efc565b34801561069757600080fd5b5061032a600160a060020a0360043581169060243516610f20565b3480156106be57600080fd5b50604080516020600480358082013583810280860185019096528085526102f295369593946024949385019291829185019084908082843750949750610f4b9650505050505050565b34801561071357600080fd5b506102f2600160a060020a0360043516610f9a565b600354600090600160a060020a0316331461074257600080fd5b8160015461075b82600654610fba90919063ffffffff16565b111561076657600080fd5b60035460a060020a900460ff161561077d57600080fd5b6107878484610fc7565b50604080518481529051600160a060020a0386169133917fcb54aad3bd772fcfe1bc124e01bd1a91a91c9d80126d8b3014c4d9e687d5ca489181900360200190a35060019392505050565b60408051808201909152600c81527f426f6e426f6e20546f6b656e0000000000000000000000000000000000000000602082015281565b60035460009060a060020a900460ff161561082357600080fd5b61082d838361104c565b90505b92915050565b6108a0826004836040518082805190602001908083835b6020831061086c5780518252601f19909201916020918201910161084d565b51815160209384036101000a60001901801990921691161790529201948552506040519384900301909220929150506110b2565b5050565b600354600090600160a060020a031633146108be57600080fd5b60035460a060020a900460ff16156108d557600080fd5b6007805473ffffffffffffffffffffffffffffffffffffffff1916600160a060020a03841690811790915560405133907fc4775d013f53eff3cd16df56552e9fcbb84ca0c1cb2553aab6387c6b19c8f6b290600090a3506001919050565b60015490565b60408051808201909152600981526000805160206119f1833981519152602082015281565b600061082d836004846040518082805190602001908083835b602083106109965780518252601f199092019160209182019101610977565b51815160209384036101000a60001901801990921691161790529201948552506040519384900301909220929150506110c7565b60035460009060a060020a900460ff16156109e457600080fd5b6109ef8484846110e6565b949350505050565b600354600090600160a060020a03163314610a1157600080fd5b5060005b81518110156108a057610a3e8282815181101515610a2f57fe5b90602001906020020151610a46565b600101610a15565b600354600160a060020a03163314610a5d57600080fd5b610a8a816040805190810160405280600981526020016000805160206119f183398151915281525061125b565b50565b601281565b600354600090600160a060020a03163314610aac57600080fd5b81600154610ac582600654610fba90919063ffffffff16565b1115610ad057600080fd5b60035460a060020a900460ff1615610ae757600080fd5b610af18484610728565b50610b37610afe8461136c565b60408051808201909152600781527f72656c65617365000000000000000000000000000000000000000000000000006020820152611390565b506001949350505050565b600354600160a060020a03163314610b5957600080fd5b60035460a060020a900460ff161515610b7157600080fd5b6003805474ff0000000000000000000000000000000000000000191690556040517f7805862f689e2f13df9f062ff482ad3ad112aca9e0847911ed832e158c525b3390600090a1565b610a8a33826114a1565b600754600160a060020a031681565b60035460a060020a900460ff1681565b60065481565b60035460009060a060020a900460ff1615610c0357600080fd5b61082d83836115a2565b600160a060020a031660009081526020819052604090205490565b600a81565b600354600160a060020a03163314610c4457600080fd5b600354604051600160a060020a03909116907ff8df31144d9c2f0f6b59d69b8b98abd5459d07f2742c4df920b25aae33c6482090600090a26003805473ffffffffffffffffffffffffffffffffffffffff19169055565b600354600160a060020a03163314610cb257600080fd5b610a8a816040805190810160405280600981526020016000805160206119f1833981519152815250611691565b600354600160a060020a03163314610cf657600080fd5b60035460a060020a900460ff1615610d0d57600080fd5b6003805474ff0000000000000000000000000000000000000000191660a060020a1790556040517f6985a02210a168e66602d3235cb6db0e70f92b3ba4d376a33c0f3d9434bff62590600090a1565b600354600160a060020a031681565b60408051808201909152600381527f4242540000000000000000000000000000000000000000000000000000000000602082015281565b6000610830826040805190810160405280600981526020016000805160206119f183398151915281525061095e565b60035460009060a060020a900460ff1615610deb57600080fd5b61082d8383611763565b600033610e25816040805190810160405280600981526020016000805160206119f1833981519152815250610836565b82600154610e3e82600654610fba90919063ffffffff16565b1115610e4957600080fd5b60035460a060020a900460ff1615610e6057600080fd5b610e6a8585610fc7565b50610eb0610e778561136c565b60408051808201909152600481527f6d696e65000000000000000000000000000000000000000000000000000000006020820152611390565b50604080518581529051600160a060020a0387169133917f67f21e18ec3c4a136e44f0616563f5cf5ed3132b96e482b9d6ee81262cd2f2c29181900360200190a3506001949350505050565b60035460009060a060020a900460ff1615610f1657600080fd5b61082d8383611842565b600160a060020a03918216600090815260026020908152604080832093909416825291909152205490565b600354600090600160a060020a03163314610f6557600080fd5b5060005b81518110156108a057610f928282815181101515610f8357fe5b90602001906020020151610c9b565b600101610f69565b600354600160a060020a03163314610fb157600080fd5b610a8a816118db565b8181018281101561083057fe5b600081600154610fe282600654610fba90919063ffffffff16565b1115610fed57600080fd5b600160a060020a038416600090815260208190526040902054611016908463ffffffff610fba16565b600160a060020a038516600090815260208190526040902055600654611042908463ffffffff610fba16565b6006555092915050565b336000818152600260209081526040808320600160a060020a038716808552908352818420869055815186815291519394909390927f8c5be1e5ebec7d5bd14f71427d1e84f3dd0314c0f7b2291e5b200ac8c7c3b925928290030190a350600192915050565b6110bc82826110c7565b15156108a057600080fd5b600160a060020a03166000908152602091909152604090205460ff1690565b600160a060020a03831660009081526020819052604081205482111561110b57600080fd5b600160a060020a038416600090815260026020908152604080832033845290915290205482111561113b57600080fd5b600160a060020a038316151561115057600080fd5b600160a060020a038416600090815260208190526040902054611179908363ffffffff61195916565b600160a060020a0380861660009081526020819052604080822093909355908516815220546111ae908363ffffffff610fba16565b600160a060020a038085166000908152602081815260408083209490945591871681526002825282812033825290915220546111f0908363ffffffff61195916565b600160a060020a03808616600081815260026020908152604080832033845282529182902094909455805186815290519287169391927fddf252ad1be2c89b69c2b068fc378daa952ba7f163c4a11628f55a4df523b3ef929181900390910190a35060019392505050565b6112c5826004836040518082805190602001908083835b602083106112915780518252601f199092019160209182019101611272565b51815160209384036101000a600019018019909216911617905292019485525060405193849003019092209291505061196b565b81600160a060020a03167fd211483f91fc6eff862467f8de606587a30c8fc9981056f051b897a418df803a826040518080602001828103825283818151815260200191508051906020019080838360005b8381101561132e578181015183820152602001611316565b50505050905090810190601f16801561135b5780820380516001836020036101000a031916815260200191505b509250505060405180910390a25050565b6000610830605a61138484600a63ffffffff61198d16565b9063ffffffff6119b616565b600754600090600160a060020a031615156113aa57600080fd5b826001546113c382600654610fba90919063ffffffff16565b11156113ce57600080fd5b6007546113e490600160a060020a031685610fc7565b506007546040805186815260208082018381528751938301939093528651600160a060020a03909416937fe714328f3f99cc55b35ed42eb8906f309b164ee16dd726f905eb66626085d12293899389939092606084019185019080838360005b8381101561145c578181015183820152602001611444565b50505050905090810190601f1680156114895780820380516001836020036101000a031916815260200191505b50935050505060405180910390a25060019392505050565b600160a060020a0382166000908152602081905260409020548111156114c657600080fd5b600160a060020a0382166000908152602081905260409020546114ef908263ffffffff61195916565b600160a060020a03831660009081526020819052604090205560015461151b908263ffffffff61195916565b600155604080518281529051600160a060020a038416917fcc16f5dbb4873280815c1ee09dbd06736cffcc184412cf7a71a0fdb75d397ca5919081900360200190a2604080518281529051600091600160a060020a038516917fddf252ad1be2c89b69c2b068fc378daa952ba7f163c4a11628f55a4df523b3ef9181900360200190a35050565b336000908152600260209081526040808320600160a060020a03861684529091528120548083106115f657336000908152600260209081526040808320600160a060020a038816845290915281205561162b565b611606818463ffffffff61195916565b336000908152600260209081526040808320600160a060020a03891684529091529020555b336000818152600260209081526040808320600160a060020a0389168085529083529281902054815190815290519293927f8c5be1e5ebec7d5bd14f71427d1e84f3dd0314c0f7b2291e5b200ac8c7c3b925929181900390910190a35060019392505050565b6116fb826004836040518082805190602001908083835b602083106116c75780518252601f1990920191602091820191016116a8565b51815160209384036101000a60001901801990921691161790529201948552506040519384900301909220929150506119cb565b81600160a060020a03167fbfec83d64eaa953f2708271a023ab9ee82057f8f3578d548c1a4ba0b5b700489826040518080602001828103825283818151815260200191508051906020019080838360008381101561132e578181015183820152602001611316565b3360009081526020819052604081205482111561177f57600080fd5b600160a060020a038316151561179457600080fd5b336000908152602081905260409020546117b4908363ffffffff61195916565b3360009081526020819052604080822092909255600160a060020a038516815220546117e6908363ffffffff610fba16565b600160a060020a038416600081815260208181526040918290209390935580518581529051919233927fddf252ad1be2c89b69c2b068fc378daa952ba7f163c4a11628f55a4df523b3ef9281900390910190a350600192915050565b336000908152600260209081526040808320600160a060020a0386168452909152812054611876908363ffffffff610fba16565b336000818152600260209081526040808320600160a060020a0389168085529083529281902085905580519485525191937f8c5be1e5ebec7d5bd14f71427d1e84f3dd0314c0f7b2291e5b200ac8c7c3b925929081900390910190a350600192915050565b600160a060020a03811615156118f057600080fd5b600354604051600160a060020a038084169216907f8be0079c531659141344cd1fd0a4f28419497f9722a3daafe3b4186f6b6457e090600090a36003805473ffffffffffffffffffffffffffffffffffffffff1916600160a060020a0392909216919091179055565b60008282111561196557fe5b50900390565b600160a060020a0316600090815260209190915260409020805460ff19169055565b600082151561199e57506000610830565b508181028183828115156119ae57fe5b041461083057fe5b600081838115156119c357fe5b049392505050565b600160a060020a0316600090815260209190915260409020805460ff19166001179055560077686974656c6973740000000000000000000000000000000000000000000000a165627a7a72305820695c46adabb9aa5b076328ed7716ee0e27900dd45ce98918c5741dbb856920af0029",
  "source": "pragma solidity ^0.4.24;\n\nimport 'openzeppelin-solidity/contracts/token/ERC20/BurnableToken.sol';\nimport 'openzeppelin-solidity/contracts/token/ERC20/PausableToken.sol';\nimport 'openzeppelin-solidity/contracts/access/Whitelist.sol';\n\ncontract BBT is BurnableToken, PausableToken, Whitelist {\n    string public constant symbol = \"BBT\";\n    string public constant name = \"BonBon Token\";\n    uint8 public constant decimals = 18;\n    uint256 private overrideTotalSupply_ = 100 * 1e9 * 1e18;   //100\n\n    uint256 public circulation;   //\n    address public teamWallet;    //bbt\n    uint256 public constant teamReservedRatio_ = 10;    //(x)\n\n    event Mine(address indexed from, address indexed to, uint256 amount);\n    event Release(address indexed from, address indexed to, uint256 amount);\n    event SetTeamWallet(address indexed from, address indexed teamWallet);\n    event UnlockTeamBBT(address indexed teamWallet, uint256 amount, string source);\n\n    modifier hasEnoughUnreleasedBBT(uint256 _amount) {\n        require(circulation.add(_amount) <= totalSupply_);\n        _;\n    }\n\n    modifier hasTeamWallet() {\n        require(teamWallet != address(0));  //\n        _;\n    }\n\n    //constructortotalSupply_basetotalSupply_\n    //totalSupply_totalSupply\n    //basetotalSupplytotalSupply_totalSupply_base\n    constructor() public {\n        totalSupply_ = overrideTotalSupply_;\n    }\n\n    //bbt\n    function setTeamWallet(address _address)\n        onlyOwner\n        whenNotPaused\n        public\n        returns (bool)\n    {\n        teamWallet = _address;\n        emit SetTeamWallet(msg.sender, _address);\n        return true;\n    }\n\n    //bbt\n    function mine(address _to, uint256 _amount)\n        onlyIfWhitelisted(msg.sender)\n        hasEnoughUnreleasedBBT(_amount)\n        whenNotPaused\n        public\n        returns (bool)\n    {\n        releaseBBT(_to, _amount);\n\n        //bbt\n        unlockTeamBBT(getTeamUnlockAmountHelper(_amount), 'mine');\n\n        emit Mine(msg.sender, _to, _amount);\n        return true;\n    }\n\n    //token\n    function release(address _to, uint256 _amount)\n        onlyOwner\n        hasEnoughUnreleasedBBT(_amount)\n        whenNotPaused\n        public\n        returns(bool)\n    {\n        releaseBBT(_to, _amount);\n        emit Release(msg.sender, _to, _amount);\n        return true;\n    }\n\n    //tokentoken\n    function releaseAndUnlock(address _to, uint256 _amount)\n        onlyOwner\n        hasEnoughUnreleasedBBT(_amount)\n        whenNotPaused\n        public\n        returns(bool)\n    {\n        release(_to, _amount);\n\n        //bbt\n        unlockTeamBBT(getTeamUnlockAmountHelper(_amount), 'release');\n\n        return true;\n    }\n\n    function getTeamUnlockAmountHelper(uint256 _amount)\n        private\n        pure\n        returns(uint256)\n    {\n        return _amount.mul(teamReservedRatio_).div(100 - teamReservedRatio_);\n    }\n\n    function unlockTeamBBT(uint256 _unlockAmount, string _source)\n        hasTeamWallet\n        hasEnoughUnreleasedBBT(_unlockAmount)\n        private\n        returns(bool)\n    {\n        releaseBBT(teamWallet, _unlockAmount);\n        emit UnlockTeamBBT(teamWallet, _unlockAmount, _source);\n        return true;\n    }\n\n    //minerelease\n    function releaseBBT(address _to, uint256 _amount)\n        hasEnoughUnreleasedBBT(_amount)\n        private\n        returns(bool)\n    {\n        balances[_to] = balances[_to].add(_amount);\n        circulation = circulation.add(_amount);\n    }\n}",
  "sourcePath": "/Volumes/Code/data/www/bonbon_contract/contracts/project_a/BBT.sol",
  "compiler": {
    "name": "solc",
    "version": "0.4.24+commit.e67f0147.Emscripten.clang"
  },
  "schemaVersion": "2.0.1",
  "updatedAt": "2018-09-12T09:01:05.197Z"
}