{
  "contractName": "BonBonStorage",
  "abi": [
    {
      "constant": false,
      "inputs": [],
      "name": "renounceOwnership",
      "outputs": [],
      "payable": false,
      "stateMutability": "nonpayable",
      "type": "function"
    },
    {
      "constant": true,
      "inputs": [],
      "name": "owner",
      "outputs": [
        {
          "name": "",
          "type": "address"
        }
      ],
      "payable": false,
      "stateMutability": "view",
      "type": "function"
    },
    {
      "constant": true,
      "inputs": [
        {
          "name": "",
          "type": "bytes32"
        }
      ],
      "name": "shareAccountAddress",
      "outputs": [
        {
          "name": "",
          "type": "address"
        }
      ],
      "payable": false,
      "stateMutability": "view",
      "type": "function"
    },
    {
      "constant": false,
      "inputs": [
        {
          "name": "_newOwner",
          "type": "address"
        }
      ],
      "name": "transferOwnership",
      "outputs": [],
      "payable": false,
      "stateMutability": "nonpayable",
      "type": "function"
    },
    {
      "payable": true,
      "stateMutability": "payable",
      "type": "fallback"
    },
    {
      "anonymous": false,
      "inputs": [
        {
          "indexed": true,
          "name": "previousOwner",
          "type": "address"
        }
      ],
      "name": "OwnershipRenounced",
      "type": "event"
    },
    {
      "anonymous": false,
      "inputs": [
        {
          "indexed": true,
          "name": "previousOwner",
          "type": "address"
        },
        {
          "indexed": true,
          "name": "newOwner",
          "type": "address"
        }
      ],
      "name": "OwnershipTransferred",
      "type": "event"
    },
    {
      "constant": false,
      "inputs": [
        {
          "name": "_gameName",
          "type": "bytes32"
        },
        {
          "name": "_accountAddress",
          "type": "address"
        }
      ],
      "name": "setShareAccount",
      "outputs": [],
      "payable": false,
      "stateMutability": "nonpayable",
      "type": "function"
    },
    {
      "constant": true,
      "inputs": [
        {
          "name": "_gameName",
          "type": "bytes32"
        }
      ],
      "name": "getShareAccount",
      "outputs": [
        {
          "name": "",
          "type": "address"
        }
      ],
      "payable": false,
      "stateMutability": "view",
      "type": "function"
    },
    {
      "constant": false,
      "inputs": [
        {
          "name": "_toAddress",
          "type": "address"
        },
        {
          "name": "_toAmount",
          "type": "uint256"
        }
      ],
      "name": "transferTo",
      "outputs": [],
      "payable": false,
      "stateMutability": "nonpayable",
      "type": "function"
    }
  ],
  "bytecode": "0x608060405260008054600160a060020a031916331790556103b9806100256000396000f3006080604052600436106100825763ffffffff7c010000000000000000000000000000000000000000000000000000000060003504166317824af581146100845780632ccb1b30146100b8578063715018a6146100dc5780638da5cb5b146100f1578063b22ac50d14610106578063e7ec51ef1461012a578063f2fde38b14610142575b005b34801561009057600080fd5b5061009c600435610163565b60408051600160a060020a039092168252519081900360200190f35b3480156100c457600080fd5b50610082600160a060020a03600435166024356101a5565b3480156100e857600080fd5b50610082610205565b3480156100fd57600080fd5b5061009c610271565b34801561011257600080fd5b50610082600435600160a060020a0360243516610280565b34801561013657600080fd5b5061009c6004356102d2565b34801561014e57600080fd5b50610082600160a060020a03600435166102ed565b6000818152600160205260408120548290600160a060020a0316151561018857600080fd5b5050600090815260016020526040902054600160a060020a031690565b600054600160a060020a031633146101bc57600080fd5b30318111156101ca57600080fd5b604051600160a060020a0383169082156108fc029083906000818181858888f19350505050158015610200573d6000803e3d6000fd5b505050565b600054600160a060020a0316331461021c57600080fd5b60008054604051600160a060020a03909116917ff8df31144d9c2f0f6b59d69b8b98abd5459d07f2742c4df920b25aae33c6482091a26000805473ffffffffffffffffffffffffffffffffffffffff19169055565b600054600160a060020a031681565b600054600160a060020a0316331461029757600080fd5b600091825260016020526040909120805473ffffffffffffffffffffffffffffffffffffffff1916600160a060020a03909216919091179055565b600160205260009081526040902054600160a060020a031681565b600054600160a060020a0316331461030457600080fd5b61030d81610310565b50565b600160a060020a038116151561032557600080fd5b60008054604051600160a060020a03808516939216917f8be0079c531659141344cd1fd0a4f28419497f9722a3daafe3b4186f6b6457e091a36000805473ffffffffffffffffffffffffffffffffffffffff1916600160a060020a03929092169190911790555600a165627a7a72305820ae1638635950544ce50879d2c2f8f05af1ee35fefb12a1fb1ee3f405c5542a840029",
  "source": "pragma solidity ^0.4.24;\n\nimport 'openzeppelin-solidity/contracts/ownership/Ownable.sol';\n\ncontract BonBonStorage is Ownable {\n    mapping (bytes32 => address) public shareAccountAddress; //分红账号合约(或普通账号)地址\n\n    modifier shareAccountExists(bytes32 _gameName) {\n        require(shareAccountAddress[_gameName] != address(0));\n        _;\n    }\n\n    function setShareAccount(bytes32 _gameName, address _accountAddress)\n        onlyOwner\n        public\n    {\n        shareAccountAddress[_gameName] = _accountAddress;\n    }\n\n    function getShareAccount(bytes32 _gameName)\n        shareAccountExists(_gameName)\n        public\n        view\n        returns(address)\n    {\n        return shareAccountAddress[_gameName];\n    }\n\n    function transferTo(address _toAddress, uint256 _toAmount) onlyOwner public {\n        require(_toAmount <= address(this).balance);\n        _toAddress.transfer(_toAmount);\n    }\n\n    function () public payable {\n        //\n    }\n}",
  "sourcePath": "/Volumes/Code/data/www/bonbon_contract/contracts/bonbon_storage/BonBonStorage.sol",
  "compiler": {
    "name": "solc",
    "version": "0.4.24+commit.e67f0147.Emscripten.clang"
  },
  "schemaVersion": "2.0.1",
  "updatedAt": "2018-09-19T10:01:45.609Z"
}