{
  "contractName": "DdzShareAccount",
  "abi": [
    {
      "constant": true,
      "inputs": [
        {
          "name": "",
          "type": "address"
        }
      ],
      "name": "amountOf",
      "outputs": [
        {
          "name": "",
          "type": "uint256"
        }
      ],
      "payable": false,
      "stateMutability": "view",
      "type": "function"
    },
    {
      "constant": false,
      "inputs": [],
      "name": "renounceOwnership",
      "outputs": [],
      "payable": false,
      "stateMutability": "nonpayable",
      "type": "function"
    },
    {
      "constant": true,
      "inputs": [],
      "name": "owner",
      "outputs": [
        {
          "name": "",
          "type": "address"
        }
      ],
      "payable": false,
      "stateMutability": "view",
      "type": "function"
    },
    {
      "constant": true,
      "inputs": [],
      "name": "lastMsgSender",
      "outputs": [
        {
          "name": "",
          "type": "address"
        }
      ],
      "payable": false,
      "stateMutability": "view",
      "type": "function"
    },
    {
      "constant": false,
      "inputs": [
        {
          "name": "_newOwner",
          "type": "address"
        }
      ],
      "name": "transferOwnership",
      "outputs": [],
      "payable": false,
      "stateMutability": "nonpayable",
      "type": "function"
    },
    {
      "payable": true,
      "stateMutability": "payable",
      "type": "fallback"
    },
    {
      "anonymous": false,
      "inputs": [
        {
          "indexed": true,
          "name": "previousOwner",
          "type": "address"
        }
      ],
      "name": "OwnershipRenounced",
      "type": "event"
    },
    {
      "anonymous": false,
      "inputs": [
        {
          "indexed": true,
          "name": "previousOwner",
          "type": "address"
        },
        {
          "indexed": true,
          "name": "newOwner",
          "type": "address"
        }
      ],
      "name": "OwnershipTransferred",
      "type": "event"
    },
    {
      "constant": false,
      "inputs": [],
      "name": "deposit",
      "outputs": [],
      "payable": true,
      "stateMutability": "payable",
      "type": "function"
    },
    {
      "constant": false,
      "inputs": [
        {
          "name": "_toAddress",
          "type": "address"
        },
        {
          "name": "_toAmount",
          "type": "uint256"
        }
      ],
      "name": "transferTo",
      "outputs": [],
      "payable": false,
      "stateMutability": "nonpayable",
      "type": "function"
    }
  ],
  "bytecode": "0x608060405260028054600160a060020a0319908116909155600080549091163317905561035e806100316000396000f3006080604052600436106100825763ffffffff7c010000000000000000000000000000000000000000000000000000000060003504166301608f5f811461008c5780632ccb1b30146100bf578063715018a6146100e35780638da5cb5b146100f8578063d0e30db014610082578063ed606af414610129578063f2fde38b1461013e575b61008a61015f565b005b34801561009857600080fd5b506100ad600160a060020a0360043516610196565b60408051918252519081900360200190f35b3480156100cb57600080fd5b5061008a600160a060020a03600435166024356101a8565b3480156100ef57600080fd5b5061008a610208565b34801561010457600080fd5b5061010d610274565b60408051600160a060020a039092168252519081900360200190f35b34801561013557600080fd5b5061010d610283565b34801561014a57600080fd5b5061008a600160a060020a0360043516610292565b3360008181526001602052604090208054340190556002805473ffffffffffffffffffffffffffffffffffffffff19169091179055565b60016020526000908152604090205481565b600054600160a060020a031633146101bf57600080fd5b30318111156101cd57600080fd5b604051600160a060020a0383169082156108fc029083906000818181858888f19350505050158015610203573d6000803e3d6000fd5b505050565b600054600160a060020a0316331461021f57600080fd5b60008054604051600160a060020a03909116917ff8df31144d9c2f0f6b59d69b8b98abd5459d07f2742c4df920b25aae33c6482091a26000805473ffffffffffffffffffffffffffffffffffffffff19169055565b600054600160a060020a031681565b600254600160a060020a031681565b600054600160a060020a031633146102a957600080fd5b6102b2816102b5565b50565b600160a060020a03811615156102ca57600080fd5b60008054604051600160a060020a03808516939216917f8be0079c531659141344cd1fd0a4f28419497f9722a3daafe3b4186f6b6457e091a36000805473ffffffffffffffffffffffffffffffffffffffff1916600160a060020a03929092169190911790555600a165627a7a72305820f44e7f83d45b56c8f0a253a6a497dedf6c8012bb5b58f84867708dd05c69bee00029",
  "source": "pragma solidity ^0.4.24;\n\nimport 'openzeppelin-solidity/contracts/ownership/Ownable.sol';\n\ncontract DdzShareAccount is Ownable {\n    mapping (address => uint256) public amountOf; //通过transfer方法存进来的总数量\n    address public lastMsgSender = address(0);\n\n    function deposit() public payable {\n        amountOf[msg.sender] += msg.value;\n        lastMsgSender = msg.sender;\n    }\n\n    function transferTo(address _toAddress, uint256 _toAmount) onlyOwner public {\n        require(_toAmount <= address(this).balance);\n        _toAddress.transfer(_toAmount);\n    }\n\n    function () public payable {\n        deposit();\n    }\n}",
  "sourcePath": "/Volumes/Code/data/www/bonbon_contract/contracts/bonbon_storage/DdzShareAccount.sol",
  "compiler": {
    "name": "solc",
    "version": "0.4.24+commit.e67f0147.Emscripten.clang"
  },
  "schemaVersion": "2.0.1",
  "updatedAt": "2018-09-10T08:21:35.148Z"
}