{
  "contractName": "Dividend",
  "abi": [
    {
      "constant": true,
      "inputs": [
        {
          "name": "_operator",
          "type": "address"
        },
        {
          "name": "_role",
          "type": "string"
        }
      ],
      "name": "checkRole",
      "outputs": [],
      "payable": false,
      "stateMutability": "view",
      "type": "function"
    },
    {
      "constant": true,
      "inputs": [],
      "name": "ROLE_WHITELISTED",
      "outputs": [
        {
          "name": "",
          "type": "string"
        }
      ],
      "payable": false,
      "stateMutability": "view",
      "type": "function"
    },
    {
      "constant": true,
      "inputs": [
        {
          "name": "_operator",
          "type": "address"
        },
        {
          "name": "_role",
          "type": "string"
        }
      ],
      "name": "hasRole",
      "outputs": [
        {
          "name": "",
          "type": "bool"
        }
      ],
      "payable": false,
      "stateMutability": "view",
      "type": "function"
    },
    {
      "constant": false,
      "inputs": [
        {
          "name": "_operators",
          "type": "address[]"
        }
      ],
      "name": "removeAddressesFromWhitelist",
      "outputs": [],
      "payable": false,
      "stateMutability": "nonpayable",
      "type": "function"
    },
    {
      "constant": false,
      "inputs": [
        {
          "name": "_operator",
          "type": "address"
        }
      ],
      "name": "removeAddressFromWhitelist",
      "outputs": [],
      "payable": false,
      "stateMutability": "nonpayable",
      "type": "function"
    },
    {
      "constant": true,
      "inputs": [
        {
          "name": "",
          "type": "uint256"
        }
      ],
      "name": "roundsInfo_",
      "outputs": [
        {
          "name": "bbtSnapshotId",
          "type": "uint256"
        },
        {
          "name": "dividend",
          "type": "uint256"
        }
      ],
      "payable": false,
      "stateMutability": "view",
      "type": "function"
    },
    {
      "constant": true,
      "inputs": [],
      "name": "currentRound_",
      "outputs": [
        {
          "name": "roundId",
          "type": "uint256"
        },
        {
          "name": "dividend",
          "type": "uint256"
        },
        {
          "name": "isEnded",
          "type": "bool"
        }
      ],
      "payable": false,
      "stateMutability": "view",
      "type": "function"
    },
    {
      "constant": false,
      "inputs": [],
      "name": "unpause",
      "outputs": [],
      "payable": false,
      "stateMutability": "nonpayable",
      "type": "function"
    },
    {
      "constant": true,
      "inputs": [
        {
          "name": "",
          "type": "uint256"
        }
      ],
      "name": "roundIds_",
      "outputs": [
        {
          "name": "",
          "type": "uint256"
        }
      ],
      "payable": false,
      "stateMutability": "view",
      "type": "function"
    },
    {
      "constant": true,
      "inputs": [
        {
          "name": "",
          "type": "address"
        }
      ],
      "name": "playersWithdrew_",
      "outputs": [
        {
          "name": "",
          "type": "uint256"
        }
      ],
      "payable": false,
      "stateMutability": "view",
      "type": "function"
    },
    {
      "constant": true,
      "inputs": [],
      "name": "paused",
      "outputs": [
        {
          "name": "",
          "type": "bool"
        }
      ],
      "payable": false,
      "stateMutability": "view",
      "type": "function"
    },
    {
      "constant": false,
      "inputs": [],
      "name": "renounceOwnership",
      "outputs": [],
      "payable": false,
      "stateMutability": "nonpayable",
      "type": "function"
    },
    {
      "constant": false,
      "inputs": [
        {
          "name": "_operator",
          "type": "address"
        }
      ],
      "name": "addAddressToWhitelist",
      "outputs": [],
      "payable": false,
      "stateMutability": "nonpayable",
      "type": "function"
    },
    {
      "constant": false,
      "inputs": [],
      "name": "pause",
      "outputs": [],
      "payable": false,
      "stateMutability": "nonpayable",
      "type": "function"
    },
    {
      "constant": true,
      "inputs": [],
      "name": "owner",
      "outputs": [
        {
          "name": "",
          "type": "address"
        }
      ],
      "payable": false,
      "stateMutability": "view",
      "type": "function"
    },
    {
      "constant": true,
      "inputs": [
        {
          "name": "_operator",
          "type": "address"
        }
      ],
      "name": "whitelist",
      "outputs": [
        {
          "name": "",
          "type": "bool"
        }
      ],
      "payable": false,
      "stateMutability": "view",
      "type": "function"
    },
    {
      "constant": true,
      "inputs": [],
      "name": "cumulativeDividend",
      "outputs": [
        {
          "name": "",
          "type": "uint256"
        }
      ],
      "payable": false,
      "stateMutability": "view",
      "type": "function"
    },
    {
      "constant": false,
      "inputs": [
        {
          "name": "_operators",
          "type": "address[]"
        }
      ],
      "name": "addAddressesToWhitelist",
      "outputs": [],
      "payable": false,
      "stateMutability": "nonpayable",
      "type": "function"
    },
    {
      "constant": false,
      "inputs": [
        {
          "name": "_newOwner",
          "type": "address"
        }
      ],
      "name": "transferOwnership",
      "outputs": [],
      "payable": false,
      "stateMutability": "nonpayable",
      "type": "function"
    },
    {
      "inputs": [
        {
          "name": "_bbtAddress",
          "type": "address"
        }
      ],
      "payable": false,
      "stateMutability": "nonpayable",
      "type": "constructor"
    },
    {
      "anonymous": false,
      "inputs": [
        {
          "indexed": true,
          "name": "_from",
          "type": "address"
        },
        {
          "indexed": true,
          "name": "_round",
          "type": "uint256"
        },
        {
          "indexed": false,
          "name": "_value",
          "type": "uint256"
        }
      ],
      "name": "Deposited",
      "type": "event"
    },
    {
      "anonymous": false,
      "inputs": [
        {
          "indexed": true,
          "name": "_roundId",
          "type": "uint256"
        },
        {
          "indexed": false,
          "name": "bbtSnapshotId",
          "type": "uint256"
        },
        {
          "indexed": false,
          "name": "dividend",
          "type": "uint256"
        }
      ],
      "name": "Distributed",
      "type": "event"
    },
    {
      "anonymous": false,
      "inputs": [
        {
          "indexed": true,
          "name": "_from",
          "type": "address"
        },
        {
          "indexed": false,
          "name": "_value",
          "type": "uint256"
        }
      ],
      "name": "Withdrew",
      "type": "event"
    },
    {
      "anonymous": false,
      "inputs": [],
      "name": "Pause",
      "type": "event"
    },
    {
      "anonymous": false,
      "inputs": [],
      "name": "Unpause",
      "type": "event"
    },
    {
      "anonymous": false,
      "inputs": [
        {
          "indexed": true,
          "name": "operator",
          "type": "address"
        },
        {
          "indexed": false,
          "name": "role",
          "type": "string"
        }
      ],
      "name": "RoleAdded",
      "type": "event"
    },
    {
      "anonymous": false,
      "inputs": [
        {
          "indexed": true,
          "name": "operator",
          "type": "address"
        },
        {
          "indexed": false,
          "name": "role",
          "type": "string"
        }
      ],
      "name": "RoleRemoved",
      "type": "event"
    },
    {
      "anonymous": false,
      "inputs": [
        {
          "indexed": true,
          "name": "previousOwner",
          "type": "address"
        }
      ],
      "name": "OwnershipRenounced",
      "type": "event"
    },
    {
      "anonymous": false,
      "inputs": [
        {
          "indexed": true,
          "name": "previousOwner",
          "type": "address"
        },
        {
          "indexed": true,
          "name": "newOwner",
          "type": "address"
        }
      ],
      "name": "OwnershipTransferred",
      "type": "event"
    },
    {
      "constant": true,
      "inputs": [],
      "name": "getRoundsCount",
      "outputs": [
        {
          "name": "",
          "type": "uint256"
        }
      ],
      "payable": false,
      "stateMutability": "view",
      "type": "function"
    },
    {
      "constant": false,
      "inputs": [
        {
          "name": "_round",
          "type": "uint256"
        }
      ],
      "name": "deposit",
      "outputs": [
        {
          "name": "",
          "type": "bool"
        }
      ],
      "payable": true,
      "stateMutability": "payable",
      "type": "function"
    },
    {
      "constant": false,
      "inputs": [
        {
          "name": "_round",
          "type": "uint256"
        }
      ],
      "name": "distribute",
      "outputs": [
        {
          "name": "",
          "type": "bool"
        }
      ],
      "payable": false,
      "stateMutability": "nonpayable",
      "type": "function"
    },
    {
      "constant": false,
      "inputs": [],
      "name": "withdraw",
      "outputs": [],
      "payable": false,
      "stateMutability": "nonpayable",
      "type": "function"
    },
    {
      "constant": true,
      "inputs": [
        {
          "name": "_plyAddr",
          "type": "address"
        },
        {
          "name": "_roundId",
          "type": "uint256"
        }
      ],
      "name": "getPlayerRoundDividend",
      "outputs": [
        {
          "name": "",
          "type": "uint256"
        }
      ],
      "payable": false,
      "stateMutability": "view",
      "type": "function"
    },
    {
      "constant": true,
      "inputs": [
        {
          "name": "_plyAddr",
          "type": "address"
        }
      ],
      "name": "getPlayerTotalDividend",
      "outputs": [
        {
          "name": "",
          "type": "uint256"
        }
      ],
      "payable": false,
      "stateMutability": "view",
      "type": "function"
    },
    {
      "constant": true,
      "inputs": [
        {
          "name": "_plyAddr",
          "type": "address"
        }
      ],
      "name": "getPlayerLeftDividend",
      "outputs": [
        {
          "name": "",
          "type": "uint256"
        }
      ],
      "payable": false,
      "stateMutability": "view",
      "type": "function"
    }
  ],
  "bytecode": "0x60806040526002805460ff1916905534801561001a57600080fd5b50604051602080611792833981016040525160008054600160a060020a0319163317905560028054600160a060020a039092166101000261010060a860020a031990921691909117905561171f806100736000396000f30060806040526004361061013a5763ffffffff60e060020a6000350416630988ca8c811461013f57806318b919e9146101a8578063217fe6c61461023257806324953eaa146102ad578063286dd3f5146103025780632cffe4cd146103235780633a7ba808146103545780633ccfd60b146103895780633f4ba83a1461039e5780634bbe0db7146103b35780634c7fa728146103dd5780634fe85c23146103fe5780635c975abb1461041f578063607267d314610434578063715018a6146104585780637b9417c81461046d5780638456cb591461048e5780638da5cb5b146104a357806391c05b0b146104d45780639b19251a146104ec578063a09686c41461050d578063b6b55f2514610522578063c0c016751461052d578063dffb0bd114610542578063e2ec6ec314610563578063f2fde38b146105b8575b600080fd5b34801561014b57600080fd5b5060408051602060046024803582810135601f81018590048502860185019096528585526101a6958335600160a060020a03169536956044949193909101919081908401838280828437509497506105d99650505050505050565b005b3480156101b457600080fd5b506101bd610647565b6040805160208082528351818301528351919283929083019185019080838360005b838110156101f75781810151838201526020016101df565b50505050905090810190601f1680156102245780820380516001836020036101000a031916815260200191505b509250505060405180910390f35b34801561023e57600080fd5b5060408051602060046024803582810135601f8101859004850286018501909652858552610299958335600160a060020a031695369560449491939091019190819084018382808284375094975061066c9650505050505050565b604080519115158252519081900360200190f35b3480156102b957600080fd5b50604080516020600480358082013583810280860185019096528085526101a6953695939460249493850192918291850190849080828437509497506106e19650505050505050565b34801561030e57600080fd5b506101a6600160a060020a036004351661072e565b34801561032f57600080fd5b5061033b600435610775565b6040805192835260208301919091528051918290030190f35b34801561036057600080fd5b5061036961078e565b604080519384526020840192909252151582820152519081900360600190f35b34801561039557600080fd5b506101a661079d565b3480156103aa57600080fd5b506101a66108b7565b3480156103bf57600080fd5b506103cb600435610914565b60408051918252519081900360200190f35b3480156103e957600080fd5b506103cb600160a060020a0360043516610933565b34801561040a57600080fd5b506103cb600160a060020a0360043516610965565b34801561042b57600080fd5b50610299610977565b34801561044057600080fd5b506103cb600160a060020a0360043516602435610980565b34801561046457600080fd5b506101a6610ade565b34801561047957600080fd5b506101a6600160a060020a0360043516610b4a565b34801561049a57600080fd5b506101a6610b8e565b3480156104af57600080fd5b506104b8610bed565b60408051600160a060020a039092168252519081900360200190f35b3480156104e057600080fd5b50610299600435610bfc565b3480156104f857600080fd5b50610299600160a060020a0360043516610ea4565b34801561051957600080fd5b506103cb610ed3565b610299600435610ed9565b34801561053957600080fd5b506103cb6111c5565b34801561054e57600080fd5b506103cb600160a060020a03600435166111cb565b34801561056f57600080fd5b50604080516020600480358082013583810280860185019096528085526101a6953695939460249493850192918291850190849080828437509497506112269650505050505050565b3480156105c457600080fd5b506101a6600160a060020a0360043516611273565b610643826001836040518082805190602001908083835b6020831061060f5780518252601f1990920191602091820191016105f0565b51815160209384036101000a6000190180199092169116179052920194855250604051938490030190922092915050611293565b5050565b60408051808201909152600981526000805160206116d4833981519152602082015281565b60006106d8836001846040518082805190602001908083835b602083106106a45780518252601f199092019160209182019101610685565b51815160209384036101000a60001901801990921691161790529201948552506040519384900301909220929150506112a8565b90505b92915050565b60008054600160a060020a031633146106f957600080fd5b5060005b815181101561064357610726828281518110151561071757fe5b9060200190602002015161072e565b6001016106fd565b600054600160a060020a0316331461074557600080fd5b610772816040805190810160405280600981526020016000805160206116d48339815191528152506112c7565b50565b6007602052600090815260409020805460019091015482565b60035460045460055460ff1683565b60025460009060ff16156107b057600080fd5b33803b8015610809576040805160e560020a62461bcd02815260206004820152601160248201527f736f7272792068756d616e73206f6e6c79000000000000000000000000000000604482015290519081900360640190fd5b61081233610933565b9250600083111561087c57604051339084156108fc029085906000818181858888f1935050505015801561084a573d6000803e3d6000fd5b503360009081526006602052604090205461086b908463ffffffff6113d816565b336000908152600660205260409020555b60408051848152905133917fb244b9a17ad633c6e83b7983ee04320484956a68ddbe96a0b70dfca1cf19d723919081900360200190a2505050565b600054600160a060020a031633146108ce57600080fd5b60025460ff1615156108df57600080fd5b6002805460ff191690556040517f7805862f689e2f13df9f062ff482ad3ad112aca9e0847911ed832e158c525b3390600090a1565b600880548290811061092257fe5b600091825260209091200154905081565b600160a060020a0381166000908152600660205260408120546106db90610959846111cb565b9063ffffffff6113e516565b60066020526000908152604090205481565b60025460ff1681565b600061098a6116bc565b6000808411801561099d57506008548411155b15156109f3576040805160e560020a62461bcd02815260206004820152601160248201527f696e76616c696420726f756e642069642e000000000000000000000000000000604482015290519081900360640190fd5b60008481526007602090815260408083208151808301835281548082526001909201548185015260025483517f4ee2cd7e000000000000000000000000000000000000000000000000000000008152600160a060020a038c8116600483015260248201949094529351919750610100900490911693634ee2cd7e93604480850194919392918390030190829087803b158015610a8e57600080fd5b505af1158015610aa2573d6000803e3d6000fd5b505050506040513d6020811015610ab857600080fd5b50519050610ad5610ac8856113f7565b829063ffffffff6114e816565b95945050505050565b600054600160a060020a03163314610af557600080fd5b60008054604051600160a060020a03909116917ff8df31144d9c2f0f6b59d69b8b98abd5459d07f2742c4df920b25aae33c6482091a26000805473ffffffffffffffffffffffffffffffffffffffff19169055565b600054600160a060020a03163314610b6157600080fd5b610772816040805190810160405280600981526020016000805160206116d4833981519152815250611511565b600054600160a060020a03163314610ba557600080fd5b60025460ff1615610bb557600080fd5b6002805460ff191660011790556040517f6985a02210a168e66602d3235cb6db0e70f92b3ba4d376a33c0f3d9434bff62590600090a1565b600054600160a060020a031681565b6000610c066116bc565b33610c34816040805190810160405280600981526020016000805160206116d48339815191528152506105d9565b60025460ff1615610c4457600080fd5b600084118015610c5657506003548410155b1515610cd2576040805160e560020a62461bcd02815260206004820152602b60248201527f63616e206e6f742064697374726962757465206469766964656e6420666f722060448201527f7061737420726f756e642e000000000000000000000000000000000000000000606482015290519081900360840190fd5b600354841415610d625760055460ff1615610d5d576040805160e560020a62461bcd02815260206004820152602f60248201527f7468697320726f756e642068617320656e6465642e2063616e206e6f7420646960448201527f737472696275746520616761696e2e0000000000000000000000000000000000606482015290519081900360840190fd5b610d6d565b600384905560006004555b600260019054906101000a9004600160a060020a0316600160a060020a0316639711715a6040518163ffffffff1660e060020a028152600401602060405180830381600087803b158015610dc057600080fd5b505af1158015610dd4573d6000803e3d6000fd5b505050506040513d6020811015610dea57600080fd5b505182526004546020838101918252600380546000908152600783526040808220875181558551600191820155925460088054808601825593527ff3f7a9fe364faab93b216da50a3214154f22a0a2b415b23a84c8169e8b636ee39092018290556005805460ff191690931790925585519351825194855292840192909252805191927fc5d35a65af09b3042394b742529d10f7fbf9a37294d6b13e4d63d06f9909a15b929081900390910190a2600192505b5050919050565b60006106db826040805190810160405280600981526020016000805160206116d483398151915281525061066c565b60085490565b600033610f09816040805190810160405280600981526020016000805160206116d48339815191528152506105d9565b60025460ff1615610f1957600080fd5b60003411610f97576040805160e560020a62461bcd02815260206004820152602360248201527f6465706f73697420616d6f756e742073686f756c64206e6f7420626520656d7060448201527f74792e0000000000000000000000000000000000000000000000000000000000606482015290519081900360840190fd5b600083118015610fa957506003548310155b1515611025576040805160e560020a62461bcd02815260206004820152602860248201527f63616e206e6f74206465706f736974206469766964656e6420666f722070617360448201527f7420726f756e642e000000000000000000000000000000000000000000000000606482015290519081900360840190fd5b6003548314156110cb5760055460ff16156110b0576040805160e560020a62461bcd02815260206004820152602660248201527f7468697320726f756e642068617320656e6465642e2063616e206e6f7420646560448201527f706f7369742e0000000000000000000000000000000000000000000000000000606482015290519081900360840190fd5b6004546110c3903463ffffffff6113d816565b60045561116f565b6003546000101561115b5760055460ff16151560011461115b576040805160e560020a62461bcd02815260206004820152602e60248201527f6c61737420726f756e64206e6f7420656e642e2063616e206e6f74206465706f60448201527f736974206e657720726f756e642e000000000000000000000000000000000000606482015290519081900360840190fd5b60038390556005805460ff19169055346004555b600954611182903463ffffffff6113d816565b600955604080513481529051849133917f73a19dd210f1a7f902193214c0ee91dd35ee5b4d920cba8d519eca65a7b488ca9181900360200190a350600192915050565b60095481565b60008080805b60085482101561121d5760088054839081106111e957fe5b906000526020600020015490506112106112038683610980565b849063ffffffff6113d816565b92506001909101906111d1565b50909392505050565b60008054600160a060020a0316331461123e57600080fd5b5060005b81518110156106435761126b828281518110151561125c57fe5b90602001906020020151610b4a565b600101611242565b600054600160a060020a0316331461128a57600080fd5b610772816115e3565b61129d82826112a8565b151561064357600080fd5b600160a060020a03166000908152602091909152604090205460ff1690565b611331826001836040518082805190602001908083835b602083106112fd5780518252601f1990920191602091820191016112de565b51815160209384036101000a6000190180199092169116179052920194855250604051938490030190922092915050611660565b81600160a060020a03167fd211483f91fc6eff862467f8de606587a30c8fc9981056f051b897a418df803a826040518080602001828103825283818151815260200191508051906020019080838360005b8381101561139a578181015183820152602001611382565b50505050905090810190601f1680156113c75780820380516001836020036101000a031916815260200191505b509250505060405180910390a25050565b818101828110156106db57fe5b6000828211156113f157fe5b50900390565b60006114016116bc565b506000828152600760209081526040808320815180830190925280548252600101549181018290529190151561143a5760009250610e9d565b600260019054906101000a9004600160a060020a0316600160a060020a031663735b81ab83600001516040518263ffffffff1660e060020a02815260040180828152602001915050602060405180830381600087803b15801561149c57600080fd5b505af11580156114b0573d6000803e3d6000fd5b505050506040513d60208110156114c657600080fd5b505160208301519091506114e0908263ffffffff61168216565b949350505050565b60008215156114f9575060006106db565b5081810281838281151561150957fe5b04146106db57fe5b61157b826001836040518082805190602001908083835b602083106115475780518252601f199092019160209182019101611528565b51815160209384036101000a6000190180199092169116179052920194855250604051938490030190922092915050611697565b81600160a060020a03167fbfec83d64eaa953f2708271a023ab9ee82057f8f3578d548c1a4ba0b5b700489826040518080602001828103825283818151815260200191508051906020019080838360008381101561139a578181015183820152602001611382565b600160a060020a03811615156115f857600080fd5b60008054604051600160a060020a03808516939216917f8be0079c531659141344cd1fd0a4f28419497f9722a3daafe3b4186f6b6457e091a36000805473ffffffffffffffffffffffffffffffffffffffff1916600160a060020a0392909216919091179055565b600160a060020a0316600090815260209190915260409020805460ff19169055565b6000818381151561168f57fe5b049392505050565b600160a060020a0316600090815260209190915260409020805460ff19166001179055565b604080518082019091526000808252602082015290560077686974656c6973740000000000000000000000000000000000000000000000a165627a7a72305820628c6bed48f7f4345795f5963aeee00682ecca12206c2665ae7242b75640e8b20029",
  "source": "pragma solidity ^0.4.24;\n\nimport 'openzeppelin-solidity/contracts/access/Whitelist.sol';\nimport 'openzeppelin-solidity/contracts/lifecycle/Pausable.sol';\nimport 'openzeppelin-solidity/contracts/math/SafeMath.sol';\n\ninterface BBTxInterface {\n    function snapshot() external returns(uint256);\n    function circulationAt(uint256 _snapshotId) external view returns(uint256);\n    function balanceOfAt(address _account, uint256 _snapshotId) external view returns (uint256);\n}\n\ncontract Dividend is Whitelist, Pausable {\n    using SafeMath for *;\n\n    struct RoundInfo {\n        uint256 bbtSnapshotId;\n        uint256 dividend;\n    }\n\n    struct CurrentRoundInfo {\n        uint256 roundId;\n        uint256 dividend;\n        bool isEnded;   // default is false\n    }\n\n    BBTxInterface private BBT;   // BBT contract\n    CurrentRoundInfo public currentRound_;  // current round information\n    mapping (address => uint256) public playersWithdrew_;    // (plyAddr => withdrewEth)\n    mapping (uint256 => RoundInfo) public roundsInfo_;  // roundId => RoundInfo\n    uint256[] public roundIds_;\n    uint256 public cumulativeDividend;  // cumulative total dividend;\n\n    event Deposited(address indexed _from, uint256 indexed _round, uint256 _value);\n    event Distributed(uint256 indexed _roundId, uint256 bbtSnapshotId, uint256 dividend);\n    event Withdrew(address indexed _from, uint256 _value);\n\n    constructor(address _bbtAddress) public {\n        BBT = BBTxInterface(_bbtAddress);\n    }\n\n    /**\n     * @dev prevents contracts from interacting with fomo3d\n     */\n    modifier isHuman() {\n        address _addr = msg.sender;\n        uint256 _codeLength;\n\n        assembly {_codeLength := extcodesize(_addr)}\n        require(_codeLength == 0, \"sorry humans only\");\n        _;\n    }\n\n    /**\n     * @dev get count of game rounds\n     */\n    function getRoundsCount() public view returns(uint256) {\n        return roundIds_.length;\n    }\n\n    /**\n     * @dev deposit dividend eth in.\n     * @param _round which round the dividend for.\n     * @return deposit success.\n     */\n    function deposit(uint256 _round)\n        onlyIfWhitelisted(msg.sender)\n        whenNotPaused\n        public\n        payable\n        returns(bool)\n    {\n        require(msg.value > 0, \"deposit amount should not be empty.\");\n        require(_round > 0 && _round >= currentRound_.roundId, \"can not deposit dividend for past round.\");\n\n        if (_round == currentRound_.roundId) {\n            require(currentRound_.isEnded == false, \"this round has ended. can not deposit.\");\n            currentRound_.dividend = (currentRound_.dividend).add(msg.value);\n        } else {    // new round\n            if (currentRound_.roundId > 0)  //when first deposit come in, don't check isEnded.\n                require(currentRound_.isEnded == true, \"last round not end. can not deposit new round.\");\n            currentRound_.roundId = _round;\n            currentRound_.isEnded = false;\n            currentRound_.dividend = msg.value;\n        }\n\n        cumulativeDividend = cumulativeDividend.add(msg.value);\n\n        emit Deposited(msg.sender, _round, msg.value);\n        return true;\n    }\n\n    /**\n     * @dev distribute dividend to BBT holder.\n     * @param _round which round the distribution for.\n     * @return distributed success.\n     */\n    function distribute(uint256 _round)\n        onlyIfWhitelisted(msg.sender)\n        whenNotPaused\n        public\n        returns(bool)\n    {\n        require(_round > 0 && _round >= currentRound_.roundId, \"can not distribute dividend for past round.\");\n\n        if (_round == currentRound_.roundId) {\n            require(currentRound_.isEnded == false, \"this round has ended. can not distribute again.\");\n        } else {    //when this round has no deposit\n            currentRound_.roundId = _round;\n            currentRound_.dividend = 0;\n        }\n\n        RoundInfo memory roundInfo;\n        roundInfo.bbtSnapshotId = BBT.snapshot();\n        roundInfo.dividend = currentRound_.dividend;\n        roundsInfo_[currentRound_.roundId] = roundInfo;\n        roundIds_.push(currentRound_.roundId);\n\n        currentRound_.isEnded = true;   //mark this round is ended\n\n        emit Distributed(currentRound_.roundId, roundInfo.bbtSnapshotId, roundInfo.dividend);\n        return true;\n    }\n\n    /**\n     * @dev player withdraw dividend out.\n     */\n    function withdraw()\n        whenNotPaused\n        isHuman\n        public\n    {\n        uint256 plyLeftDividend = getPlayerLeftDividend(msg.sender);\n        if (plyLeftDividend > 0) {\n            msg.sender.transfer(plyLeftDividend);\n            playersWithdrew_[msg.sender] = (playersWithdrew_[msg.sender]).add(plyLeftDividend);\n        }\n        emit Withdrew(msg.sender, plyLeftDividend);\n    }\n\n    /**\n     * @dev get player dividend by round id.\n     */\n    function getPlayerRoundDividend(address _plyAddr, uint256 _roundId)\n        public\n        view\n        returns(uint256)\n    {\n        require(_roundId > 0 && _roundId <= roundIds_.length, 'invalid round id.');\n\n        RoundInfo memory roundInfo = roundsInfo_[_roundId];\n        uint256 plyRoundBBT = BBT.balanceOfAt(_plyAddr, roundInfo.bbtSnapshotId);\n        return plyRoundBBT.mul(getRoundDividendPerBBTHelper(_roundId));\n    }\n\n    function getPlayerTotalDividend(address _plyAddr)\n        public\n        view\n        returns(uint256)\n    {\n        uint256 plyTotalDividend;\n        for (uint256 i = 0; i < roundIds_.length; i++) {\n            uint256 roundId = roundIds_[i];\n            plyTotalDividend = plyTotalDividend.add(getPlayerRoundDividend(_plyAddr, roundId));\n        }\n        return plyTotalDividend;\n    }\n\n    function getPlayerLeftDividend(address _plyAddr)\n        public\n        view\n        returns(uint256)\n    {\n        return (getPlayerTotalDividend(_plyAddr)).sub(playersWithdrew_[_plyAddr]);\n    }\n\n    /**\n     * @dev calculate dividend per BBT by round id.\n     */\n    function getRoundDividendPerBBTHelper(uint256 _roundId)\n        internal\n        view\n        returns(uint256)\n    {\n        RoundInfo memory roundInfo = roundsInfo_[_roundId];\n\n        if (roundInfo.dividend == 0)\n            return 0;\n\n        uint256 circulationAtSnapshot = BBT.circulationAt(roundInfo.bbtSnapshotId);\n        return (roundInfo.dividend).div(circulationAtSnapshot);\n    }\n}",
  "sourcePath": "/Volumes/Code/data/www/bonbon_contract/contracts/project_a/Dividend.sol",
  "compiler": {
    "name": "solc",
    "version": "0.4.24+commit.e67f0147.Emscripten.clang"
  },
  "schemaVersion": "2.0.1",
  "updatedAt": "2018-09-20T07:42:47.934Z"
}