{
  "contractName": "Dividend",
  "abi": [
    {
      "constant": true,
      "inputs": [
        {
          "name": "",
          "type": "uint256"
        }
      ],
      "name": "currentRound_",
      "outputs": [
        {
          "name": "roundId",
          "type": "uint256"
        },
        {
          "name": "dividend",
          "type": "uint256"
        },
        {
          "name": "isEnded",
          "type": "bool"
        }
      ],
      "payable": false,
      "stateMutability": "view",
      "type": "function"
    },
    {
      "constant": true,
      "inputs": [
        {
          "name": "",
          "type": "uint256"
        }
      ],
      "name": "games",
      "outputs": [
        {
          "name": "",
          "type": "address"
        }
      ],
      "payable": false,
      "stateMutability": "view",
      "type": "function"
    },
    {
      "constant": true,
      "inputs": [
        {
          "name": "",
          "type": "uint256"
        }
      ],
      "name": "cumulativeDividend",
      "outputs": [
        {
          "name": "",
          "type": "uint256"
        }
      ],
      "payable": false,
      "stateMutability": "view",
      "type": "function"
    },
    {
      "constant": false,
      "inputs": [],
      "name": "unpause",
      "outputs": [],
      "payable": false,
      "stateMutability": "nonpayable",
      "type": "function"
    },
    {
      "constant": true,
      "inputs": [
        {
          "name": "",
          "type": "uint256"
        },
        {
          "name": "",
          "type": "address"
        }
      ],
      "name": "playersWithdrew_",
      "outputs": [
        {
          "name": "",
          "type": "uint256"
        }
      ],
      "payable": false,
      "stateMutability": "view",
      "type": "function"
    },
    {
      "constant": true,
      "inputs": [],
      "name": "paused",
      "outputs": [
        {
          "name": "",
          "type": "bool"
        }
      ],
      "payable": false,
      "stateMutability": "view",
      "type": "function"
    },
    {
      "constant": false,
      "inputs": [],
      "name": "renounceOwnership",
      "outputs": [],
      "payable": false,
      "stateMutability": "nonpayable",
      "type": "function"
    },
    {
      "constant": false,
      "inputs": [],
      "name": "pause",
      "outputs": [],
      "payable": false,
      "stateMutability": "nonpayable",
      "type": "function"
    },
    {
      "constant": true,
      "inputs": [],
      "name": "owner",
      "outputs": [
        {
          "name": "",
          "type": "address"
        }
      ],
      "payable": false,
      "stateMutability": "view",
      "type": "function"
    },
    {
      "constant": true,
      "inputs": [
        {
          "name": "",
          "type": "uint256"
        },
        {
          "name": "",
          "type": "uint256"
        }
      ],
      "name": "roundsInfo_",
      "outputs": [
        {
          "name": "bbtSnapshotId",
          "type": "uint256"
        },
        {
          "name": "dividend",
          "type": "uint256"
        }
      ],
      "payable": false,
      "stateMutability": "view",
      "type": "function"
    },
    {
      "constant": true,
      "inputs": [
        {
          "name": "",
          "type": "uint256"
        },
        {
          "name": "",
          "type": "uint256"
        }
      ],
      "name": "roundIds_",
      "outputs": [
        {
          "name": "",
          "type": "uint256"
        }
      ],
      "payable": false,
      "stateMutability": "view",
      "type": "function"
    },
    {
      "constant": false,
      "inputs": [
        {
          "name": "_newOwner",
          "type": "address"
        }
      ],
      "name": "transferOwnership",
      "outputs": [],
      "payable": false,
      "stateMutability": "nonpayable",
      "type": "function"
    },
    {
      "inputs": [
        {
          "name": "_bbtAddress",
          "type": "address"
        }
      ],
      "payable": false,
      "stateMutability": "nonpayable",
      "type": "constructor"
    },
    {
      "anonymous": false,
      "inputs": [
        {
          "indexed": true,
          "name": "_gameId",
          "type": "uint256"
        },
        {
          "indexed": true,
          "name": "_from",
          "type": "address"
        },
        {
          "indexed": true,
          "name": "_round",
          "type": "uint256"
        },
        {
          "indexed": false,
          "name": "_value",
          "type": "uint256"
        }
      ],
      "name": "Deposited",
      "type": "event"
    },
    {
      "anonymous": false,
      "inputs": [
        {
          "indexed": true,
          "name": "_gameId",
          "type": "uint256"
        },
        {
          "indexed": true,
          "name": "_roundId",
          "type": "uint256"
        },
        {
          "indexed": false,
          "name": "bbtSnapshotId",
          "type": "uint256"
        },
        {
          "indexed": false,
          "name": "dividend",
          "type": "uint256"
        }
      ],
      "name": "Distributed",
      "type": "event"
    },
    {
      "anonymous": false,
      "inputs": [
        {
          "indexed": true,
          "name": "_gameId",
          "type": "uint256"
        },
        {
          "indexed": true,
          "name": "_from",
          "type": "address"
        },
        {
          "indexed": false,
          "name": "_value",
          "type": "uint256"
        }
      ],
      "name": "Withdrew",
      "type": "event"
    },
    {
      "anonymous": false,
      "inputs": [],
      "name": "Pause",
      "type": "event"
    },
    {
      "anonymous": false,
      "inputs": [],
      "name": "Unpause",
      "type": "event"
    },
    {
      "anonymous": false,
      "inputs": [
        {
          "indexed": true,
          "name": "previousOwner",
          "type": "address"
        }
      ],
      "name": "OwnershipRenounced",
      "type": "event"
    },
    {
      "anonymous": false,
      "inputs": [
        {
          "indexed": true,
          "name": "previousOwner",
          "type": "address"
        },
        {
          "indexed": true,
          "name": "newOwner",
          "type": "address"
        }
      ],
      "name": "OwnershipTransferred",
      "type": "event"
    },
    {
      "constant": true,
      "inputs": [
        {
          "name": "_gameAddress",
          "type": "address"
        }
      ],
      "name": "getGameId",
      "outputs": [
        {
          "name": "",
          "type": "uint256"
        }
      ],
      "payable": false,
      "stateMutability": "view",
      "type": "function"
    },
    {
      "constant": true,
      "inputs": [],
      "name": "getGameCount",
      "outputs": [
        {
          "name": "",
          "type": "uint256"
        }
      ],
      "payable": false,
      "stateMutability": "view",
      "type": "function"
    },
    {
      "constant": false,
      "inputs": [
        {
          "name": "_gameAddress",
          "type": "address"
        }
      ],
      "name": "register",
      "outputs": [
        {
          "name": "",
          "type": "uint256"
        }
      ],
      "payable": false,
      "stateMutability": "nonpayable",
      "type": "function"
    },
    {
      "constant": false,
      "inputs": [
        {
          "name": "_gameAddress",
          "type": "address"
        }
      ],
      "name": "unRegister",
      "outputs": [
        {
          "name": "",
          "type": "bool"
        }
      ],
      "payable": false,
      "stateMutability": "nonpayable",
      "type": "function"
    },
    {
      "constant": true,
      "inputs": [
        {
          "name": "_gameAddress",
          "type": "address"
        }
      ],
      "name": "hasRegistered",
      "outputs": [
        {
          "name": "",
          "type": "bool"
        }
      ],
      "payable": false,
      "stateMutability": "view",
      "type": "function"
    },
    {
      "constant": true,
      "inputs": [
        {
          "name": "_gameId",
          "type": "uint256"
        }
      ],
      "name": "getRoundsCount",
      "outputs": [
        {
          "name": "",
          "type": "uint256"
        }
      ],
      "payable": false,
      "stateMutability": "view",
      "type": "function"
    },
    {
      "constant": false,
      "inputs": [
        {
          "name": "_round",
          "type": "uint256"
        }
      ],
      "name": "deposit",
      "outputs": [
        {
          "name": "",
          "type": "bool"
        }
      ],
      "payable": true,
      "stateMutability": "payable",
      "type": "function"
    },
    {
      "constant": false,
      "inputs": [
        {
          "name": "_round",
          "type": "uint256"
        }
      ],
      "name": "distribute",
      "outputs": [
        {
          "name": "",
          "type": "bool"
        }
      ],
      "payable": false,
      "stateMutability": "nonpayable",
      "type": "function"
    },
    {
      "constant": false,
      "inputs": [
        {
          "name": "_gameId",
          "type": "uint256"
        }
      ],
      "name": "withdraw",
      "outputs": [],
      "payable": false,
      "stateMutability": "nonpayable",
      "type": "function"
    },
    {
      "constant": true,
      "inputs": [
        {
          "name": "_gameId",
          "type": "uint256"
        },
        {
          "name": "_plyAddr",
          "type": "address"
        },
        {
          "name": "_roundId",
          "type": "uint256"
        }
      ],
      "name": "getPlayerRoundDividend",
      "outputs": [
        {
          "name": "",
          "type": "uint256"
        }
      ],
      "payable": false,
      "stateMutability": "view",
      "type": "function"
    },
    {
      "constant": true,
      "inputs": [
        {
          "name": "_gameId",
          "type": "uint256"
        },
        {
          "name": "_plyAddr",
          "type": "address"
        }
      ],
      "name": "getPlayerTotalDividend",
      "outputs": [
        {
          "name": "",
          "type": "uint256"
        }
      ],
      "payable": false,
      "stateMutability": "view",
      "type": "function"
    },
    {
      "constant": true,
      "inputs": [
        {
          "name": "_gameId",
          "type": "uint256"
        },
        {
          "name": "_plyAddr",
          "type": "address"
        }
      ],
      "name": "getPlayerLeftDividend",
      "outputs": [
        {
          "name": "",
          "type": "uint256"
        }
      ],
      "payable": false,
      "stateMutability": "view",
      "type": "function"
    }
  ],
  "bytecode": "0x60806040526000805460a060020a60ff021916905534801561002057600080fd5b50604051602080611812833981016040525160008054600160a060020a03199081163317825560018054600160a060020a039094169382169390931783556007805493840181559091527fa66cc928b5edb82af9bd49922954155ab7b0942694bea4ce44661d9a8736c6889091018054909116905561176e806100a46000396000f30060806040526004361061013d5763ffffffff7c01000000000000000000000000000000000000000000000000000000006000350416631046bbd98114610142578063117a5b901461017a57806312d85604146101ae57806327c95625146101d85780632e1a7d4d1461020d5780633f4ba83a146102275780634420e4861461023c5780634aafc45e1461025d57806353047986146102845780635c975abb146102a8578063715018a6146102bd578063788fc711146102d25780638456cb59146102f65780638da5cb5b1461030b57806391c05b0b14610320578063a0d0352614610338578063abfd6da514610359578063b62d80441461037a578063b6b55f25146103ae578063cd0729eb146103b9578063d7535b2f146103d4578063e87c0ee6146103ec578063f2fde38b14610401578063fd08655814610422575b600080fd5b34801561014e57600080fd5b5061015a600435610446565b604080519384526020840192909252151582820152519081900360600190f35b34801561018657600080fd5b50610192600435610469565b60408051600160a060020a039092168252519081900360200190f35b3480156101ba57600080fd5b506101c6600435610491565b60408051918252519081900360200190f35b3480156101e457600080fd5b506101f9600160a060020a03600435166104a3565b604080519115158252519081900360200190f35b34801561021957600080fd5b50610225600435610599565b005b34801561023357600080fd5b5061022561071b565b34801561024857600080fd5b506101c6600160a060020a0360043516610791565b34801561026957600080fd5b506101c6600435600160a060020a0360243516604435610888565b34801561029057600080fd5b506101c6600435600160a060020a03602435166109d0565b3480156102b457600080fd5b506101f96109ed565b3480156102c957600080fd5b506102256109fd565b3480156102de57600080fd5b506101c6600435600160a060020a0360243516610a69565b34801561030257600080fd5b50610225610b31565b34801561031757600080fd5b50610192610bac565b34801561032c57600080fd5b506101f9600435610bbb565b34801561034457600080fd5b506101f9600160a060020a0360043516610f95565b34801561036557600080fd5b506101c6600160a060020a0360043516610fbc565b34801561038657600080fd5b50610395600435602435611017565b6040805192835260208301919091528051918290030190f35b6101f960043561103b565b3480156103c557600080fd5b506101c6600435602435611409565b3480156103e057600080fd5b506101c6600435611439565b3480156103f857600080fd5b506101c6611499565b34801561040d57600080fd5b50610225600160a060020a036004351661149f565b34801561042e57600080fd5b506101c6600435600160a060020a03602435166114c2565b600260208190526000918252604090912080546001820154919092015460ff1683565b600780548290811061047757fe5b600091825260209091200154600160a060020a0316905081565b60066020526000908152604090205481565b600080548190600160a060020a031633146104bd57600080fd5b60005460a060020a900460ff16156104d457600080fd5b8260006104e082610f95565b905060018115151461053c576040805160e560020a62461bcd02815260206004820152600f60248201527f6e6f7420726567697374657265642e0000000000000000000000000000000000604482015290519081900360640190fd5b61054585610fbc565b9250600060078481548110151561055857fe5b6000918252602090912001805473ffffffffffffffffffffffffffffffffffffffff1916600160a060020a0392909216919091179055506001949350505050565b600754600090829081106105e5576040805160e560020a62461bcd02815260206004820152600f6024820152600080516020611723833981519152604482015290519081900360640190fd5b60005460a060020a900460ff16156105fc57600080fd5b33803b8015610655576040805160e560020a62461bcd02815260206004820152601160248201527f736f7272792068756d616e73206f6e6c79000000000000000000000000000000604482015290519081900360640190fd5b61065f85336114c2565b935060008411156106dd57604051339085156108fc029086906000818181858888f19350505050158015610697573d6000803e3d6000fd5b5060008581526003602090815260408083203384529091529020546106c2908563ffffffff61155316565b60008681526003602090815260408083203384529091529020555b604080518581529051339187917ff4c56bb5a568ebcb1087fa42400137fd62e67119180ddfe97906e108ecc0e6339181900360200190a35050505050565b600054600160a060020a0316331461073257600080fd5b60005460a060020a900460ff16151561074a57600080fd5b6000805474ff0000000000000000000000000000000000000000191681556040517f7805862f689e2f13df9f062ff482ad3ad112aca9e0847911ed832e158c525b339190a1565b600080548190600160a060020a031633146107ab57600080fd5b60005460a060020a900460ff16156107c257600080fd5b6107cb83610f95565b90508015610823576040805160e560020a62461bcd02815260206004820152601360248201527f616c726561647920726567697374657265642e00000000000000000000000000604482015290519081900360640190fd5b6007805460018101825560008290527fa66cc928b5edb82af9bd49922954155ab7b0942694bea4ce44661d9a8736c68801805473ffffffffffffffffffffffffffffffffffffffff1916600160a060020a038616179055546000190191505b50919050565b60075460009081908190869081106108d8576040805160e560020a62461bcd02815260206004820152600f6024820152600080516020611723833981519152604482015290519081900360640190fd5b60008781526004602081815260408084208985528252808420600154815483517f4ee2cd7e000000000000000000000000000000000000000000000000000000008152600160a060020a038e811697820197909752602481019190915292519198506109a995670de0b6b3a76400009590911693634ee2cd7e936044808201949293918390030190829087803b15801561097157600080fd5b505af1158015610985573d6000803e3d6000fd5b505050506040513d602081101561099b57600080fd5b50519063ffffffff61156616565b91506109c56109b8888761157b565b839063ffffffff61165316565b979650505050505050565b600360209081526000928352604080842090915290825290205481565b60005460a060020a900460ff1681565b600054600160a060020a03163314610a1457600080fd5b60008054604051600160a060020a03909116917ff8df31144d9c2f0f6b59d69b8b98abd5459d07f2742c4df920b25aae33c6482091a26000805473ffffffffffffffffffffffffffffffffffffffff19169055565b6000806000808560078054905081101515610abc576040805160e560020a62461bcd02815260206004820152600f6024820152600080516020611723833981519152604482015290519081900360640190fd5b600092505b600087815260056020526040902054831015610b26576000878152600560205260409020805484908110610af157fe5b90600052602060002001549150610b19610b0c888885610888565b859063ffffffff61155316565b9350600190920191610ac1565b509195945050505050565b600054600160a060020a03163314610b4857600080fd5b60005460a060020a900460ff1615610b5f57600080fd5b6000805474ff0000000000000000000000000000000000000000191660a060020a1781556040517f6985a02210a168e66602d3235cb6db0e70f92b3ba4d376a33c0f3d9434bff6259190a1565b600054600160a060020a031681565b600080610bc661170b565b336000610bd282610f95565b9050600181151514610c2e576040805160e560020a62461bcd02815260206004820152600f60248201527f6e6f7420726567697374657265642e0000000000000000000000000000000000604482015290519081900360640190fd5b60005460a060020a900460ff1615610c4557600080fd5b610c4e33610fbc565b9350600086118015610c6e57506000848152600260205260409020548610155b1515610cea576040805160e560020a62461bcd02815260206004820152602b60248201527f63616e206e6f742064697374726962757465206469766964656e6420666f722060448201527f7061737420726f756e642e000000000000000000000000000000000000000000606482015290519081900360840190fd5b600084815260026020526040902054861415610d96576000848152600260208190526040909120015460ff1615610d91576040805160e560020a62461bcd02815260206004820152602f60248201527f7468697320726f756e642068617320656e6465642e2063616e206e6f7420646960448201527f737472696275746520616761696e2e0000000000000000000000000000000000606482015290519081900360840190fd5b610e41565b6000848152600260208190526040909120015460ff161515600114610e2b576040805160e560020a62461bcd02815260206004820152603160248201527f6c61737420726f756e64206e6f7420656e642e2063616e206e6f74206469737460448201527f726962757465206e657720726f756e642e000000000000000000000000000000606482015290519081900360840190fd5b6000848152600260205260408120878155600101555b600160009054906101000a9004600160a060020a0316600160a060020a0316639711715a6040518163ffffffff167c0100000000000000000000000000000000000000000000000000000000028152600401602060405180830381600087803b158015610ead57600080fd5b505af1158015610ec1573d6000803e3d6000fd5b505050506040513d6020811015610ed757600080fd5b5051835260008481526002602081815260408084206001808201548985019081528a8752600485528387208354885285528387208a5181558151908301558a87526005855283872086865283548154808501835591895286892090910155958a9052938101805460ff19169094179093559154865193518351948552918401919091528151909287927ff7576d8c2653e9d07af5ef229acf59b339e327d4e0eaddb4a96615534cf148f892918290030190a350600195945050505050565b600080610fa183610fbc565b9050801515610fb35760009150610882565b50600192915050565b6000805b60075481101561100e5782600160a060020a0316600782815481101515610fe357fe5b600091825260209091200154600160a060020a0316141561100657809150610882565b600101610fc0565b50600092915050565b60046020908152600092835260408084209091529082529020805460019091015482565b60008033600061104a82610f95565b90506001811515146110a6576040805160e560020a62461bcd02815260206004820152600f60248201527f6e6f7420726567697374657265642e0000000000000000000000000000000000604482015290519081900360640190fd5b60005460a060020a900460ff16156110bd57600080fd5b6110c633610fbc565b925060003411611146576040805160e560020a62461bcd02815260206004820152602360248201527f6465706f73697420616d6f756e742073686f756c64206e6f7420626520656d7060448201527f74792e0000000000000000000000000000000000000000000000000000000000606482015290519081900360840190fd5b60008511801561116457506000838152600260205260409020548510155b15156111e0576040805160e560020a62461bcd02815260206004820152602860248201527f63616e206e6f74206465706f736974206469766964656e6420666f722070617360448201527f7420726f756e642e000000000000000000000000000000000000000000000000606482015290519081900360840190fd5b6000838152600260205260409020548514156112c0576000838152600260208190526040909120015460ff1615611287576040805160e560020a62461bcd02815260206004820152602660248201527f7468697320726f756e642068617320656e6465642e2063616e206e6f7420646560448201527f706f7369742e0000000000000000000000000000000000000000000000000000606482015290519081900360840190fd5b6000838152600260205260409020600101546112a9903463ffffffff61155316565b600084815260026020526040902060010155611391565b600083815260026020526040812054111561136a576000838152600260208190526040909120015460ff16151560011461136a576040805160e560020a62461bcd02815260206004820152602e60248201527f6c61737420726f756e64206e6f7420656e642e2063616e206e6f74206465706f60448201527f736974206e657720726f756e642e000000000000000000000000000000000000606482015290519081900360840190fd5b6000838152600260208190526040909120868155908101805460ff19169055346001909101555b6000838152600660205260409020546113b0903463ffffffff61155316565b60008481526006602090815260409182902092909255805134815290518792339287927fad5b4075b97dbf75ad5c78f7afac948e4ae611c4fdf2825e2ce3c6c96925bf3b929181900390910190a4506001949350505050565b60056020528160005260406000208181548110151561142457fe5b90600052602060002001600091509150505481565b60075460009082908110611485576040805160e560020a62461bcd02815260206004820152600f6024820152600080516020611723833981519152604482015290519081900360640190fd5b505060009081526005602052604090205490565b60075490565b600054600160a060020a031633146114b657600080fd5b6114bf8161167c565b50565b6007546000908390811061150e576040805160e560020a62461bcd02815260206004820152600f6024820152600080516020611723833981519152604482015290519081900360640190fd5b6000848152600360209081526040808320600160a060020a038716845290915290205461154b9061153f8686610a69565b9063ffffffff6116f916565b949350505050565b8181018281101561156057fe5b92915050565b6000818381151561157357fe5b049392505050565b600082815260046020908152604080832084845290915281206001810154829015156115aa576000925061164b565b6001548254604080517f735b81ab00000000000000000000000000000000000000000000000000000000815260048101929092525161162192670de0b6b3a764000092600160a060020a039091169163735b81ab916024808201926020929091908290030181600087803b15801561097157600080fd5b9050801515611633576000925061164b565b6001820154611648908263ffffffff61156616565b92505b505092915050565b600082151561166457506000611560565b5081810281838281151561167457fe5b041461156057fe5b600160a060020a038116151561169157600080fd5b60008054604051600160a060020a03808516939216917f8be0079c531659141344cd1fd0a4f28419497f9722a3daafe3b4186f6b6457e091a36000805473ffffffffffffffffffffffffffffffffffffffff1916600160a060020a0392909216919091179055565b60008282111561170557fe5b50900390565b6040805180820190915260008082526020820152905600696e76616c69642067616d6549642e0000000000000000000000000000000000a165627a7a72305820c97848a5bf95711e8d0602d7669941580042219aab0b46e9d373a218cff9a9630029",
  "source": "pragma solidity ^0.4.24;\n\nimport 'openzeppelin-solidity/contracts/lifecycle/Pausable.sol';\nimport 'openzeppelin-solidity/contracts/math/SafeMath.sol';\n\ninterface BBTxInterface {\n    function snapshot() external returns(uint256);\n    function circulationAt(uint256 _snapshotId) external view returns(uint256);\n    function balanceOfAt(address _account, uint256 _snapshotId) external view returns (uint256);\n}\n\ncontract Dividend is Pausable {\n    using SafeMath for *;\n\n    struct RoundInfo {\n        uint256 bbtSnapshotId;\n        uint256 dividend;\n    }\n\n    struct CurrentRoundInfo {\n        uint256 roundId;\n        uint256 dividend;\n        bool isEnded;   // default is false\n    }\n\n    BBTxInterface private BBT;   // BBT contract\n    mapping (uint256 => CurrentRoundInfo) public currentRound_;  // (gameId => current round information)\n    mapping (uint256 => mapping(address => uint256)) public playersWithdrew_;    // (gameId => plyAddr => withdrewEth)\n    mapping (uint256 => mapping(uint256 => RoundInfo)) public roundsInfo_;  // gameId => roundId => RoundInfo\n    mapping (uint256 => uint256[]) public roundIds_;    //gameId => roundIds\n    mapping (uint256 => uint256) public cumulativeDividend;  // cumulative total dividend;\n    address[] public games;    //registered games (gameID => gameContractAddress)\n\n    event Deposited(uint256 indexed _gameId, address indexed _from, uint256 indexed _round, uint256 _value);\n    event Distributed(uint256 indexed _gameId, uint256 indexed _roundId, uint256 bbtSnapshotId, uint256 dividend);\n    event Withdrew(uint256 indexed _gameId, address indexed _from, uint256 _value);\n\n    constructor(address _bbtAddress) public {\n        BBT = BBTxInterface(_bbtAddress);\n        games.push(address(0)); //map gameId 0 to address 0x0\n    }\n\n    /**\n     * @dev prevents contracts from interacting with fomo3d\n     */\n    modifier isHuman() {\n        address _addr = msg.sender;\n        uint256 _codeLength;\n\n        assembly {_codeLength := extcodesize(_addr)}\n        require(_codeLength == 0, \"sorry humans only\");\n        _;\n    }\n\n    modifier onlyRegistered(address _gameAddress) {\n        bool ifRegistered = hasRegistered(_gameAddress);\n        require(ifRegistered == true, 'not registered.');\n        _;\n    }\n\n    modifier validGameId(uint256 _gameId) {\n        require(_gameId < games.length, 'invalid gameId.');\n        _;\n    }\n\n    /**\n    * @dev fetch gameId by gameAddress.\n    * @param _gameAddress game contract address.\n    * @return return registered game id, or 0 if not registered.\n    */\n    function getGameId(address _gameAddress) public view returns(uint256) {\n        for (uint256 i = 0; i < games.length; i++) {\n            if (games[i] == _gameAddress)\n                return i;\n        }\n        return 0;\n    }\n\n    /**\n    * @dev get total registered game count.\n    */\n    function getGameCount() public view returns(uint256) {\n        return games.length;\n    }\n\n    /**\n    * @dev register game.\n    * @param _gameAddress game contract address.\n    * @return return registered game id.\n    */\n    function register(address _gameAddress)\n        onlyOwner\n        whenNotPaused\n        public\n        returns(uint256)\n    {\n        bool ifRegistered = hasRegistered(_gameAddress);\n        require(ifRegistered == false, 'already registered.');\n        games.push(_gameAddress);\n        return games.length - 1;\n    }\n\n    /**\n    * @dev unregister game.\n    * @param _gameAddress game contract address.\n    * @return return bool.\n    */\n    function unRegister(address _gameAddress)\n        onlyOwner\n        whenNotPaused\n        onlyRegistered(_gameAddress)\n        public\n        returns(bool)\n    {\n        uint256 gameId = getGameId(_gameAddress);\n        games[gameId] = address(0);\n        return true;\n    }\n\n    /**\n    * @dev check if the given address already register.\n    * @return return true if registered.\n    */\n    function hasRegistered(address _gameAddress) public view returns(bool) {\n        uint256 gameId = getGameId(_gameAddress);\n        if (gameId == 0)\n            return false;\n        return true;\n    }\n\n    /**\n     * @dev get count of game rounds\n     */\n    function getRoundsCount(uint256 _gameId)\n        validGameId(_gameId)\n        public\n        view\n        returns(uint256)\n    {\n        return roundIds_[_gameId].length;\n    }\n\n    /**\n     * @dev deposit dividend eth in.\n     * @param _round which round the dividend for.\n     * @return deposit success.\n     */\n    function deposit(uint256 _round)\n        onlyRegistered(msg.sender)\n        whenNotPaused\n        public\n        payable\n        returns(bool)\n    {\n        uint256 gameId = getGameId(msg.sender);\n        require(msg.value > 0, \"deposit amount should not be empty.\");\n        require(_round > 0 && _round >= currentRound_[gameId].roundId, \"can not deposit dividend for past round.\");\n\n        if (_round == currentRound_[gameId].roundId) {\n            require(currentRound_[gameId].isEnded == false, \"this round has ended. can not deposit.\");\n            currentRound_[gameId].dividend = (currentRound_[gameId].dividend).add(msg.value);\n        } else {    // new round\n            if (currentRound_[gameId].roundId > 0)  //when first deposit come in, don't check isEnded.\n                require(currentRound_[gameId].isEnded == true, \"last round not end. can not deposit new round.\");\n            currentRound_[gameId].roundId = _round;\n            currentRound_[gameId].isEnded = false;\n            currentRound_[gameId].dividend = msg.value;\n        }\n\n        cumulativeDividend[gameId] = cumulativeDividend[gameId].add(msg.value);\n\n        emit Deposited(gameId, msg.sender, _round, msg.value);\n        return true;\n    }\n\n    /**\n     * @dev distribute dividend to BBT holder.\n     * @param _round which round the distribution for.\n     * @return distributed success.\n     */\n    function distribute(uint256 _round)\n        onlyRegistered(msg.sender)\n        whenNotPaused\n        public\n        returns(bool)\n    {\n        uint256 gameId = getGameId(msg.sender);\n        require(_round > 0 && _round >= currentRound_[gameId].roundId, \"can not distribute dividend for past round.\");\n\n        if (_round == currentRound_[gameId].roundId) {\n            require(currentRound_[gameId].isEnded == false, \"this round has ended. can not distribute again.\");\n        } else {    //when this round has no deposit\n            require(currentRound_[gameId].isEnded == true, \"last round not end. can not distribute new round.\");\n            currentRound_[gameId].roundId = _round;\n            currentRound_[gameId].dividend = 0;\n        }\n\n        RoundInfo memory roundInfo;\n        roundInfo.bbtSnapshotId = BBT.snapshot();\n        roundInfo.dividend = currentRound_[gameId].dividend;\n        roundsInfo_[gameId][currentRound_[gameId].roundId] = roundInfo;\n        roundIds_[gameId].push(currentRound_[gameId].roundId);\n\n        currentRound_[gameId].isEnded = true;   //mark this round is ended\n\n        emit Distributed(gameId, currentRound_[gameId].roundId, roundInfo.bbtSnapshotId, roundInfo.dividend);\n        return true;\n    }\n\n    /**\n     * @dev player withdraw dividend out.\n     */\n    function withdraw(uint256 _gameId)\n        validGameId(_gameId)\n        whenNotPaused\n        isHuman\n        public\n    {\n        uint256 plyLeftDividend = getPlayerLeftDividend(_gameId, msg.sender);\n        if (plyLeftDividend > 0) {\n            (msg.sender).transfer(plyLeftDividend);\n            playersWithdrew_[_gameId][msg.sender] = (playersWithdrew_[_gameId][msg.sender]).add(plyLeftDividend);\n        }\n        emit Withdrew(_gameId, msg.sender, plyLeftDividend);\n    }\n\n    /**\n     * @dev get player dividend by round id.\n     */\n    function getPlayerRoundDividend(uint256 _gameId, address _plyAddr, uint256 _roundId)\n        validGameId(_gameId)\n        public\n        view\n        returns(uint256)\n    {\n        RoundInfo storage roundInfo = roundsInfo_[_gameId][_roundId];\n        // cause circulation divide token decimal, so the balance should divide too.\n        uint256 plyRoundBBT = (BBT.balanceOfAt(_plyAddr, roundInfo.bbtSnapshotId)).div(1e18);\n        return plyRoundBBT.mul(getRoundDividendPerBBTHelper(_gameId, _roundId));\n    }\n\n    function getPlayerTotalDividend(uint256 _gameId, address _plyAddr)\n        validGameId(_gameId)\n        public\n        view\n        returns(uint256)\n    {\n        uint256 plyTotalDividend;\n        for (uint256 i = 0; i < roundIds_[_gameId].length; i++) {\n            uint256 roundId = roundIds_[_gameId][i];\n            plyTotalDividend = plyTotalDividend.add(getPlayerRoundDividend(_gameId, _plyAddr, roundId));\n        }\n        return plyTotalDividend;\n    }\n\n    function getPlayerLeftDividend(uint256 _gameId, address _plyAddr)\n        validGameId(_gameId)\n        public\n        view\n        returns(uint256)\n    {\n        return (getPlayerTotalDividend(_gameId, _plyAddr)).sub(playersWithdrew_[_gameId][_plyAddr]);\n    }\n\n    /**\n     * @dev calculate dividend per BBT by round id.\n     */\n    function getRoundDividendPerBBTHelper(uint256 _gameId, uint256 _roundId)\n        internal\n        view\n        returns(uint256)\n    {\n        RoundInfo storage roundInfo = roundsInfo_[_gameId][_roundId];\n\n        if (roundInfo.dividend == 0)\n            return 0;\n\n        // must divide token decimal, or circulation is greater than dividend,\n        // the result will be 0, not 0.xxx(cause solidity not support float.)\n        // and the func which rely on this helper will get the result 0 too.\n        uint256 circulationAtSnapshot = (BBT.circulationAt(roundInfo.bbtSnapshotId)).div(1e18);\n        if (circulationAtSnapshot == 0)\n            return 0;\n        return (roundInfo.dividend).div(circulationAtSnapshot);\n    }\n}",
  "sourcePath": "/Volumes/Code/data/www/bonbon_contract/contracts/project_a/Dividend.sol",
  "compiler": {
    "name": "solc",
    "version": "0.4.24+commit.e67f0147.Emscripten.clang"
  },
  "schemaVersion": "2.0.1",
  "updatedAt": "2018-10-19T14:42:20.067Z"
}