{
  "contractName": "DragonCityCoin",
  "abi": [
    {
      "constant": true,
      "inputs": [],
      "name": "name",
      "outputs": [
        {
          "name": "",
          "type": "string"
        }
      ],
      "payable": false,
      "stateMutability": "view",
      "type": "function"
    },
    {
      "constant": false,
      "inputs": [
        {
          "name": "_spender",
          "type": "address"
        },
        {
          "name": "_value",
          "type": "uint256"
        }
      ],
      "name": "approve",
      "outputs": [
        {
          "name": "",
          "type": "bool"
        }
      ],
      "payable": false,
      "stateMutability": "nonpayable",
      "type": "function"
    },
    {
      "constant": true,
      "inputs": [],
      "name": "totalSupply",
      "outputs": [
        {
          "name": "",
          "type": "uint256"
        }
      ],
      "payable": false,
      "stateMutability": "view",
      "type": "function"
    },
    {
      "constant": false,
      "inputs": [
        {
          "name": "_from",
          "type": "address"
        },
        {
          "name": "_to",
          "type": "address"
        },
        {
          "name": "_value",
          "type": "uint256"
        }
      ],
      "name": "transferFrom",
      "outputs": [
        {
          "name": "",
          "type": "bool"
        }
      ],
      "payable": false,
      "stateMutability": "nonpayable",
      "type": "function"
    },
    {
      "constant": true,
      "inputs": [],
      "name": "decimals",
      "outputs": [
        {
          "name": "",
          "type": "uint8"
        }
      ],
      "payable": false,
      "stateMutability": "view",
      "type": "function"
    },
    {
      "constant": false,
      "inputs": [],
      "name": "unpause",
      "outputs": [],
      "payable": false,
      "stateMutability": "nonpayable",
      "type": "function"
    },
    {
      "constant": true,
      "inputs": [],
      "name": "paused",
      "outputs": [
        {
          "name": "",
          "type": "bool"
        }
      ],
      "payable": false,
      "stateMutability": "view",
      "type": "function"
    },
    {
      "constant": false,
      "inputs": [
        {
          "name": "_spender",
          "type": "address"
        },
        {
          "name": "_subtractedValue",
          "type": "uint256"
        }
      ],
      "name": "decreaseApproval",
      "outputs": [
        {
          "name": "success",
          "type": "bool"
        }
      ],
      "payable": false,
      "stateMutability": "nonpayable",
      "type": "function"
    },
    {
      "constant": true,
      "inputs": [
        {
          "name": "_owner",
          "type": "address"
        }
      ],
      "name": "balanceOf",
      "outputs": [
        {
          "name": "",
          "type": "uint256"
        }
      ],
      "payable": false,
      "stateMutability": "view",
      "type": "function"
    },
    {
      "constant": false,
      "inputs": [],
      "name": "renounceOwnership",
      "outputs": [],
      "payable": false,
      "stateMutability": "nonpayable",
      "type": "function"
    },
    {
      "constant": false,
      "inputs": [],
      "name": "pause",
      "outputs": [],
      "payable": false,
      "stateMutability": "nonpayable",
      "type": "function"
    },
    {
      "constant": true,
      "inputs": [],
      "name": "owner",
      "outputs": [
        {
          "name": "",
          "type": "address"
        }
      ],
      "payable": false,
      "stateMutability": "view",
      "type": "function"
    },
    {
      "constant": true,
      "inputs": [],
      "name": "symbol",
      "outputs": [
        {
          "name": "",
          "type": "string"
        }
      ],
      "payable": false,
      "stateMutability": "view",
      "type": "function"
    },
    {
      "constant": true,
      "inputs": [
        {
          "name": "",
          "type": "address"
        }
      ],
      "name": "vaults",
      "outputs": [
        {
          "name": "amount",
          "type": "uint256"
        },
        {
          "name": "acquiredTime",
          "type": "uint256"
        }
      ],
      "payable": false,
      "stateMutability": "view",
      "type": "function"
    },
    {
      "constant": false,
      "inputs": [
        {
          "name": "_to",
          "type": "address"
        },
        {
          "name": "_value",
          "type": "uint256"
        }
      ],
      "name": "transfer",
      "outputs": [
        {
          "name": "",
          "type": "bool"
        }
      ],
      "payable": false,
      "stateMutability": "nonpayable",
      "type": "function"
    },
    {
      "constant": false,
      "inputs": [
        {
          "name": "_spender",
          "type": "address"
        },
        {
          "name": "_addedValue",
          "type": "uint256"
        }
      ],
      "name": "increaseApproval",
      "outputs": [
        {
          "name": "success",
          "type": "bool"
        }
      ],
      "payable": false,
      "stateMutability": "nonpayable",
      "type": "function"
    },
    {
      "constant": true,
      "inputs": [
        {
          "name": "_owner",
          "type": "address"
        },
        {
          "name": "_spender",
          "type": "address"
        }
      ],
      "name": "allowance",
      "outputs": [
        {
          "name": "",
          "type": "uint256"
        }
      ],
      "payable": false,
      "stateMutability": "view",
      "type": "function"
    },
    {
      "constant": true,
      "inputs": [],
      "name": "coinsInVaults",
      "outputs": [
        {
          "name": "",
          "type": "uint256"
        }
      ],
      "payable": false,
      "stateMutability": "view",
      "type": "function"
    },
    {
      "constant": false,
      "inputs": [
        {
          "name": "_newOwner",
          "type": "address"
        }
      ],
      "name": "transferOwnership",
      "outputs": [],
      "payable": false,
      "stateMutability": "nonpayable",
      "type": "function"
    },
    {
      "inputs": [],
      "payable": false,
      "stateMutability": "nonpayable",
      "type": "constructor"
    },
    {
      "anonymous": false,
      "inputs": [
        {
          "indexed": true,
          "name": "to",
          "type": "address"
        },
        {
          "indexed": false,
          "name": "amount",
          "type": "uint256"
        }
      ],
      "name": "Acquired",
      "type": "event"
    },
    {
      "anonymous": false,
      "inputs": [],
      "name": "Pause",
      "type": "event"
    },
    {
      "anonymous": false,
      "inputs": [],
      "name": "Unpause",
      "type": "event"
    },
    {
      "anonymous": false,
      "inputs": [
        {
          "indexed": true,
          "name": "previousOwner",
          "type": "address"
        }
      ],
      "name": "OwnershipRenounced",
      "type": "event"
    },
    {
      "anonymous": false,
      "inputs": [
        {
          "indexed": true,
          "name": "previousOwner",
          "type": "address"
        },
        {
          "indexed": true,
          "name": "newOwner",
          "type": "address"
        }
      ],
      "name": "OwnershipTransferred",
      "type": "event"
    },
    {
      "anonymous": false,
      "inputs": [
        {
          "indexed": true,
          "name": "owner",
          "type": "address"
        },
        {
          "indexed": true,
          "name": "spender",
          "type": "address"
        },
        {
          "indexed": false,
          "name": "value",
          "type": "uint256"
        }
      ],
      "name": "Approval",
      "type": "event"
    },
    {
      "anonymous": false,
      "inputs": [
        {
          "indexed": true,
          "name": "from",
          "type": "address"
        },
        {
          "indexed": true,
          "name": "to",
          "type": "address"
        },
        {
          "indexed": false,
          "name": "value",
          "type": "uint256"
        }
      ],
      "name": "Transfer",
      "type": "event"
    },
    {
      "constant": false,
      "inputs": [],
      "name": "acquire",
      "outputs": [],
      "payable": false,
      "stateMutability": "nonpayable",
      "type": "function"
    },
    {
      "constant": false,
      "inputs": [
        {
          "name": "_to",
          "type": "address"
        },
        {
          "name": "_amount",
          "type": "uint256"
        }
      ],
      "name": "setVault",
      "outputs": [],
      "payable": false,
      "stateMutability": "nonpayable",
      "type": "function"
    }
  ],
  "bytecode": "0x60806040526003805460a060020a60ff0219169055620927c060045534801561002757600080fd5b5060038054600160a060020a03191633179055600454600155610ed68061004f6000396000f30060806040526004361061011c5763ffffffff7c010000000000000000000000000000000000000000000000000000000060003504166306fdde038114610121578063095ea7b3146101ab57806318160ddd146101e357806323b872dd1461020a578063313ce5671461023457806336f61bd91461025f5780633f4ba83a146102855780635c975abb1461029a57806366188463146102af57806370a08231146102d3578063715018a6146102f45780638456cb59146103095780638da5cb5b1461031e57806395d89b411461034f578063a622ee7c14610364578063a7134f731461039e578063a9059cbb146103b3578063d73dd623146103d7578063dd62ed3e146103fb578063dec3564814610422578063f2fde38b14610437575b600080fd5b34801561012d57600080fd5b50610136610458565b6040805160208082528351818301528351919283929083019185019080838360005b83811015610170578181015183820152602001610158565b50505050905090810190601f16801561019d5780820380516001836020036101000a031916815260200191505b509250505060405180910390f35b3480156101b757600080fd5b506101cf600160a060020a036004351660243561048f565b604080519115158252519081900360200190f35b3480156101ef57600080fd5b506101f86104ba565b60408051918252519081900360200190f35b34801561021657600080fd5b506101cf600160a060020a03600435811690602435166044356104c0565b34801561024057600080fd5b506102496104ed565b6040805160ff9092168252519081900360200190f35b34801561026b57600080fd5b50610283600160a060020a03600435166024356104f2565b005b34801561029157600080fd5b50610283610604565b3480156102a657600080fd5b506101cf61067c565b3480156102bb57600080fd5b506101cf600160a060020a036004351660243561068c565b3480156102df57600080fd5b506101f8600160a060020a03600435166106b0565b34801561030057600080fd5b506102836106cb565b34801561031557600080fd5b50610283610739565b34801561032a57600080fd5b506103336107b6565b60408051600160a060020a039092168252519081900360200190f35b34801561035b57600080fd5b506101366107c5565b34801561037057600080fd5b50610385600160a060020a03600435166107fc565b6040805192835260208301919091528051918290030190f35b3480156103aa57600080fd5b50610283610815565b3480156103bf57600080fd5b506101cf600160a060020a0360043516602435610912565b3480156103e357600080fd5b506101cf600160a060020a0360043516602435610936565b34801561040757600080fd5b506101f8600160a060020a036004358116906024351661095a565b34801561042e57600080fd5b506101f8610985565b34801561044357600080fd5b50610283600160a060020a036004351661098b565b60408051808201909152600881527f436f696e206f6e65000000000000000000000000000000000000000000000000602082015281565b60035460009060a060020a900460ff16156104a957600080fd5b6104b383836109ae565b9392505050565b60015490565b60035460009060a060020a900460ff16156104da57600080fd5b6104e5848484610a14565b949350505050565b600081565b6104fa610e93565b600354600160a060020a0316331461051157600080fd5b600154600654610527908463ffffffff610b8916565b11156105ba57604080517f08c379a000000000000000000000000000000000000000000000000000000000815260206004820152603360248201527f696e697469616c2061737369676e656420636f696e732063616e206e6f74206560448201527f786365656420746f74616c20737570706c792e00000000000000000000000000606482015290519081900360840190fd5b81815260006020808301828152600160a060020a0386168352600590915260409091208251815590516001909101556006546105fc908363ffffffff610b8916565b600655505050565b600354600160a060020a0316331461061b57600080fd5b60035460a060020a900460ff16151561063357600080fd5b6003805474ff0000000000000000000000000000000000000000191690556040517f7805862f689e2f13df9f062ff482ad3ad112aca9e0847911ed832e158c525b3390600090a1565b60035460a060020a900460ff1681565b60035460009060a060020a900460ff16156106a657600080fd5b6104b38383610b9c565b600160a060020a031660009081526020819052604090205490565b600354600160a060020a031633146106e257600080fd5b600354604051600160a060020a03909116907ff8df31144d9c2f0f6b59d69b8b98abd5459d07f2742c4df920b25aae33c6482090600090a26003805473ffffffffffffffffffffffffffffffffffffffff19169055565b600354600160a060020a0316331461075057600080fd5b60035460a060020a900460ff161561076757600080fd5b6003805474ff0000000000000000000000000000000000000000191660a060020a1790556040517f6985a02210a168e66602d3235cb6db0e70f92b3ba4d376a33c0f3d9434bff62590600090a1565b600354600160a060020a031681565b60408051808201909152600581527f436f696e31000000000000000000000000000000000000000000000000000000602082015281565b6005602052600090815260409020805460019091015482565b3360009081526005602052604081205490811161089357604080517f08c379a000000000000000000000000000000000000000000000000000000000815260206004820152601460248201527f6e6f20636f696e7320746f20616371756972652e000000000000000000000000604482015290519081900360640190fd5b336000908152602081905260409020546108b3908263ffffffff610b8916565b336000818152602081815260408083209490945560058152838220918255426001909201919091558251848152925191927ffaa12ddb40ba6ec53659ef184da2121c1c228dd2e760b3574db7feca61d99f9a929081900390910190a250565b60035460009060a060020a900460ff161561092c57600080fd5b6104b38383610c8b565b60035460009060a060020a900460ff161561095057600080fd5b6104b38383610d6a565b600160a060020a03918216600090815260026020908152604080832093909416825291909152205490565b60065481565b600354600160a060020a031633146109a257600080fd5b6109ab81610e03565b50565b336000818152600260209081526040808320600160a060020a038716808552908352818420869055815186815291519394909390927f8c5be1e5ebec7d5bd14f71427d1e84f3dd0314c0f7b2291e5b200ac8c7c3b925928290030190a350600192915050565b600160a060020a038316600090815260208190526040812054821115610a3957600080fd5b600160a060020a0384166000908152600260209081526040808320338452909152902054821115610a6957600080fd5b600160a060020a0383161515610a7e57600080fd5b600160a060020a038416600090815260208190526040902054610aa7908363ffffffff610e8116565b600160a060020a038086166000908152602081905260408082209390935590851681522054610adc908363ffffffff610b8916565b600160a060020a03808516600090815260208181526040808320949094559187168152600282528281203382529091522054610b1e908363ffffffff610e8116565b600160a060020a03808616600081815260026020908152604080832033845282529182902094909455805186815290519287169391927fddf252ad1be2c89b69c2b068fc378daa952ba7f163c4a11628f55a4df523b3ef929181900390910190a35060019392505050565b81810182811015610b9657fe5b92915050565b336000908152600260209081526040808320600160a060020a0386168452909152812054808310610bf057336000908152600260209081526040808320600160a060020a0388168452909152812055610c25565b610c00818463ffffffff610e8116565b336000908152600260209081526040808320600160a060020a03891684529091529020555b336000818152600260209081526040808320600160a060020a0389168085529083529281902054815190815290519293927f8c5be1e5ebec7d5bd14f71427d1e84f3dd0314c0f7b2291e5b200ac8c7c3b925929181900390910190a35060019392505050565b33600090815260208190526040812054821115610ca757600080fd5b600160a060020a0383161515610cbc57600080fd5b33600090815260208190526040902054610cdc908363ffffffff610e8116565b3360009081526020819052604080822092909255600160a060020a03851681522054610d0e908363ffffffff610b8916565b600160a060020a038416600081815260208181526040918290209390935580518581529051919233927fddf252ad1be2c89b69c2b068fc378daa952ba7f163c4a11628f55a4df523b3ef9281900390910190a350600192915050565b336000908152600260209081526040808320600160a060020a0386168452909152812054610d9e908363ffffffff610b8916565b336000818152600260209081526040808320600160a060020a0389168085529083529281902085905580519485525191937f8c5be1e5ebec7d5bd14f71427d1e84f3dd0314c0f7b2291e5b200ac8c7c3b925929081900390910190a350600192915050565b600160a060020a0381161515610e1857600080fd5b600354604051600160a060020a038084169216907f8be0079c531659141344cd1fd0a4f28419497f9722a3daafe3b4186f6b6457e090600090a36003805473ffffffffffffffffffffffffffffffffffffffff1916600160a060020a0392909216919091179055565b600082821115610e8d57fe5b50900390565b6040805180820190915260008082526020820152905600a165627a7a72305820e60e5ddc0db797a87f6ff3f1652d0497ed8fa4024b76b7f93fbcb8fb69200c910029",
  "source": "pragma solidity ^0.4.24;\n\nimport 'openzeppelin-solidity/contracts/token/ERC20/PausableToken.sol';\n\ncontract DragonCityCoin is PausableToken {\n    using SafeMath for uint256;\n\n    struct VaultInfo {\n        uint256 amount;     //initial assigned coins amount\n        uint256 acquiredTime;   //acquired to balance timestamp\n    }\n\n    string public constant symbol = \"Coin1\";    //todo change coin symbol\n    string public constant name = \"Coin one\";   //todo change coin name\n    uint8 public constant decimals = 0;\n    uint256 private INI_SUPPLY_ = 600 * 1000; //todo change coin supply(land count * 1000)\n    mapping (address => VaultInfo) public vaults;  //save user initial assigned coins\n    uint256 public coinsInVaults;    //initial assigned total coins(can not great than totalSupply_)\n\n    event Acquired(address indexed to, uint256 amount);\n\n    constructor() public {\n        totalSupply_ = INI_SUPPLY_;\n    }\n\n    /**\n    * @dev user acquire initial coins to his balance.\n    */\n    function acquire() public {\n        uint256 coinAmount = vaults[msg.sender].amount;\n        require(coinAmount > 0, 'no coins to acquire.');\n\n        balances[msg.sender] = balances[msg.sender].add(coinAmount);\n        vaults[msg.sender].amount = 0;\n        vaults[msg.sender].acquiredTime = block.timestamp;\n\n        emit Acquired(msg.sender, coinAmount);\n    }\n\n    /**\n    * @dev initialize coins to land holder.\n    */\n    function setVault(address _to, uint256 _amount) public onlyOwner {\n        require(coinsInVaults.add(_amount) <= totalSupply_, 'initial assigned coins can not exceed total supply.');\n\n        VaultInfo memory vaultInfo;\n        vaultInfo.amount = _amount;\n        vaultInfo.acquiredTime = 0;\n\n        vaults[_to] = vaultInfo;\n        coinsInVaults = coinsInVaults.add(_amount);\n    }\n}",
  "sourcePath": "/Volumes/Code/data/www/bonbon_contract/contracts/dcl_coins/DragonCityCoin.sol",
  "compiler": {
    "name": "solc",
    "version": "0.4.24+commit.e67f0147.Emscripten.clang"
  },
  "schemaVersion": "2.0.1",
  "updatedAt": "2018-10-22T07:24:37.802Z"
}