{
  "contractName": "DragonCityCoin",
  "abi": [
    {
      "constant": true,
      "inputs": [],
      "name": "name",
      "outputs": [
        {
          "name": "",
          "type": "string"
        }
      ],
      "payable": false,
      "stateMutability": "view",
      "type": "function"
    },
    {
      "constant": false,
      "inputs": [
        {
          "name": "_spender",
          "type": "address"
        },
        {
          "name": "_value",
          "type": "uint256"
        }
      ],
      "name": "approve",
      "outputs": [
        {
          "name": "",
          "type": "bool"
        }
      ],
      "payable": false,
      "stateMutability": "nonpayable",
      "type": "function"
    },
    {
      "constant": true,
      "inputs": [],
      "name": "totalSupply",
      "outputs": [
        {
          "name": "",
          "type": "uint256"
        }
      ],
      "payable": false,
      "stateMutability": "view",
      "type": "function"
    },
    {
      "constant": false,
      "inputs": [
        {
          "name": "_from",
          "type": "address"
        },
        {
          "name": "_to",
          "type": "address"
        },
        {
          "name": "_value",
          "type": "uint256"
        }
      ],
      "name": "transferFrom",
      "outputs": [
        {
          "name": "",
          "type": "bool"
        }
      ],
      "payable": false,
      "stateMutability": "nonpayable",
      "type": "function"
    },
    {
      "constant": true,
      "inputs": [],
      "name": "decimals",
      "outputs": [
        {
          "name": "",
          "type": "uint8"
        }
      ],
      "payable": false,
      "stateMutability": "view",
      "type": "function"
    },
    {
      "constant": false,
      "inputs": [],
      "name": "unpause",
      "outputs": [],
      "payable": false,
      "stateMutability": "nonpayable",
      "type": "function"
    },
    {
      "constant": true,
      "inputs": [],
      "name": "paused",
      "outputs": [
        {
          "name": "",
          "type": "bool"
        }
      ],
      "payable": false,
      "stateMutability": "view",
      "type": "function"
    },
    {
      "constant": false,
      "inputs": [
        {
          "name": "_spender",
          "type": "address"
        },
        {
          "name": "_subtractedValue",
          "type": "uint256"
        }
      ],
      "name": "decreaseApproval",
      "outputs": [
        {
          "name": "success",
          "type": "bool"
        }
      ],
      "payable": false,
      "stateMutability": "nonpayable",
      "type": "function"
    },
    {
      "constant": true,
      "inputs": [
        {
          "name": "_owner",
          "type": "address"
        }
      ],
      "name": "balanceOf",
      "outputs": [
        {
          "name": "",
          "type": "uint256"
        }
      ],
      "payable": false,
      "stateMutability": "view",
      "type": "function"
    },
    {
      "constant": false,
      "inputs": [],
      "name": "renounceOwnership",
      "outputs": [],
      "payable": false,
      "stateMutability": "nonpayable",
      "type": "function"
    },
    {
      "constant": false,
      "inputs": [],
      "name": "pause",
      "outputs": [],
      "payable": false,
      "stateMutability": "nonpayable",
      "type": "function"
    },
    {
      "constant": true,
      "inputs": [],
      "name": "owner",
      "outputs": [
        {
          "name": "",
          "type": "address"
        }
      ],
      "payable": false,
      "stateMutability": "view",
      "type": "function"
    },
    {
      "constant": true,
      "inputs": [],
      "name": "symbol",
      "outputs": [
        {
          "name": "",
          "type": "string"
        }
      ],
      "payable": false,
      "stateMutability": "view",
      "type": "function"
    },
    {
      "constant": true,
      "inputs": [
        {
          "name": "",
          "type": "address"
        }
      ],
      "name": "vaults",
      "outputs": [
        {
          "name": "amount",
          "type": "uint256"
        },
        {
          "name": "acquiredTime",
          "type": "uint256"
        }
      ],
      "payable": false,
      "stateMutability": "view",
      "type": "function"
    },
    {
      "constant": false,
      "inputs": [
        {
          "name": "_to",
          "type": "address"
        },
        {
          "name": "_value",
          "type": "uint256"
        }
      ],
      "name": "transfer",
      "outputs": [
        {
          "name": "",
          "type": "bool"
        }
      ],
      "payable": false,
      "stateMutability": "nonpayable",
      "type": "function"
    },
    {
      "constant": false,
      "inputs": [
        {
          "name": "_spender",
          "type": "address"
        },
        {
          "name": "_addedValue",
          "type": "uint256"
        }
      ],
      "name": "increaseApproval",
      "outputs": [
        {
          "name": "success",
          "type": "bool"
        }
      ],
      "payable": false,
      "stateMutability": "nonpayable",
      "type": "function"
    },
    {
      "constant": true,
      "inputs": [
        {
          "name": "_owner",
          "type": "address"
        },
        {
          "name": "_spender",
          "type": "address"
        }
      ],
      "name": "allowance",
      "outputs": [
        {
          "name": "",
          "type": "uint256"
        }
      ],
      "payable": false,
      "stateMutability": "view",
      "type": "function"
    },
    {
      "constant": true,
      "inputs": [],
      "name": "coinsInVaults",
      "outputs": [
        {
          "name": "",
          "type": "uint256"
        }
      ],
      "payable": false,
      "stateMutability": "view",
      "type": "function"
    },
    {
      "constant": false,
      "inputs": [
        {
          "name": "_newOwner",
          "type": "address"
        }
      ],
      "name": "transferOwnership",
      "outputs": [],
      "payable": false,
      "stateMutability": "nonpayable",
      "type": "function"
    },
    {
      "inputs": [],
      "payable": false,
      "stateMutability": "nonpayable",
      "type": "constructor"
    },
    {
      "anonymous": false,
      "inputs": [
        {
          "indexed": true,
          "name": "to",
          "type": "address"
        },
        {
          "indexed": false,
          "name": "amount",
          "type": "uint256"
        }
      ],
      "name": "Acquired",
      "type": "event"
    },
    {
      "anonymous": false,
      "inputs": [],
      "name": "Pause",
      "type": "event"
    },
    {
      "anonymous": false,
      "inputs": [],
      "name": "Unpause",
      "type": "event"
    },
    {
      "anonymous": false,
      "inputs": [
        {
          "indexed": true,
          "name": "previousOwner",
          "type": "address"
        }
      ],
      "name": "OwnershipRenounced",
      "type": "event"
    },
    {
      "anonymous": false,
      "inputs": [
        {
          "indexed": true,
          "name": "previousOwner",
          "type": "address"
        },
        {
          "indexed": true,
          "name": "newOwner",
          "type": "address"
        }
      ],
      "name": "OwnershipTransferred",
      "type": "event"
    },
    {
      "anonymous": false,
      "inputs": [
        {
          "indexed": true,
          "name": "owner",
          "type": "address"
        },
        {
          "indexed": true,
          "name": "spender",
          "type": "address"
        },
        {
          "indexed": false,
          "name": "value",
          "type": "uint256"
        }
      ],
      "name": "Approval",
      "type": "event"
    },
    {
      "anonymous": false,
      "inputs": [
        {
          "indexed": true,
          "name": "from",
          "type": "address"
        },
        {
          "indexed": true,
          "name": "to",
          "type": "address"
        },
        {
          "indexed": false,
          "name": "value",
          "type": "uint256"
        }
      ],
      "name": "Transfer",
      "type": "event"
    },
    {
      "constant": false,
      "inputs": [],
      "name": "acquire",
      "outputs": [],
      "payable": false,
      "stateMutability": "nonpayable",
      "type": "function"
    },
    {
      "constant": false,
      "inputs": [
        {
          "name": "_to",
          "type": "address[]"
        },
        {
          "name": "_amount",
          "type": "uint256[]"
        }
      ],
      "name": "setVault",
      "outputs": [],
      "payable": false,
      "stateMutability": "nonpayable",
      "type": "function"
    }
  ],
  "bytecode": "0x60806040526003805460a060020a60ff0219169055620927c060045534801561002757600080fd5b5060038054600160a060020a031916331790556004546001556110598061004f6000396000f30060806040526004361061011c5763ffffffff7c010000000000000000000000000000000000000000000000000000000060003504166306fdde038114610121578063095ea7b3146101ab57806318160ddd146101e357806323b872dd1461020a578063313ce567146102345780633f4ba83a1461025f5780635c975abb14610276578063661884631461028b57806370a08231146102af578063715018a6146102d05780638456cb59146102e55780638da5cb5b146102fa57806395d89b411461032b578063a622ee7c14610340578063a7134f731461037a578063a9059cbb1461038f578063ba181d25146103b3578063d73dd62314610441578063dd62ed3e14610465578063dec356481461048c578063f2fde38b146104a1575b600080fd5b34801561012d57600080fd5b506101366104c2565b6040805160208082528351818301528351919283929083019185019080838360005b83811015610170578181015183820152602001610158565b50505050905090810190601f16801561019d5780820380516001836020036101000a031916815260200191505b509250505060405180910390f35b3480156101b757600080fd5b506101cf600160a060020a03600435166024356104f9565b604080519115158252519081900360200190f35b3480156101ef57600080fd5b506101f8610524565b60408051918252519081900360200190f35b34801561021657600080fd5b506101cf600160a060020a036004358116906024351660443561052a565b34801561024057600080fd5b50610249610557565b6040805160ff9092168252519081900360200190f35b34801561026b57600080fd5b5061027461055c565b005b34801561028257600080fd5b506101cf6105d4565b34801561029757600080fd5b506101cf600160a060020a03600435166024356105e4565b3480156102bb57600080fd5b506101f8600160a060020a0360043516610608565b3480156102dc57600080fd5b50610274610623565b3480156102f157600080fd5b50610274610691565b34801561030657600080fd5b5061030f61070e565b60408051600160a060020a039092168252519081900360200190f35b34801561033757600080fd5b5061013661071d565b34801561034c57600080fd5b50610361600160a060020a0360043516610754565b6040805192835260208301919091528051918290030190f35b34801561038657600080fd5b5061027461076d565b34801561039b57600080fd5b506101cf600160a060020a036004351660243561086a565b3480156103bf57600080fd5b506040805160206004803580820135838102808601850190965280855261027495369593946024949385019291829185019084908082843750506040805187358901803560208181028481018201909552818452989b9a99890198929750908201955093508392508501908490808284375094975061088e9650505050505050565b34801561044d57600080fd5b506101cf600160a060020a0360043516602435610ab9565b34801561047157600080fd5b506101f8600160a060020a0360043581169060243516610add565b34801561049857600080fd5b506101f8610b08565b3480156104ad57600080fd5b50610274600160a060020a0360043516610b0e565b60408051808201909152600881527f436f696e206f6e65000000000000000000000000000000000000000000000000602082015281565b60035460009060a060020a900460ff161561051357600080fd5b61051d8383610b31565b9392505050565b60015490565b60035460009060a060020a900460ff161561054457600080fd5b61054f848484610b97565b949350505050565b600081565b600354600160a060020a0316331461057357600080fd5b60035460a060020a900460ff16151561058b57600080fd5b6003805474ff0000000000000000000000000000000000000000191690556040517f7805862f689e2f13df9f062ff482ad3ad112aca9e0847911ed832e158c525b3390600090a1565b60035460a060020a900460ff1681565b60035460009060a060020a900460ff16156105fe57600080fd5b61051d8383610d0c565b600160a060020a031660009081526020819052604090205490565b600354600160a060020a0316331461063a57600080fd5b600354604051600160a060020a03909116907ff8df31144d9c2f0f6b59d69b8b98abd5459d07f2742c4df920b25aae33c6482090600090a26003805473ffffffffffffffffffffffffffffffffffffffff19169055565b600354600160a060020a031633146106a857600080fd5b60035460a060020a900460ff16156106bf57600080fd5b6003805474ff0000000000000000000000000000000000000000191660a060020a1790556040517f6985a02210a168e66602d3235cb6db0e70f92b3ba4d376a33c0f3d9434bff62590600090a1565b600354600160a060020a031681565b60408051808201909152600581527f436f696e31000000000000000000000000000000000000000000000000000000602082015281565b6005602052600090815260409020805460019091015482565b336000908152600560205260408120549081116107eb57604080517f08c379a000000000000000000000000000000000000000000000000000000000815260206004820152601460248201527f6e6f20636f696e7320746f20616371756972652e000000000000000000000000604482015290519081900360640190fd5b3360009081526020819052604090205461080b908263ffffffff610dfb16565b336000818152602081815260408083209490945560058152838220918255426001909201919091558251848152925191927ffaa12ddb40ba6ec53659ef184da2121c1c228dd2e760b3574db7feca61d99f9a929081900390910190a250565b60035460009060a060020a900460ff161561088457600080fd5b61051d8383610e0e565b600080600061089b611016565b600354600160a060020a031633146108b257600080fd5b846000805b82518110156108f2576108e883828151811015156108d157fe5b60209081029091010151839063ffffffff610dfb16565b91506001016108b7565b60015482111561098957604080517f08c379a000000000000000000000000000000000000000000000000000000000815260206004820152603360248201527f696e697469616c2061737369676e656420636f696e732063616e206e6f74206560448201527f786365656420746f74616c20737570706c792e00000000000000000000000000606482015290519081900360840190fd5b8751895114610a1f57604080517f08c379a000000000000000000000000000000000000000000000000000000000815260206004820152602960248201527f6164647265737320636f756e7420616e6420616d6f756e7420636f756e74206e60448201527f6f74206d617463682e0000000000000000000000000000000000000000000000606482015290519081900360840190fd5b8851871015610aae578887815181101515610a3657fe5b9060200190602002015195508787815181101515610a5057fe5b60209081029091018101518086526000868301818152600160a060020a038a168252600590935260409020865181559151600190920191909155600654909550610aa0908663ffffffff610dfb16565b600655600190960195610a1f565b505050505050505050565b60035460009060a060020a900460ff1615610ad357600080fd5b61051d8383610eed565b600160a060020a03918216600090815260026020908152604080832093909416825291909152205490565b60065481565b600354600160a060020a03163314610b2557600080fd5b610b2e81610f86565b50565b336000818152600260209081526040808320600160a060020a038716808552908352818420869055815186815291519394909390927f8c5be1e5ebec7d5bd14f71427d1e84f3dd0314c0f7b2291e5b200ac8c7c3b925928290030190a350600192915050565b600160a060020a038316600090815260208190526040812054821115610bbc57600080fd5b600160a060020a0384166000908152600260209081526040808320338452909152902054821115610bec57600080fd5b600160a060020a0383161515610c0157600080fd5b600160a060020a038416600090815260208190526040902054610c2a908363ffffffff61100416565b600160a060020a038086166000908152602081905260408082209390935590851681522054610c5f908363ffffffff610dfb16565b600160a060020a03808516600090815260208181526040808320949094559187168152600282528281203382529091522054610ca1908363ffffffff61100416565b600160a060020a03808616600081815260026020908152604080832033845282529182902094909455805186815290519287169391927fddf252ad1be2c89b69c2b068fc378daa952ba7f163c4a11628f55a4df523b3ef929181900390910190a35060019392505050565b336000908152600260209081526040808320600160a060020a0386168452909152812054808310610d6057336000908152600260209081526040808320600160a060020a0388168452909152812055610d95565b610d70818463ffffffff61100416565b336000908152600260209081526040808320600160a060020a03891684529091529020555b336000818152600260209081526040808320600160a060020a0389168085529083529281902054815190815290519293927f8c5be1e5ebec7d5bd14f71427d1e84f3dd0314c0f7b2291e5b200ac8c7c3b925929181900390910190a35060019392505050565b81810182811015610e0857fe5b92915050565b33600090815260208190526040812054821115610e2a57600080fd5b600160a060020a0383161515610e3f57600080fd5b33600090815260208190526040902054610e5f908363ffffffff61100416565b3360009081526020819052604080822092909255600160a060020a03851681522054610e91908363ffffffff610dfb16565b600160a060020a038416600081815260208181526040918290209390935580518581529051919233927fddf252ad1be2c89b69c2b068fc378daa952ba7f163c4a11628f55a4df523b3ef9281900390910190a350600192915050565b336000908152600260209081526040808320600160a060020a0386168452909152812054610f21908363ffffffff610dfb16565b336000818152600260209081526040808320600160a060020a0389168085529083529281902085905580519485525191937f8c5be1e5ebec7d5bd14f71427d1e84f3dd0314c0f7b2291e5b200ac8c7c3b925929081900390910190a350600192915050565b600160a060020a0381161515610f9b57600080fd5b600354604051600160a060020a038084169216907f8be0079c531659141344cd1fd0a4f28419497f9722a3daafe3b4186f6b6457e090600090a36003805473ffffffffffffffffffffffffffffffffffffffff1916600160a060020a0392909216919091179055565b60008282111561101057fe5b50900390565b6040805180820190915260008082526020820152905600a165627a7a72305820f98a7a22ce0a24ab332391789b61b94cb796bcf06dbea2d9bee6a3d5b9b148470029",
  "source": "pragma solidity ^0.4.24;\n\nimport 'openzeppelin-solidity/contracts/token/ERC20/PausableToken.sol';\n\ncontract DragonCityCoin is PausableToken {\n    using SafeMath for uint256;\n\n    struct VaultInfo {\n        uint256 amount;     //initial assigned coins amount\n        uint256 acquiredTime;   //acquired to balance timestamp\n    }\n\n    string public constant symbol = \"Coin1\";    //todo change coin symbol\n    string public constant name = \"Coin one\";   //todo change coin name\n    uint8 public constant decimals = 0;\n    uint256 private INI_SUPPLY_ = 600 * 1000; //todo change coin supply(land count * 1000)\n    mapping (address => VaultInfo) public vaults;  //save user initial assigned coins\n    uint256 public coinsInVaults;    //initial assigned total coins(can not great than totalSupply_)\n\n    event Acquired(address indexed to, uint256 amount);\n\n    modifier lessThanTotalSupply(uint256[] _amount) {\n        uint256 totalAmount = 0;\n        for (uint256 i; i < _amount.length; i++) {\n            totalAmount = totalAmount.add(_amount[i]);\n        }\n        require(totalAmount <= totalSupply_, 'initial assigned coins can not exceed total supply.');\n        _;\n    }\n\n    constructor() public {\n        totalSupply_ = INI_SUPPLY_;\n    }\n\n    /**\n    * @dev user acquire initial coins to his balance.\n    */\n    function acquire() public {\n        uint256 coinAmount = vaults[msg.sender].amount;\n        require(coinAmount > 0, 'no coins to acquire.');\n\n        balances[msg.sender] = balances[msg.sender].add(coinAmount);\n        vaults[msg.sender].amount = 0;\n        vaults[msg.sender].acquiredTime = block.timestamp;\n\n        emit Acquired(msg.sender, coinAmount);\n    }\n\n    /**\n    * @dev initialize coins to land holder.\n    */\n    function setVault(address[] _to, uint256[] _amount)\n        onlyOwner\n        lessThanTotalSupply(_amount)\n        public\n    {\n        require(_to.length == _amount.length, 'address count and amount count not match.');\n\n        for (uint256 i; i < _to.length; i++) {\n            address to = _to[i];\n            uint256 amount = _amount[i];\n            VaultInfo memory vaultInfo;\n            vaultInfo.amount = amount;\n            vaultInfo.acquiredTime = 0;\n\n            vaults[to] = vaultInfo;\n            coinsInVaults = coinsInVaults.add(amount);\n        }\n    }\n}",
  "sourcePath": "/Volumes/Code/data/www/bonbon_contract/contracts/dcl_coins/DragonCityCoin.sol",
  "compiler": {
    "name": "solc",
    "version": "0.4.24+commit.e67f0147.Emscripten.clang"
  },
  "schemaVersion": "2.0.1",
  "updatedAt": "2018-10-23T15:13:28.551Z"
}