{
  "contractName": "LibSafeMath",
  "abi": [
    {
      "constant": false,
      "inputs": [
        {
          "name": "self",
          "type": "LibSafeMath.result storage"
        },
        {
          "name": "_a",
          "type": "uint256"
        },
        {
          "name": "_b",
          "type": "uint256"
        }
      ],
      "name": "add2Result",
      "outputs": [
        {
          "name": "",
          "type": "uint256"
        }
      ],
      "payable": false,
      "stateMutability": "nonpayable",
      "type": "function"
    }
  ],
  "bytecode": "0x610148610030600b82828239805160001a6073146000811461002057610022565bfe5b5030600052607381538281f30073000000000000000000000000000000000000000030146080604052600436106100575763ffffffff7c0100000000000000000000000000000000000000000000000000000000600035041663bf25e055811461005c575b600080fd5b81801561006857600080fd5b5061007a60043560243560443561008c565b60408051918252519081900360200190f35b600061009883836100a4565b80855590509392505050565b8181018281101561011657604080517f08c379a000000000000000000000000000000000000000000000000000000000815260206004820152601360248201527f536166654d61746820616464206661696c656400000000000000000000000000604482015290519081900360640190fd5b929150505600a165627a7a723058206763543a1f9a572b0aa4c47011678d5c2c58b18d9f45210cfb4132c1b38136620029",
  "source": "pragma solidity ^0.4.24;\n\nlibrary LibSafeMath {\n    struct result\n    {\n        uint256 result;\n    }\n\n    /**\n    * @dev Multiplies two numbers, throws on overflow.\n    */\n    function mul(uint256 a, uint256 b)\n    internal\n    pure\n    returns (uint256 c)\n    {\n        if (a == 0) {\n            return 0;\n        }\n        c = a * b;\n        require(c / a == b, \"SafeMath mul failed\");\n        return c;\n    }\n\n    /**\n    * @dev Subtracts two numbers, throws on overflow (i.e. if subtrahend is greater than minuend).\n    */\n    function sub(uint256 a, uint256 b)\n    internal\n    pure\n    returns (uint256)\n    {\n        require(b <= a, \"SafeMath sub failed\");\n        return a - b;\n    }\n\n    /**\n    * @dev Adds two numbers, throws on overflow.\n    */\n    function add(uint256 a, uint256 b)\n    internal\n    pure\n    returns (uint256 c)\n    {\n        c = a + b;\n        require(c >= a, \"SafeMath add failed\");\n        return c;\n    }\n\n    /**\n     * @dev gives square root of given x.\n     */\n    function sqrt(uint256 x)\n    internal\n    pure\n    returns (uint256 y)\n    {\n        uint256 z = ((add(x,1)) / 2);\n        y = x;\n        while (z < y)\n        {\n            y = z;\n            z = ((add((x / z),z)) / 2);\n        }\n    }\n\n    /**\n     * @dev gives square. multiplies x by x\n     */\n    function sq(uint256 x)\n    internal\n    pure\n    returns (uint256)\n    {\n        return (mul(x,x));\n    }\n\n    /**\n     * @dev x to the power of y\n     */\n    function pwr(uint256 x, uint256 y)\n    internal\n    pure\n    returns (uint256)\n    {\n        if (x==0)\n            return (0);\n        else if (y==0)\n            return (1);\n        else\n        {\n            uint256 z = x;\n            for (uint256 i=1; i < y; i++)\n                z = mul(z,x);\n            return (z);\n        }\n    }\n\n    function add2Result(result storage self, uint256 _a, uint256 _b) public returns(uint256) {\n        self.result = add(_a, _b);\n        return self.result;\n    }\n}",
  "sourcePath": "/Volumes/Code/data/www/bonbon_contract/contracts/practices/LibSafeMath.sol",
  "compiler": {
    "name": "solc",
    "version": "0.4.24+commit.e67f0147.Emscripten.clang"
  },
  "schemaVersion": "2.0.1",
  "updatedAt": "2018-09-10T08:23:50.206Z"
}