{
  "contractName": "SnapshotToken",
  "abi": [
    {
      "constant": false,
      "inputs": [
        {
          "name": "_spender",
          "type": "address"
        },
        {
          "name": "_value",
          "type": "uint256"
        }
      ],
      "name": "approve",
      "outputs": [
        {
          "name": "",
          "type": "bool"
        }
      ],
      "payable": false,
      "stateMutability": "nonpayable",
      "type": "function"
    },
    {
      "constant": true,
      "inputs": [],
      "name": "totalSupply",
      "outputs": [
        {
          "name": "",
          "type": "uint256"
        }
      ],
      "payable": false,
      "stateMutability": "view",
      "type": "function"
    },
    {
      "constant": false,
      "inputs": [
        {
          "name": "_spender",
          "type": "address"
        },
        {
          "name": "_subtractedValue",
          "type": "uint256"
        }
      ],
      "name": "decreaseApproval",
      "outputs": [
        {
          "name": "",
          "type": "bool"
        }
      ],
      "payable": false,
      "stateMutability": "nonpayable",
      "type": "function"
    },
    {
      "constant": true,
      "inputs": [
        {
          "name": "_owner",
          "type": "address"
        }
      ],
      "name": "balanceOf",
      "outputs": [
        {
          "name": "",
          "type": "uint256"
        }
      ],
      "payable": false,
      "stateMutability": "view",
      "type": "function"
    },
    {
      "constant": true,
      "inputs": [],
      "name": "currSnapshotId",
      "outputs": [
        {
          "name": "",
          "type": "uint256"
        }
      ],
      "payable": false,
      "stateMutability": "view",
      "type": "function"
    },
    {
      "constant": false,
      "inputs": [
        {
          "name": "_spender",
          "type": "address"
        },
        {
          "name": "_addedValue",
          "type": "uint256"
        }
      ],
      "name": "increaseApproval",
      "outputs": [
        {
          "name": "",
          "type": "bool"
        }
      ],
      "payable": false,
      "stateMutability": "nonpayable",
      "type": "function"
    },
    {
      "constant": true,
      "inputs": [
        {
          "name": "_owner",
          "type": "address"
        },
        {
          "name": "_spender",
          "type": "address"
        }
      ],
      "name": "allowance",
      "outputs": [
        {
          "name": "",
          "type": "uint256"
        }
      ],
      "payable": false,
      "stateMutability": "view",
      "type": "function"
    },
    {
      "anonymous": false,
      "inputs": [
        {
          "indexed": false,
          "name": "id",
          "type": "uint256"
        }
      ],
      "name": "Snapshot",
      "type": "event"
    },
    {
      "anonymous": false,
      "inputs": [
        {
          "indexed": true,
          "name": "owner",
          "type": "address"
        },
        {
          "indexed": true,
          "name": "spender",
          "type": "address"
        },
        {
          "indexed": false,
          "name": "value",
          "type": "uint256"
        }
      ],
      "name": "Approval",
      "type": "event"
    },
    {
      "anonymous": false,
      "inputs": [
        {
          "indexed": true,
          "name": "from",
          "type": "address"
        },
        {
          "indexed": true,
          "name": "to",
          "type": "address"
        },
        {
          "indexed": false,
          "name": "value",
          "type": "uint256"
        }
      ],
      "name": "Transfer",
      "type": "event"
    },
    {
      "constant": false,
      "inputs": [
        {
          "name": "_to",
          "type": "address"
        },
        {
          "name": "_value",
          "type": "uint256"
        }
      ],
      "name": "transfer",
      "outputs": [
        {
          "name": "",
          "type": "bool"
        }
      ],
      "payable": false,
      "stateMutability": "nonpayable",
      "type": "function"
    },
    {
      "constant": false,
      "inputs": [
        {
          "name": "_from",
          "type": "address"
        },
        {
          "name": "_to",
          "type": "address"
        },
        {
          "name": "_value",
          "type": "uint256"
        }
      ],
      "name": "transferFrom",
      "outputs": [
        {
          "name": "",
          "type": "bool"
        }
      ],
      "payable": false,
      "stateMutability": "nonpayable",
      "type": "function"
    },
    {
      "constant": false,
      "inputs": [],
      "name": "snapshot",
      "outputs": [
        {
          "name": "",
          "type": "uint256"
        }
      ],
      "payable": false,
      "stateMutability": "nonpayable",
      "type": "function"
    },
    {
      "constant": true,
      "inputs": [
        {
          "name": "_account",
          "type": "address"
        },
        {
          "name": "_snapshotId",
          "type": "uint256"
        }
      ],
      "name": "balanceOfAt",
      "outputs": [
        {
          "name": "",
          "type": "uint256"
        }
      ],
      "payable": false,
      "stateMutability": "view",
      "type": "function"
    }
  ],
  "bytecode": "0x608060405234801561001057600080fd5b506109de806100206000396000f3006080604052600436106100ae5763ffffffff7c0100000000000000000000000000000000000000000000000000000000600035041663095ea7b381146100b357806318160ddd146100eb57806323b872dd146101125780634ee2cd7e1461013c578063661884631461016057806370a08231146101845780639711715a146101a55780639c8799a2146101ba578063a9059cbb146101cf578063d73dd623146101f3578063dd62ed3e14610217575b600080fd5b3480156100bf57600080fd5b506100d7600160a060020a036004351660243561023e565b604080519115158252519081900360200190f35b3480156100f757600080fd5b506101006102a4565b60408051918252519081900360200190f35b34801561011e57600080fd5b506100d7600160a060020a03600435811690602435166044356102aa565b34801561014857600080fd5b50610100600160a060020a03600435166024356102d1565b34801561016c57600080fd5b506100d7600160a060020a0360043516602435610385565b34801561019057600080fd5b50610100600160a060020a0360043516610474565b3480156101b157600080fd5b5061010061048f565b3480156101c657600080fd5b506101006104d7565b3480156101db57600080fd5b506100d7600160a060020a03600435166024356104dd565b3480156101ff57600080fd5b506100d7600160a060020a0360043516602435610502565b34801561022357600080fd5b50610100600160a060020a036004358116906024351661059b565b336000818152600260209081526040808320600160a060020a038716808552908352818420869055815186815291519394909390927f8c5be1e5ebec7d5bd14f71427d1e84f3dd0314c0f7b2291e5b200ac8c7c3b925928290030190a350600192915050565b60015490565b60006102b5846105c6565b6102be836105c6565b6102c9848484610633565b949350505050565b6000806000831180156102e657506003548311155b15156102f157600080fd5b600160a060020a0384166000908152600460205260409020610319908463ffffffff6107a816565b600160a060020a03851660009081526004602052604090205490915081141561034c5761034584610474565b915061037e565b600160a060020a038416600090815260056020526040902080548290811061037057fe5b906000526020600020015491505b5092915050565b336000908152600260209081526040808320600160a060020a03861684529091528120548083106103d957336000908152600260209081526040808320600160a060020a038816845290915281205561040e565b6103e9818463ffffffff61084016565b336000908152600260209081526040808320600160a060020a03891684529091529020555b336000818152600260209081526040808320600160a060020a0389168085529083529281902054815190815290519293927f8c5be1e5ebec7d5bd14f71427d1e84f3dd0314c0f7b2291e5b200ac8c7c3b925929181900390910190a35060019392505050565b600160a060020a031660009081526020819052604090205490565b600380546001019081905560408051918252516000917f8030e83b04d87bef53480e26263266d6ca66863aa8506aca6f2559d18aa1cb67919081900360200190a15060035490565b60035481565b60006104e8336105c6565b6104f1836105c6565b6104fb8383610852565b9392505050565b336000908152600260209081526040808320600160a060020a0386168452909152812054610536908363ffffffff61093116565b336000818152600260209081526040808320600160a060020a0389168085529083529281902085905580519485525191937f8c5be1e5ebec7d5bd14f71427d1e84f3dd0314c0f7b2291e5b200ac8c7c3b925929081900390910190a350600192915050565b600160a060020a03918216600090815260026020908152604080832093909416825291909152205490565b6003546105d282610944565b101561063057600160a060020a0381166000818152600460209081526040808320600354815460018101835591855283852090910155928252600590522061061982610474565b815460018101835560009283526020909220909101555b50565b600160a060020a03831660009081526020819052604081205482111561065857600080fd5b600160a060020a038416600090815260026020908152604080832033845290915290205482111561068857600080fd5b600160a060020a038316151561069d57600080fd5b600160a060020a0384166000908152602081905260409020546106c6908363ffffffff61084016565b600160a060020a0380861660009081526020819052604080822093909355908516815220546106fb908363ffffffff61093116565b600160a060020a0380851660009081526020818152604080832094909455918716815260028252828120338252909152205461073d908363ffffffff61084016565b600160a060020a03808616600081815260026020908152604080832033845282529182902094909455805186815290519287169391927fddf252ad1be2c89b69c2b068fc378daa952ba7f163c4a11628f55a4df523b3ef929181900390910190a35060019392505050565b81546000908190815b818310156107f9576107c38383610993565b90508486828154811015156107d457fe5b906000526020600020015411156107ed578091506107f4565b8060010192505b6107b1565b600083118015610823575084866001850381548110151561081657fe5b9060005260206000200154145b1561083357600183039350610837565b8293505b50505092915050565b60008282111561084c57fe5b50900390565b3360009081526020819052604081205482111561086e57600080fd5b600160a060020a038316151561088357600080fd5b336000908152602081905260409020546108a3908363ffffffff61084016565b3360009081526020819052604080822092909255600160a060020a038516815220546108d5908363ffffffff61093116565b600160a060020a038416600081815260208181526040918290209390935580518581529051919233927fddf252ad1be2c89b69c2b068fc378daa952ba7f163c4a11628f55a4df523b3ef9281900390910190a350600192915050565b8181018281101561093e57fe5b92915050565b600160a060020a03811660009081526004602052604081208054151561096d576000915061098d565b80548190600019810190811061097f57fe5b906000526020600020015491505b50919050565b60006002600184811690841601046002830460028504010193925050505600a165627a7a72305820fdaa5bfd0640544bd4cae033403034ff9c9ebaabb7f9d36faa7f2643e6a2c0cf0029",
  "source": "pragma solidity ^0.4.24;\n\nimport 'openzeppelin-solidity/contracts/token/ERC20/StandardToken.sol';\n\n/**\n * @title Math\n * @dev Assorted math operations\n */\nlibrary Math {\n    function average(uint256 a, uint256 b) internal pure returns (uint256) {\n        // (a + b) / 2 can overflow, so we distribute\n        return (a / 2) + (b / 2) + ((a % 2 + b % 2) / 2);\n    }\n}\n\nlibrary ArrayUtils {\n    function findUpperBound(uint256[] storage _array, uint256 _element) internal view returns (uint256) {\n        uint256 low = 0;\n        uint256 high = _array.length;\n\n        while (low < high) {\n            uint256 mid = Math.average(low, high);\n\n            if (_array[mid] > _element) {\n                high = mid;\n            } else {\n                low = mid + 1;\n            }\n        }\n\n        // At this point at `low` is the exclusive upper bound. We will return the inclusive upper bound.\n\n        if (low > 0 && _array[low - 1] == _element) {\n            return low - 1;\n        } else {\n            return low;\n        }\n    }\n}\n\n/**\n * @title SnapshotToken\n *\n * @dev An ERC20 token which enables taking snapshots of accounts' balances.\n * @dev This can be useful to safely implement voting weighed by balance.\n */\ncontract SnapshotToken is StandardToken {\n    using ArrayUtils for uint256[];\n\n    // The 0 id represents no snapshot was taken yet.\n    uint256 public currSnapshotId;\n\n    mapping (address => uint256[]) internal snapshotIds;\n    mapping (address => uint256[]) internal snapshotBalances;\n\n    event Snapshot(uint256 id);\n\n    function transfer(address _to, uint256 _value) public returns (bool) {\n        _updateSnapshot(msg.sender);\n        _updateSnapshot(_to);\n        return super.transfer(_to, _value);\n    }\n\n    function transferFrom(address _from, address _to, uint256 _value) public returns (bool) {\n        _updateSnapshot(_from);\n        _updateSnapshot(_to);\n        return super.transferFrom(_from, _to, _value);\n    }\n\n    function snapshot() public returns (uint256) {\n        currSnapshotId += 1;\n        emit Snapshot(currSnapshotId);\n        return currSnapshotId;\n    }\n\n    function balanceOfAt(address _account, uint256 _snapshotId) public view returns (uint256) {\n        require(_snapshotId > 0 && _snapshotId <= currSnapshotId);\n\n        uint256 idx = snapshotIds[_account].findUpperBound(_snapshotId);\n\n        if (idx == snapshotIds[_account].length) {\n            return balanceOf(_account);\n        } else {\n            return snapshotBalances[_account][idx];\n        }\n    }\n\n    function _updateSnapshot(address _account) internal {\n        if (_lastSnapshotId(_account) < currSnapshotId) {\n            snapshotIds[_account].push(currSnapshotId);\n            snapshotBalances[_account].push(balanceOf(_account));\n        }\n    }\n\n    function _lastSnapshotId(address _account) internal view returns (uint256) {\n        uint256[] storage snapshots = snapshotIds[_account];\n\n        if (snapshots.length == 0) {\n            return 0;\n        } else {\n            return snapshots[snapshots.length - 1];\n        }\n    }\n}\n\n",
  "sourcePath": "/Volumes/Code/data/www/bonbon_contract/contracts/project_a/SnapshotToken.sol",
  "compiler": {
    "name": "solc",
    "version": "0.4.24+commit.e67f0147.Emscripten.clang"
  },
  "schemaVersion": "2.0.1",
  "updatedAt": "2018-09-19T16:27:22.367Z"
}