{
  "contractName": "TestGetStructVar",
  "abi": [
    {
      "constant": true,
      "inputs": [],
      "name": "testStruct",
      "outputs": [
        {
          "name": "a",
          "type": "uint256"
        },
        {
          "name": "b",
          "type": "string"
        },
        {
          "name": "c",
          "type": "bool"
        }
      ],
      "payable": false,
      "stateMutability": "view",
      "type": "function"
    },
    {
      "inputs": [],
      "payable": false,
      "stateMutability": "nonpayable",
      "type": "constructor"
    }
  ],
  "bytecode": "0x608060405234801561001057600080fd5b50607b6000556040805180820190915260048082527f7465737400000000000000000000000000000000000000000000000000000000602090920191825261005a9160019161006d565b506002805460ff19166001179055610108565b828054600181600116156101000203166002900490600052602060002090601f016020900481019282601f106100ae57805160ff19168380011785556100db565b828001600101855582156100db579182015b828111156100db5782518255916020019190600101906100c0565b506100e79291506100eb565b5090565b61010591905b808211156100e757600081556001016100f1565b90565b6101af806101176000396000f3006080604052600436106100405763ffffffff7c01000000000000000000000000000000000000000000000000000000006000350416639b0e317c8114610045575b600080fd5b34801561005157600080fd5b5061005a6100e4565b604051808481526020018060200183151515158152602001828103825284818151815260200191508051906020019080838360005b838110156100a757818101518382015260200161008f565b50505050905090810190601f1680156100d45780820380516001836020036101000a031916815260200191505b5094505050505060405180910390f35b6000805460018054604080516020600284861615610100026000190190941693909304601f810184900484028201840190925281815293949392918301828280156101705780601f1061014557610100808354040283529160200191610170565b820191906000526020600020905b81548152906001019060200180831161015357829003601f168201915b5050506002909301549192505060ff16835600a165627a7a72305820aa16dd6806e361115508448a9907e8dbd8eb6ec453631b35533bbdb797eda2c60029",
  "source": "pragma solidity ^0.4.24;\n\ncontract TestGetStructVar {\n    struct TestStruct {\n        uint256 a;\n        string b;\n        bool c;\n    }\n\n    TestStruct public testStruct;\n\n    constructor() public {\n        testStruct.a = 123;\n        testStruct.b = 'test';\n        testStruct.c = true;\n    }\n}",
  "sourcePath": "/Volumes/Code/data/www/bonbon_contract/contracts/practices/TestGetStructVar.sol",
  "compiler": {
    "name": "solc",
    "version": "0.4.24+commit.e67f0147.Emscripten.clang"
  },
  "schemaVersion": "2.0.1",
  "updatedAt": "2018-09-19T16:17:23.510Z"
}