{
  "contractName": "TestArray",
  "abi": [
    {
      "constant": true,
      "inputs": [
        {
          "name": "",
          "type": "uint256"
        }
      ],
      "name": "addresses",
      "outputs": [
        {
          "name": "",
          "type": "address"
        }
      ],
      "payable": false,
      "stateMutability": "view",
      "type": "function"
    },
    {
      "inputs": [],
      "payable": false,
      "stateMutability": "nonpayable",
      "type": "constructor"
    },
    {
      "constant": true,
      "inputs": [],
      "name": "getAddressesCount",
      "outputs": [
        {
          "name": "",
          "type": "uint256"
        }
      ],
      "payable": false,
      "stateMutability": "view",
      "type": "function"
    }
  ],
  "bytecode": "0x608060405234801561001057600080fd5b5060008054600160a060020a031990811673f83c5c0be4c0803eca56a4cbf02b07f6e6bbda9c17825560018054821673a08d4485e50d28e60a41cb015203fdb3d1de6c8c1790556002805490911673018649744e6e2a52fa8551749e5db938eff1156717905561010990819061008690396000f30060806040526004361060485763ffffffff7c010000000000000000000000000000000000000000000000000000000060003504166347293d158114604d578063edf26d9b146071575b600080fd5b348015605857600080fd5b50605f60af565b60408051918252519081900360200190f35b348015607c57600080fd5b50608660043560b4565b6040805173ffffffffffffffffffffffffffffffffffffffff9092168252519081900360200190f35b600390565b6000816003811060c057fe5b015473ffffffffffffffffffffffffffffffffffffffff169050815600a165627a7a72305820630bebaeaeb2c2c05cfdec4c9d4d9e768fe30ed1bc7f4dace1502b86dd109c830029",
  "source": "pragma solidity ^0.4.24;\n\ncontract TestArray {\n    address[3] public addresses;\n\n    constructor() public {\n        addresses[0] = 0xF83c5c0be4c0803ECA56a4CBf02b07F6E6BbDa9c;\n        addresses[1] = 0xA08d4485E50d28E60A41cb015203fDB3D1dE6C8C;\n        addresses[2] = 0x018649744e6e2a52fA8551749e5db938EfF11567;\n    }\n\n    function getAddressesCount() view public returns(uint256) {\n        return addresses.length;\n    }\n}",
  "sourcePath": "/Volumes/Code/data/www/bonbon_contract/contracts/practices/TestArray.sol",
  "compiler": {
    "name": "solc",
    "version": "0.4.24+commit.e67f0147.Emscripten.clang"
  },
  "schemaVersion": "2.0.1",
  "updatedAt": "2018-09-19T03:49:59.271Z"
}