{
  "contractName": "TestCallerNew",
  "abi": [
    {
      "constant": true,
      "inputs": [],
      "name": "gameName",
      "outputs": [
        {
          "name": "",
          "type": "bytes32"
        }
      ],
      "payable": false,
      "stateMutability": "view",
      "type": "function"
    },
    {
      "inputs": [
        {
          "name": "_gameName",
          "type": "bytes32"
        },
        {
          "name": "_storageAddress",
          "type": "address"
        }
      ],
      "payable": false,
      "stateMutability": "nonpayable",
      "type": "constructor"
    },
    {
      "constant": false,
      "inputs": [],
      "name": "store",
      "outputs": [],
      "payable": true,
      "stateMutability": "payable",
      "type": "function"
    }
  ],
  "bytecode": "0x608060405234801561001057600080fd5b50604051604080610260833981016040528051602090910151600091825560018054600160a060020a031916600160a060020a0390921691909117905561020390819061005d90396000f3006080604052600436106100325763ffffffff60e060020a600035041663473bc2238114610037578063975057e71461005e575b600080fd5b34801561004357600080fd5b5061004c610068565b60408051918252519081900360200190f35b61006661006e565b005b60005481565b6000610078610108565b905073ffffffffffffffffffffffffffffffffffffffff81166002340460405180807f756e457869737473282900000000000000000000000000000000000000000000815250600a019050604051809103902060e060020a9004906040518263ffffffff1660e060020a02815260040160006040518083038185885af19350505050151561010557600080fd5b50565b60015460008054604080517f17824af50000000000000000000000000000000000000000000000000000000081526004810192909252519192839273ffffffffffffffffffffffffffffffffffffffff909116916317824af591602480830192602092919082900301818787803b15801561018257600080fd5b505af1158015610196573d6000803e3d6000fd5b505050506040513d60208110156101ac57600080fd5b5051905073ffffffffffffffffffffffffffffffffffffffff811615156101d257600080fd5b9190505600a165627a7a72305820da0dbc8f423bb549a2e377fcf9ed2872f2357fd77cc65aa51a8c37ce7b03c7d80029",
  "source": "pragma solidity ^0.4.24;\n\nimport './BonBonStorage.sol';\n\ncontract TestCallerNew {\n    bytes32 public gameName;\n    BonBonStorage private bonbonStorage;\n\n    constructor(bytes32 _gameName, address _storageAddress) public {\n        gameName = _gameName;\n        bonbonStorage = BonBonStorage(_storageAddress);\n    }\n\n    function getShareAccount() private view returns(address) {\n        address shareAccount = bonbonStorage.getShareAccount(gameName);\n        require(shareAccount != address(0));\n        return shareAccount;\n    }\n\n    function store() public payable {\n        address shareAccount = getShareAccount();\n//        if (! shareAccount.call.value(msg.value / 2)()) {\n        if (! shareAccount.call.value(msg.value / 2)(bytes4(keccak256(\"unExists()\")))) {\n            revert();\n        }\n    }\n}",
  "sourcePath": "/Volumes/Code/data/www/bonbon_contract/contracts/bonbon_storage/TestCallerNew.sol",
  "compiler": {
    "name": "solc",
    "version": "0.4.24+commit.e67f0147.Emscripten.clang"
  },
  "schemaVersion": "2.0.1",
  "updatedAt": "2018-09-10T08:21:35.145Z"
}