{
  "contractName": "TestSelfDestruct",
  "abi": [
    {
      "constant": true,
      "inputs": [],
      "name": "owner",
      "outputs": [
        {
          "name": "",
          "type": "address"
        }
      ],
      "payable": false,
      "stateMutability": "view",
      "type": "function"
    },
    {
      "inputs": [],
      "payable": false,
      "stateMutability": "nonpayable",
      "type": "constructor"
    },
    {
      "constant": false,
      "inputs": [],
      "name": "transfer",
      "outputs": [],
      "payable": true,
      "stateMutability": "payable",
      "type": "function"
    },
    {
      "constant": false,
      "inputs": [
        {
          "name": "_to",
          "type": "address"
        }
      ],
      "name": "kill",
      "outputs": [],
      "payable": false,
      "stateMutability": "nonpayable",
      "type": "function"
    },
    {
      "constant": true,
      "inputs": [],
      "name": "getNum",
      "outputs": [
        {
          "name": "",
          "type": "uint256"
        }
      ],
      "payable": false,
      "stateMutability": "view",
      "type": "function"
    }
  ],
  "bytecode": "0x608060405234801561001057600080fd5b5060008054600160a060020a03191633179055606460015561016c806100376000396000f3006080604052600436106100615763ffffffff7c010000000000000000000000000000000000000000000000000000000060003504166367e0badb81146100665780638a4068dd1461008d5780638da5cb5b14610097578063cbf0b0c0146100d5575b600080fd5b34801561007257600080fd5b5061007b610103565b60408051918252519081900360200190f35b610095610109565b005b3480156100a357600080fd5b506100ac61010b565b6040805173ffffffffffffffffffffffffffffffffffffffff9092168252519081900360200190f35b3480156100e157600080fd5b5061009573ffffffffffffffffffffffffffffffffffffffff60043516610127565b60015490565b565b60005473ffffffffffffffffffffffffffffffffffffffff1681565b8073ffffffffffffffffffffffffffffffffffffffff16ff00a165627a7a7230582069b637fd4fe7e3785eb6ca72c13bada9a2e9465a422dc16280cb505459303d0b0029",
  "source": "pragma solidity ^0.4.24;\n\ncontract TestSelfDestruct {\n    address public owner;\n    uint256 private num;\n\n    constructor() public {\n        owner = msg.sender;\n        num = 100;\n    }\n\n    function transfer() public payable {}\n\n    function kill(address _to) public {\n        selfdestruct(_to);\n    }\n\n    function getNum() public view returns(uint256){\n        return num;\n    }\n}",
  "sourcePath": "/Volumes/Code/data/www/bonbon_contract/contracts/practices/TestSelfDestruct.sol",
  "compiler": {
    "name": "solc",
    "version": "0.4.24+commit.e67f0147.Emscripten.clang"
  },
  "schemaVersion": "2.0.1",
  "updatedAt": "2018-10-10T08:09:51.408Z"
}