{
  "contractName": "TestArray",
  "abi": [
    {
      "constant": true,
      "inputs": [
        {
          "name": "",
          "type": "uint256"
        }
      ],
      "name": "addresses",
      "outputs": [
        {
          "name": "",
          "type": "address"
        }
      ],
      "payable": false,
      "stateMutability": "view",
      "type": "function"
    },
    {
      "inputs": [],
      "payable": false,
      "stateMutability": "nonpayable",
      "type": "constructor"
    },
    {
      "constant": true,
      "inputs": [],
      "name": "getAddressesCount",
      "outputs": [
        {
          "name": "",
          "type": "uint256"
        }
      ],
      "payable": false,
      "stateMutability": "view",
      "type": "function"
    }
  ],
  "bytecode": "0x608060405234801561001057600080fd5b5060008054600181810183558280527f290decd9548b62a8d60345a988386fc84ba6bc95484008f6362f93160ef3e5639182018054600160a060020a031990811673f83c5c0be4c0803eca56a4cbf02b07f6e6bbda9c17909155835491820190935501805490911673a08d4485e50d28e60a41cb015203fdb3d1de6c8c1790556101158061009f6000396000f30060806040526004361060485763ffffffff7c010000000000000000000000000000000000000000000000000000000060003504166347293d158114604d578063edf26d9b146071575b600080fd5b348015605857600080fd5b50605f60af565b60408051918252519081900360200190f35b348015607c57600080fd5b50608660043560b5565b6040805173ffffffffffffffffffffffffffffffffffffffff9092168252519081900360200190f35b60005490565b600080548290811060c257fe5b60009182526020909120015473ffffffffffffffffffffffffffffffffffffffff169050815600a165627a7a723058206f1409d421c455ea3f05b0f43e9049e4a0289e96d7a3be2693e58998aced34930029",
  "source": "pragma solidity ^0.4.24;\n\ncontract TestArray {\n    //address[3] public addresses;\n    address[] public addresses;\n\n    constructor() public {\n        //可变长的array，不能通过index赋值（因为length为0）\n        //addresses[0] = 0xF83c5c0be4c0803ECA56a4CBf02b07F6E6BbDa9c;\n        addresses.push(0xF83c5c0be4c0803ECA56a4CBf02b07F6E6BbDa9c);\n        addresses.push(0xA08d4485E50d28E60A41cb015203fDB3D1dE6C8C);\n        //addresses[2] = 0x018649744e6e2a52fA8551749e5db938EfF11567;\n    }\n\n    //array的length不能通过web3获取，需要通过getter获取\n    function getAddressesCount() view public returns(uint256) {\n        return addresses.length;\n    }\n}",
  "sourcePath": "/Volumes/Code/data/www/bonbon_contract/contracts/practices/TestArray.sol",
  "compiler": {
    "name": "solc",
    "version": "0.4.24+commit.e67f0147.Emscripten.clang"
  },
  "schemaVersion": "2.0.1",
  "updatedAt": "2018-09-19T08:42:54.665Z"
}