{
  "contractName": "TestDeployed",
  "abi": [
    {
      "constant": true,
      "inputs": [
        {
          "name": "",
          "type": "address"
        }
      ],
      "name": "share",
      "outputs": [
        {
          "name": "",
          "type": "uint256"
        }
      ],
      "payable": false,
      "stateMutability": "view",
      "type": "function"
    },
    {
      "constant": true,
      "inputs": [],
      "name": "foo",
      "outputs": [
        {
          "name": "",
          "type": "bytes32"
        }
      ],
      "payable": false,
      "stateMutability": "view",
      "type": "function"
    },
    {
      "payable": true,
      "stateMutability": "payable",
      "type": "fallback"
    },
    {
      "constant": false,
      "inputs": [
        {
          "name": "_foo",
          "type": "bytes32"
        }
      ],
      "name": "setFoo",
      "outputs": [
        {
          "name": "",
          "type": "bytes32"
        }
      ],
      "payable": false,
      "stateMutability": "nonpayable",
      "type": "function"
    }
  ],
  "bytecode": "0x60806040527f6465706c6f7965645f666f6f000000000000000000000000000000000000000060005534801561003457600080fd5b50610119806100446000396000f30060806040526004361060525763ffffffff7c01000000000000000000000000000000000000000000000000000000006000350416631877bb5c811460695780633577a26b1460a6578063c29855781460bb575b336000908152600160205260409020805434019055005b348015607457600080fd5b50609473ffffffffffffffffffffffffffffffffffffffff6004351660cd565b60408051918252519081900360200190f35b34801560b157600080fd5b50609460043560df565b34801560c657600080fd5b50609460e7565b60016020526000908152604090205481565b600081905590565b600054815600a165627a7a72305820bb344e803d468bcf22a20ea066b6ce4401c2b69b04dfb75da3140839b27563950029",
  "source": "pragma solidity ^0.4.24;\n\ncontract TestDeployed {\n    bytes32 public foo = 'deployed_foo';\n    mapping (address => uint256) public share;\n\n    function setFoo(bytes32 _foo) public returns(bytes32) {\n        foo = _foo;\n        return foo;\n    }\n\n    function () public payable {\n        share[msg.sender] += msg.value;\n    }\n//\n//    function send() public payable {\n//        share[msg.sender] += msg.value;\n//    }\n}",
  "sourcePath": "/Volumes/Code/data/www/bonbon_contract/contracts/practices/TestDeployed.sol",
  "compiler": {
    "name": "solc",
    "version": "0.4.24+commit.e67f0147.Emscripten.clang"
  },
  "schemaVersion": "2.0.1",
  "updatedAt": "2018-08-30T10:45:42.717Z"
}