{
  "contractName": "TestMappingStruct",
  "abi": [
    {
      "constant": true,
      "inputs": [
        {
          "name": "",
          "type": "uint256"
        }
      ],
      "name": "testMappingStruct",
      "outputs": [
        {
          "name": "a",
          "type": "uint256"
        },
        {
          "name": "b",
          "type": "string"
        },
        {
          "name": "c",
          "type": "bool"
        }
      ],
      "payable": false,
      "stateMutability": "view",
      "type": "function"
    },
    {
      "inputs": [],
      "payable": false,
      "stateMutability": "nonpayable",
      "type": "constructor"
    }
  ],
  "bytecode": "0x608060405234801561001057600080fd5b5060017fad3228b676f7d3cd4284a5443f17f1962b36e491b30a40b2405849e597ba5fb5819055604080518082019091529081527f310000000000000000000000000000000000000000000000000000000000000060208281019182526000808052905290516100a1917fad3228b676f7d3cd4284a5443f17f1962b36e491b30a40b2405849e597ba5fb69161025c565b507fad3228b676f7d3cd4284a5443f17f1962b36e491b30a40b2405849e597ba5fb7805460ff1916600190811790915560027fada5013122d395ba3c54772283fb069b10426056ef8ca54750cb9bb552a59e7d55604080518082019091528181527f3200000000000000000000000000000000000000000000000000000000000000602082810191825260009384529290925251610160917fada5013122d395ba3c54772283fb069b10426056ef8ca54750cb9bb552a59e7e9161025c565b507fada5013122d395ba3c54772283fb069b10426056ef8ca54750cb9bb552a59e7f805460ff1916600190811790915560037fabbb5caa7dda850e60932de0934eb1f9d0f59695050f761dc64e443e5030a56955604080518082019091529081527f330000000000000000000000000000000000000000000000000000000000000060208281019182526002600090815290529051610220917fabbb5caa7dda850e60932de0934eb1f9d0f59695050f761dc64e443e5030a56a9161025c565b50600260009081526020527fabbb5caa7dda850e60932de0934eb1f9d0f59695050f761dc64e443e5030a56b805460ff191660011790556102f7565b828054600181600116156101000203166002900490600052602060002090601f016020900481019282601f1061029d57805160ff19168380011785556102ca565b828001600101855582156102ca579182015b828111156102ca5782518255916020019190600101906102af565b506102d69291506102da565b5090565b6102f491905b808211156102d657600081556001016102e0565b90565b6101c0806103066000396000f3006080604052600436106100405763ffffffff7c01000000000000000000000000000000000000000000000000000000006000350416637fd3cb048114610045575b600080fd5b34801561005157600080fd5b5061005d6004356100e7565b604051808481526020018060200183151515158152602001828103825284818151815260200191508051906020019080838360005b838110156100aa578181015183820152602001610092565b50505050905090810190601f1680156100d75780820380516001836020036101000a031916815260200191505b5094505050505060405180910390f35b600060208181529181526040908190208054600180830180548551600293821615610100026000190190911692909204601f81018790048702830187019095528482529194929390928301828280156101815780601f1061015657610100808354040283529160200191610181565b820191906000526020600020905b81548152906001019060200180831161016457829003601f168201915b5050506002909301549192505060ff16835600a165627a7a72305820a6703910fb9329de382193552d03de79652354bb6ba065905e255c555a47404e0029",
  "source": "pragma solidity ^0.4.24;\n\ncontract TestMappingStruct {\n    struct TestStruct {\n        uint256 a;\n        string b;\n        bool c;\n    }\n\n    mapping (uint256 => TestStruct) public testMappingStruct;\n\n    constructor() public {\n        testMappingStruct[0].a = 1;\n        testMappingStruct[0].b = '1';\n        testMappingStruct[0].c = true;\n        testMappingStruct[1].a = 2;\n        testMappingStruct[1].b = '2';\n        testMappingStruct[1].c = true;\n        testMappingStruct[2].a = 3;\n        testMappingStruct[2].b = '3';\n        testMappingStruct[2].c = true;\n    }\n}",
  "sourcePath": "/Volumes/Code/data/www/bonbon_contract/contracts/practices/TestMappingStruct.sol",
  "compiler": {
    "name": "solc",
    "version": "0.4.24+commit.e67f0147.Emscripten.clang"
  },
  "schemaVersion": "2.0.1",
  "updatedAt": "2018-09-19T16:27:32.722Z"
}