{
  "contractName": "TestCaller",
  "abi": [
    {
      "constant": true,
      "inputs": [
        {
          "name": "_gameName",
          "type": "bytes32"
        }
      ],
      "name": "getShareAccount",
      "outputs": [
        {
          "name": "",
          "type": "address"
        }
      ],
      "payable": false,
      "stateMutability": "view",
      "type": "function"
    },
    {
      "constant": false,
      "inputs": [
        {
          "name": "_toAddress",
          "type": "address"
        },
        {
          "name": "_toAmount",
          "type": "uint256"
        }
      ],
      "name": "transferTo",
      "outputs": [],
      "payable": false,
      "stateMutability": "nonpayable",
      "type": "function"
    },
    {
      "constant": true,
      "inputs": [],
      "name": "gameName",
      "outputs": [
        {
          "name": "",
          "type": "bytes32"
        }
      ],
      "payable": false,
      "stateMutability": "view",
      "type": "function"
    },
    {
      "constant": false,
      "inputs": [],
      "name": "renounceOwnership",
      "outputs": [],
      "payable": false,
      "stateMutability": "nonpayable",
      "type": "function"
    },
    {
      "constant": true,
      "inputs": [],
      "name": "owner",
      "outputs": [
        {
          "name": "",
          "type": "address"
        }
      ],
      "payable": false,
      "stateMutability": "view",
      "type": "function"
    },
    {
      "constant": false,
      "inputs": [
        {
          "name": "_gameName",
          "type": "bytes32"
        },
        {
          "name": "_accountAddress",
          "type": "address"
        }
      ],
      "name": "setShareAccount",
      "outputs": [],
      "payable": false,
      "stateMutability": "nonpayable",
      "type": "function"
    },
    {
      "constant": true,
      "inputs": [
        {
          "name": "",
          "type": "bytes32"
        }
      ],
      "name": "shareAccountAddress",
      "outputs": [
        {
          "name": "",
          "type": "address"
        }
      ],
      "payable": false,
      "stateMutability": "view",
      "type": "function"
    },
    {
      "constant": false,
      "inputs": [
        {
          "name": "_newOwner",
          "type": "address"
        }
      ],
      "name": "transferOwnership",
      "outputs": [],
      "payable": false,
      "stateMutability": "nonpayable",
      "type": "function"
    },
    {
      "inputs": [
        {
          "name": "_gameName",
          "type": "bytes32"
        },
        {
          "name": "_bbtShareAccount",
          "type": "address"
        }
      ],
      "payable": false,
      "stateMutability": "nonpayable",
      "type": "constructor"
    },
    {
      "payable": true,
      "stateMutability": "payable",
      "type": "fallback"
    },
    {
      "anonymous": false,
      "inputs": [
        {
          "indexed": true,
          "name": "previousOwner",
          "type": "address"
        }
      ],
      "name": "OwnershipRenounced",
      "type": "event"
    },
    {
      "anonymous": false,
      "inputs": [
        {
          "indexed": true,
          "name": "previousOwner",
          "type": "address"
        },
        {
          "indexed": true,
          "name": "newOwner",
          "type": "address"
        }
      ],
      "name": "OwnershipTransferred",
      "type": "event"
    },
    {
      "constant": false,
      "inputs": [],
      "name": "store",
      "outputs": [],
      "payable": true,
      "stateMutability": "payable",
      "type": "function"
    }
  ],
  "bytecode": "0x608060405234801561001057600080fd5b5060405160408061051d83398101604052805160209091015160008054600160a060020a031916331790556002829055610057828264010000000061033261005e82021704565b50506100a3565b600054600160a060020a0316331461007557600080fd5b6000918252600160205260409091208054600160a060020a031916600160a060020a03909216919091179055565b61046b806100b26000396000f3006080604052600436106100985763ffffffff7c010000000000000000000000000000000000000000000000000000000060003504166317824af5811461009a5780632ccb1b30146100ce578063473bc223146100f2578063715018a6146101195780638da5cb5b1461012e578063975057e714610143578063b22ac50d1461014b578063e7ec51ef1461016f578063f2fde38b14610187575b005b3480156100a657600080fd5b506100b26004356101a8565b60408051600160a060020a039092168252519081900360200190f35b3480156100da57600080fd5b50610098600160a060020a03600435166024356101ea565b3480156100fe57600080fd5b5061010761024a565b60408051918252519081900360200190f35b34801561012557600080fd5b50610098610250565b34801561013a57600080fd5b506100b26102bc565b6100986102cb565b34801561015757600080fd5b50610098600435600160a060020a0360243516610332565b34801561017b57600080fd5b506100b2600435610384565b34801561019357600080fd5b50610098600160a060020a036004351661039f565b6000818152600160205260408120548290600160a060020a031615156101cd57600080fd5b5050600090815260016020526040902054600160a060020a031690565b600054600160a060020a0316331461020157600080fd5b303181111561020f57600080fd5b604051600160a060020a0383169082156108fc029083906000818181858888f19350505050158015610245573d6000803e3d6000fd5b505050565b60025481565b600054600160a060020a0316331461026757600080fd5b60008054604051600160a060020a03909116917ff8df31144d9c2f0f6b59d69b8b98abd5459d07f2742c4df920b25aae33c6482091a26000805473ffffffffffffffffffffffffffffffffffffffff19169055565b600054600160a060020a031681565b600254600081815260016020526040812054909190600160a060020a031615156102f457600080fd5b6102ff6002546101a8565b9150600160a060020a0382166002340460405160006040518083038185875af192505050151561032e57600080fd5b5050565b600054600160a060020a0316331461034957600080fd5b600091825260016020526040909120805473ffffffffffffffffffffffffffffffffffffffff1916600160a060020a03909216919091179055565b600160205260009081526040902054600160a060020a031681565b600054600160a060020a031633146103b657600080fd5b6103bf816103c2565b50565b600160a060020a03811615156103d757600080fd5b60008054604051600160a060020a03808516939216917f8be0079c531659141344cd1fd0a4f28419497f9722a3daafe3b4186f6b6457e091a36000805473ffffffffffffffffffffffffffffffffffffffff1916600160a060020a03929092169190911790555600a165627a7a723058208cdaed989432b219e22935cafca14f3b88bf2a1da4d0c798b2b75846c47aba190029",
  "source": "pragma solidity ^0.4.24;\n\nimport './BonBonStorage.sol';\n\ncontract TestCaller is BonBonStorage {\n    bytes32 public gameName;\n\n    constructor(bytes32 _gameName, address _bbtShareAccount) public {\n        gameName = _gameName;\n        BonBonStorage.setShareAccount(gameName, _bbtShareAccount);\n    }\n\n    function store() shareAccountExists(gameName) public payable {\n        address bbtShareAccount = BonBonStorage.getShareAccount(gameName);\n        if (! bbtShareAccount.call.value(msg.value / 2)()) {\n            revert();\n        }\n    }\n}",
  "sourcePath": "/Volumes/Code/data/www/bonbon_contract/contracts/bonbon_storage/TestCaller.sol",
  "compiler": {
    "name": "solc",
    "version": "0.4.24+commit.e67f0147.Emscripten.clang"
  },
  "schemaVersion": "2.0.1",
  "updatedAt": "2018-10-19T14:42:00.702Z"
}